:020000040001F9
:10D00000A0380020F5D001000FD1010011D101009E
:10D010000000000000000000000000000000000010
:10D0200000000000000000000000000013D101001B
:10D03000000000000000000015D1010017D1010020
:10D0400019D1010019D1010041D4010019D1010009
:10D0500019D101000000000009D2010019D101001E
:10D0600019D1010019D1010019D1010019D1010014
:10D0700019D1010019D1010019D1010019D1010004
:10D0800019D1010055D3010019D1010019D10100B6
:10D0900075D3010019D10100C9D3010019D10100D4
:10D0A00019D1010019D101000000000000000000AA
:10D0B0000000000000000000000000000000000070
:10D0C0000348854600F08EF8004800474DFB0100FC
:10D0D000A0380020401E00BF00BF00BF00BF00BF3F
:10D0E00000BF00BF00BF00BF00BF00BF00BFF1D145
:10D0F000704700000321094802680A43026008489B
:10D1000002680A4302600748804707480047FEE775
:10D11000FEE7FEE7FEE7FEE7FEE70000240500402D
:10D1200054050040EDD30100C1D0010030B50B46DD
:10D13000014600202022012409E00D46D5409D42F1
:10D1400005D31D469540491B254695404019154677
:10D15000521E002DF1DC30BD70B50024254600289C
:10D1600001DA01244042002901DA01254942FFF792
:10D17000DDFFAC4200D04042002C00D0494270BDDF
:10D1800003460B439B0703D009E008C9121F08C0E0
:10D19000042AFAD203E00B780370401C491C521E8B
:10D1A000F9D27047D2B201E00270401C491EFBD296
:10D1B00070470022F6E710B513460A4604461946A2
:10D1C000FFF7F0FF204610BD30B5044600200346AF
:10D1D00000E05B1C934203D2E05CCD5C401BF8D0C6
:10D1E00030BD0000064C0125064E05E0E36807CC83
:10D1F0002B430C3C98471034B442F7D3FFF764FF3D
:10D20000BC0E0200DC0E0200F8B50024FF2501353B
:10D21000012627460094284602F0AEFE002808D0DA
:10D2200034484068304204D0334800212818344341
:10D2300001602D1D76007F1CADB2042FEBD3FF20C3
:10D240007D3002F099FE002807D02C4800210160B3
:10D25000400704432A48006900902A4F200712D053
:10D260000126002526420AD02748AA00111808697D
:10D270000969C004C00E8903BA58890F9047760027
:10D280006D1C042DEED3002C30DA00241D4E082135
:10D29000301940304156491C25D0077ABD06AD0EE5
:10D2A000284601F003F980003658002E1BD0BF0934
:10D2B0000121A940154AA80080180068009A80033F
:10D2C000800F114202D0022802D00CE003280AD1BC
:10D2D000032F05D102280AD00221284602F03CFE85
:10D2E00039462846B047641C062CCFD3F8BD03212D
:10D2F000F3E7000000630040006000407C610040F4
:10D3000000050050742F0020006500400007005009
:10D310008307FF22DB0E9A408907090E99400028F7
:10D320000BDA0007000F0838830808489B0018181C
:10D33000C36993430B43C3617047830804489B0050
:10D340001B181868904308431860704700ED00E010
:10D3500000E400E010B506490020086048608860DD
:10D36000C860034940390860486003F095FC10BD6F
:10D3700040110140FEB50020C043124D0290686983
:10D38000019068462E6902F06BF8074602F01CFB1C
:10D390000446002F08D002AA0199009802F080F8F4
:10D3A000029802F05BFB06E0029802F057FB0028AF
:10D3B00001D1002C02D0304601F0A0F900206871A4
:10D3C000FEBD00009028002010B5074840680028E6
:10D3D00007D08047002803D00022114600F00CFA45
:10D3E00010BD02F037FA10BDB828002010B502F0C9
:10D3F00093FA002805D00E490C484860C8130D491F
:10D4000088610D48018CC9B201290ED1818C0907B0
:10D410000BD1018D0906090F042906D1808D000664
:10D42000000F02D105490120886010BDDFFF07C051
:10D4300000050040006C0040C00F00F000060040F6
:10D440007CB51B4CA0681B4E0025002818D0A56099
:10D4500019488069C1B2194800F003FA002805D0C4
:10D4600001216A4611700190684607E013488168FF
:10D47000C068401A012803D1684605707168884762
:10D48000E069002803D0E561032002F0C3FE606A72
:10D4900000280BD0656208498039086808600221BD
:10D4A0006A46117001907168684688477CBD00002B
:10D4B000002100406428002000250040542F002057
:10D4C0000FB410B503A9044B044A029800F024F8E5
:10D4D00010BC08BC04B01847ADF50100B42800200A
:10D4E00030B47446641E2578641CAB4200D21D46DD
:10D4F000635D5B00E31830BC184702E008C8121FE8
:10D5000008C1002AFAD170477047002001E001C12C
:10D51000121F002AFBD17047FFB58DB00F4605469C
:10D52000002606E025280AD0109A0F9990476D1C16
:10D53000761C28780028F5D1304611B0F0BD0024C3
:10D540000121674A009400E004436D1C2B780846D3
:10D55000203B98401042F7D128782E2815D104207E
:10D56000044368786D1C2A280AD101CF6D1C0090F5
:10D570000BE000990A225143303940186D1C00908D
:10D580002878014630390929F3D92878692843D009
:10D5900006DC0028D0D063280BD0642804D13BE0FF
:10D5A00073280FD075284CD0109A0F999047761C8D
:10D5B00094E03878694608720020487202A8019009
:10D5C000012003E0386801900020C0433F1D61073F
:10D5D0000CD5002400E0641C00998C420FDA8442D0
:10D5E000F9DB0199095D0029F5D108E0002400E08C
:10D5F000641C8442FCDB0199095D0029F8D13619CD
:10D6000007E0019801990078491C0191109A0F993F
:10D610009047641EF5D261E00A20019001CF0028F6
:10D6200002DA40422D2102E0210504D52B216A4671
:10D630001172012103E0E10701D02021F7E70C91ED
:10D6400004E00A20019001CF00210C910BA90B915D
:10D6500008E00199FFF76AFD0A460B993032491E2E
:10D660000B910A700028F4D10B9803A9081A2030F6
:10D670000190600701D5009801E001200090019918
:10D68000884203DD01460198081A00E000200024CA
:10D69000009006E002A8109A005D0F999047641C64
:10D6A000761C0C988442F5DB04E0109A30200F9928
:10D6B0009047761C0099481E00900029F5DC08E090
:10D6C0000B980B990078491C0B91109A0F99904771
:10D6D000761C0199481E01900029F1DC6D1C28E799
:10D6E0000928010038B50D4C6078022802D00C4999
:10D6F0000120886069460B4800F090F8002802D0AD
:10D7000000F016F838BD0848802181606A46074B52
:10D710001278DA6102226270416038BD642800200C
:10D7200000200040642F002000230040002500401E
:10D730001CB506490120C8600549487003206A46A7
:10D7400010704968684688471CBD000000200040F2
:10D750006428002004490020487004490122CA605E
:10D760004A60034908607047642800200020004098
:10D770000025004070B500238D880C680DE0E61888
:10D780007678E15C864206D1E018801C491E106064
:10D790009180002070BD5B185B1C9D42EFD8052076
:10D7A00070BD10B501220221002000F039FD0028D3
:10D7B00001D0072812D107220221012000F030FDFC
:10D7C000002801D0072809D100210A22084600F0CC
:10D7D00027FD002801D0072800D1002010BD00003F
:10D7E000044842680121C9050B46934383600A40FF
:10D7F000C260704700050050BFF34F8F03490248D5
:10D80000C860BFF34F8FFEE70400FA0500ED00E0AB
:10D81000014B1B6818470000302F00208268C36846
:10D8200093420AD0826883881A4003689A5C0A701F
:10D830008168491C816000207047052070470029DD
:10D8400006D0002A02D0531E134203D0092070478D
:10D850000E2070470160838000218160C16008460E
:10D8600070478268C3689B1A8288934208D8C3684D
:10D8700013400268D154C168491CC1600020704740
:10D880000420704738B50C46A2680C235A43064B57
:10D8900009789D58054A126A0092024620460830CF
:10D8A0002369A84738BD0000903000206C28002074
:10D8B00010B5064914230A785A435118091DFFF779
:10D8C000E1FF042003F00EF810BD0000C42F00207B
:10D8D00070B5114CA568002D06D0002A06D000288E
:10D8E00004D00023247809E0082070BD072070BD13
:10D8F00024265E43AE5D002E04D05B1CA342F7DB02
:10D90000042070BD242401265C432E5564196170E7
:10D91000A2610360002070BD90280020FFB5980729
:10D92000002481B01E4615460F4600280BD1002E5C
:10D9300009D002F04FFF22490A9888610F703246E1
:10D9400000208E6008E0072005B0F0BD242343438B
:10D95000D4549B181C75401CB842F7DB2420474365
:10D96000BB19032048700F461846CB601946183083
:10D97000002218232E465E43D3005B181C705C7097
:10D980009D7058603018521C032AF5DB0020C043FC
:10D990003861BC70FC7001240A482405046003212E
:10D9A0001420FFF7B5FC08480460084C0198A060FB
:10D9B00003211120FFF7ACFC606878610020C3E709
:10D9C0009028002080E200E000E100E00015014026
:10D9D000FEB504461D48174682680D46002A0CD045
:10D9E00001788C4201D2052D01D20720FEBD2146CF
:10D9F00024235943535C012B01D00820FEBD881815
:10DA0000407801281DD0002603F0E0F9C0000F493E
:10DA10000190C9684018694603F002FA002812D044
:10DA2000012101700A49446049680830E2C0074991
:10DA30000198C96841180098487003F0BBF80020AD
:10DA4000FEBD2E46E0E70420FEBD00009028002029
:10DA500000150140F8B5144D0446A868002809D007
:10DA600029788C4201D30720F8BD24216143405C12
:10DA7000012801D00820F8BD03F0A8F9C600E86825
:10DA80006946301803F0CCF900280AD00221017051
:10DA90004460E86831180098487003F08BF8002063
:10DAA000F8BD0420F8BD000090280020FFB5584FB5
:10DAB00083B000260D4604467E707A6000292AD085
:10DAC000A888296882B25348FFF7B9FE002823D1FD
:10DAD000A889A96882B24F481030FFF7B0FE00282D
:10DAE0001AD160784C4903228000401802602278E5
:10DAF0003046920051180E60484D6178E9602178F7
:10DB00006961A1686962454E61794036002905D096
:10DB10000E21F16203E0072007B0F0BDF062237927
:10DB2000022B17D03E493F4A012B45D004232B60DE
:10DB30008860C861F06A40084000F062581FA86021
:10DB4000286101209060106078700C98008800288F
:10DB50003FD043E002F0ACF9002803D102F07EF997
:10DB60000028D9D13048694600680090A07802F0BA
:10DB7000A7F90028D0D1401E2861A078A860F06ADB
:10DB800001210843F0622848284A40680190E07863
:10DB900001A902F00FF90028BED1E078012102F0BE
:10DBA000B9F8E07802F050F9002801D0002000E038
:10DBB000012002F02FFBC8E704232B608860C861B6
:10DBC000F16A01200143F162E1782961A178A9603D
:10DBD000B8E70C9938780880401C38700021144848
:10DBE000C9438160A1218900416012490420086075
:10DBF000114B06991A68FF2424048907090EA243D1
:10DC000009040A431A600D490860002084E70000F7
:10DC100064280020542F00200007005000250040F9
:10DC200000210040002000408C0E0200EDF60100B3
:10DC30000023004080E200E000E400E000E100E0BA
:10DC400010B501460448FFF70CFE0446022002F01E
:10DC5000E1FA204610BD0000642F002010B50446F4
:10DC60000878002808D0012801D0022803D149787B
:10DC70000BA0FFF725FC10BD204600F041F800285E
:10DC800003D000221146FFF7B7FD204600F012F83E
:10DC90000028F0D000221146FFF7AEFD10BD0000B5
:10DCA00042617474657279203D2025642025250D1C
:10DCB0000A00000070B500281CD00F4B0288448871
:10DCC000186814214143401C40070C4D400F186058
:10DCD00049194C810220C881081D086100248C81EB
:10DCE0000120087208714C710A80887003F014F8E2
:10DCF000204670BD0E2070BD2C280020782C0020FE
:10DD000010B50A4B14221968094C4A43491C4907AB
:10DD1000490F1960121981889180008810800020B5
:10DD2000907002F0F9FF002010BD00002C280020A8
:10DD3000782C002008B5002815D0002913D0012325
:10DD40006A469370094B1380094A90600022D243BF
:10DD5000028000224280828009688160054968460D
:10DD600000F038F808BD0E2008BD00000F180000B4
:10DD70002C280020D5E8010008B5002816D000297D
:10DD800014D00A88102A12D0352A13D0372A1ED070
:10DD9000382A0BD18A8983889A4207D101236A469F
:10DDA0001370897C517082686946904708BD8988E4
:10DDB000018008BD8A8983880C319A4207D10223E9
:10DDC0006A4613708979517082686946904702F0FB
:10DDD000A3FF08BD30B5002815D0002913D00E4A86
:10DDE0001378002B11D09368022B10D011D20B4C5A
:10DDF000DD002C1905882580408860805B1C6160EF
:10DE00000020936030BD0E2030BD082030BD0620BC
:10DE100030BD042030BD000038280020182D00201F
:10DE200000210448012281600270C16041600846FF
:10DE3000704700003828002070B5002815D0002950
:10DE400013D0244A1278002A0FD00A88302A17D01B
:10DE50000CDC04464034102A10D0112A05D162216E
:10DE6000FFF7A7F90020C043A08370BD322A2DD050
:10DE7000332AFAD1091D02F04FF970BD8888F3E703
:10DE80000546C888091D002807D00021284600F053
:10DE9000C1FE284602F090F970BD2C46603420780F
:10DEA0002E22504340194A8902808A894280CA89B9
:10DEB0004285098A8185284600F000FB0100EBD0ED
:10DEC00000206070284600F0DBFE70BD091D02F0E6
:10DED000BDF870BD3828002010B500280DD0144AB8
:10DEE0001378002B0BD09368002B08D004466034C5
:10DEF0006378002B05D0112010BD0E2010BD082026
:10DF000010BD0023D36053602370034602464033A4
:10DF1000084899830188118040885080988B01219E
:10DF200090DF0028ECD101206070002010BD0000BF
:10DF300038280020182D002010B5044600F0C8FE37
:10DF400021460A48FFF778FF08482146643000F070
:10DF500055F8064821467030FFF70EFF204600F0C6
:10DF6000D5F8204602F012F810BD0000EC2B00207E
:10DF700070B500281CD00F4B028844881868142103
:10DF80004143401C40070C4D400F186049194C811B
:10DF90000220C881081D086100248C8101200872BC
:10DFA00008714C710A80887002F0D8FE204670BD5E
:10DFB0000E2070BD48280020982D002008B50028AC
:10DFC00014D0002912D001236A469370084B1380A5
:10DFD000084A9060096881600021C94301800021DE
:10DFE000418005496846FFF7F5FE08BD0E2008BDD3
:10DFF0000D1800004828002071E8010008B500282D
:10E000001DD000291BD00A88102A19D0372A1CD00D
:10E01000382A14D18A8983889A4210D102226B4609
:10E020001A708A7CD3074A1C002B0CD0D17C927CBE
:10E03000090211436A46518082686946904708BDCB
:10E040008988018008BDC97CF4E702F087FE08BD1D
:10E0500008B5002348221549082002F077FC002863
:10E0600003D000221146FFF7C7FB0020694600904D
:10E07000487002200870684660DF002803D0002244
:10E080001146FFF7B9FB0A4802F056FC002803D0FE
:10E0900000221146FFF7B0FB064802F06FFC002893
:10E0A00003D000221146FFF7A7FB08BDCC280020B3
:10E0B00039DF0100710B02007CB5134E00250C46C0
:10E0C0003060002918D06946002000F065F800286B
:10E0D00019D101A9012000F05FF8002813D168468A
:10E0E00001790020002901D0022004E06946097866
:10E0F000002900D00B2020707068002802D1FFF7A3
:10E1000050FB054628467CBD2028002010B51C4C3D
:10E110000188606810290DD011290AD1401E606065
:10E1200007D1FFF73EFB002803D02168002900D06B
:10E13000884710BD00281ED100210122084600F0AA
:10E140006FF8002801D0072811D1072202210120F1
:10E1500000F066F8002801D0072808D10422022127
:10E16000002000F05DF8002805D0072803D02168C2
:10E17000002900D088476068401C606010BD000026
:10E180002028002010B5032000F05CF9002801D001
:10E19000062800D1002010BD002008707047000044
:10E1A00070B51E4C04281BD0072821D00A2816D190
:10E1B000002000F037F8002803D000221146FFF7B6
:10E1C0001BFBFFF7DFFF002803D000221146FFF7FB
:10E1D00013FB3CDF09E000221146FFF70DFB70BD89
:10E1E0001321E08876DF0828F9D00028F3D170BD2C
:10E1F0006078012501280CD1A078002809D1A570EC
:10E2000087DF002807D0082803D000221146FFF737
:10E21000F3FAA57070BD02F0FFFAFAE700280020BB
:10E220000720704710B5054A0146127A0020D20730
:10E2300002D0084600F028F810BD00000C2800208D
:10E2400010B50D4A51609060C00706D007210B48F9
:10E25000490581600022C26081610748084A0021A7
:10E260000C30FFF735FB002805D10348054A012192
:10E270001030FFF72DFB10BD0C28002000050050CA
:10E28000B1F90100E1D70100F8B5064601200021EF
:10E29000800542100D46694C694F3300FFF720F9A5
:10E2A000180D1313354553697A7E857E858F9292BA
:10E2B000929292B3BABDC2C9C9B803204005A0600A
:10E2C000E5603D70A4E0A060E56060680721490555
:10E2D0004840800209D5A260E560022E02D1E1200B
:10E2E000C0000AE07D20400107E0E260A560022E48
:10E2F00001D1C82001E0FF2091303E706421FEF77B
:10E3000015FF7968414300222EE0A060E560606857
:10E31000072149054840800204D5A260E560192024
:10E320004001EAE7E260A560E3E7A060E5606068BD
:10E33000072149054840800202D5A260E560D1E787
:10E34000E260A560D7E7A060E56060680721490545
:10E350004840800202D5A260E56001E0E260A5606D
:10E360003E70786841000022F868FFF731FB0146F3
:10E370004EE0A060E56060680721490548408002E2
:10E3800002D5A260E56001E0E260A5603E70002277
:10E390007968E9E7A060E560E2604DE06168024607
:10E3A0008A43A2600140E160F1E7616802468A4366
:10E3B000A2600140E160786881004118D3E707203E
:10E3C00040051DE03869FFF745FB01461120801B21
:10E3D00001D0002904D00120C005A060E56017E04D
:10E3E00001280BD9C82148436421FEF79FFE7968B4
:10E3F000002241433869FFF7EBFA01460120C005CE
:10E40000E060A56004E007204005A060E5603E7084
:10E410000846F8BD03208005BCE705225205A2602E
:10E42000E56008E00120C005A060E560032040052C
:10E4300001E007204005E060A560E8E70005005026
:10E440000C280020062070470022D2438300044994
:10E450000428CA5002D308184030027170470000E7
:10E46000742F0020F0B50025ED43002A02D00023D0
:10E47000042601E004230A260B4C04E09F00E75920
:10E480007F1C04D05B1CB342F8D32846F0BD26188D
:10E490005DB2203635729E00A151002AF5D1E118F7
:10E4A00040310871F1E70000742F0020024909187B
:10E4B0002820085670470000742F002008B56021FE
:10E4C000095C2E22514309184030C27F002A08D02F
:10E4D000521ED2B20C235A435218D2896B46521C98
:10E4E00001E04A8D6B461A80898D5980808B1946D0
:10E4F00092DF08BDF8B53E481422017851430C184C
:10E50000E0680C2148433A492769CC314018058915
:10E5100041890091241D466801F0AEFF014638464E
:10E52000FEF704FE002932D000200099A2884D4356
:10E530006188AE198918CD1900222E4900280A6178
:10E5400009D001F099FF6188884222D0B54202D1FA
:10E55000A08800281DD0A06802281AD001F08CFFE6
:10E56000A188CA1901461046FEF7E0FD214C880833
:10E57000E06001F081FF01462846FEF7D7FD002943
:10E5800011D00020B5422FD000280ED02CE0012061
:10E59000CBE701F071FF01463846FEF7C7FD15498C
:10E5A0004861032021E00120ECE7ADB2B7B201F0F1
:10E5B00063FF01463846FEF7B9FD064601F05CFFF1
:10E5C00001462846FEF7B2FD864201D1781B09E0DC
:10E5D00001F052FF064601F04FFF01462846FEF7C4
:10E5E000A5FD701A80082061022002F07BF9F8BDB9
:10E5F000C42F00206C28002010B507481422017891
:10E60000514308180079042802D000F059F810BDD1
:10E61000012002F067F910BDC42F002010B50B488F
:10E620001422017851430818094AC18811620079FF
:10E63000012806D0032801D0042801D1FFF75AFF92
:10E6400010BD012002F04EF910BD0000C42F0020C3
:10E650006C28002014225043054A002180180171C3
:10E66000C18001220161C2604161018170470000E7
:10E67000C42F0020F8B5104C069E65780A2D19D0DD
:10E6800027787D190A2D00D30A3D14277D432D19C3
:10E6900028716A6103C92961E860EB802E81607886
:10E6A000401C607005480078002801D1FFF7B6FFD4
:10E6B0000020F8BD0420F8BDC42F00206C280020E5
:10E6C00010B50D4C14212078484301190020091D74
:10E6D000FFF7D8F82078FFF7BDFF6078401E607024
:10E6E0002078401CC0B220700A2801D10020207080
:10E6F000002002F0F7F810BDC42F0020F8B5224822
:10E7000001694A1C3DD024225143826889184E6811
:10E710001E494C6847690079E11B0D022D0AED1C6A
:10E72000002814D101201A4A00045060184A403AC7
:10E7300050601849400008601749086017490120D7
:10E7400008602F20FEF7C6FC0F4901200871B54272
:10E7500000D23546E81900020C49000A4031086031
:10E760000A494968001B091B0902090A0002000A3C
:10E77000C91C814204D9012006494004803908603F
:10E78000F8BD02F027F8F8BD9028002000150140E0
:10E790004013014080E200E000E100E00010014091
:10E7A00070B5094B04469E7A082000250E4207D01A
:10E7B0000648844202D01889A04202D10020156088
:10E7C00070BD052070BD0000242F0020FFFF000059
:10E7D0000C214843064910B5012240188272911E4F
:10E7E0000181FF21C1720721FEF7E3FC10BD00008B
:10E7F000242F002010B5134C207900071FD4606926
:10E80000401C6061E068002801D0042004E001F0B1
:10E81000A7F8002803D0022002F0A0F910BD20695B
:10E82000002809D06068C10701D00320F4E7012166
:10E83000084360600020EFE7FFF7DEFE10BD02F046
:10E8400081F910BD6C28002010B5084841680A07FE
:10E8500008D48A0702D5012211434160022002F048
:10E860007DF910BD02F06EF910BD00006C2800208B
:10E8700038B50178002925D18188134A914221D1E8
:10E88000817901291ED1114943888A6800211380AA
:10E890000F4C037A0EE00C254D432D186D89A542CF
:10E8A00007D10C2359430818838A5380418A9180E9
:10E8B00002E0491C8B42EED801206946087093683B
:10E8C0001046984738BD00000D1800004828002069
:10E8D000372A000038B50178002926D18188134AEB
:10E8E000914222D1817901291FD1114943888A6837
:10E8F000002113800F4C037A0FE00C254D432D1897
:10E900006D89A54207D10C2359430818838A538087
:10E91000418A918003E0491CC9B28B42EDD80020A6
:10E920006946087093681046984738BD0F18000074
:10E930002C280020192A0000F3B505466030007825
:10E940002E2148432E4647194036F47F0C20604361
:10E95000C1193A79601C891D83B0904226D101AB60
:10E960000022284600F0B6FF002822D010E0401E0A
:10E97000A04201D1002003E00C206043C0191230F6
:10E980000246009001AB284600F0A4FF002807D003
:10E99000049800210170B08B01A993DF05B0F0BD90
:10E9A000F07F0099401C641CF077E4B23879A042F3
:10E9B000DDD80498012101700020EFE7FEB50E4676
:10E9C000044681786A46234801F0C8FC002827D114
:10E9D00060780C21204F4843C019807A400620D42B
:10E9E000022E1ED0012E1ED01C4DA07818214843A7
:10E9F00019490023D039411818226846A847002831
:10EA000013D0022E0CD020780C21484312490C312F
:10EA10004018807A124980000A582146684690477B
:10EA2000FEBD104DE1E7104DDFE7022EF8D0607813
:10EA30000C214843C019817ABF221140817260784D
:10EA40001C21484304491823283941181C226846D0
:10EA5000A847D8E75C280020242F0020C90A02001C
:10EA60005C0E0200090702002D06020070B5054683
:10EA7000114A12480024182363431B18DB7DFF2B27
:10EA800004D0641C072CF6D3104670BD0A78022A05
:10EA900009D0182262431018FD22C27507221030D7
:10EAA000FEF76EFB04E0182161430818FE21C175D2
:10EAB0002C700022E8E7000043800000542E002064
:10EAC00070B5064608780D4615285DD009DC2F4C38
:10EAD00011280DD0122830D0132844D0142853D137
:10EAE00046E0212849D0222847D023284CD144E0B1
:10EAF0000720FFF797FB002803D000221146FEF7FE
:10EB00007BFE6868042205882048E580314608308D
:10EB1000FEF736FB29461E48FFF7DEF9002803D032
:10EB200000221146FEF768FE2078401C0006000E09
:10EB3000207029D101F070FE26E062211448FEF712
:10EB400038FB0020FFF76EFB002803D0002211469F
:10EB5000FEF752FE2078012801D101F05DFE2078F9
:10EB6000401E207010E00948083000F0C1FB05E0AD
:10EB700007486430FFF7FCF900E01046002803D096
:10EB800000221146FEF738FE002070BD002800204C
:10EB9000EC2B00201FB56946087301F073FC0028B8
:10EBA00003D000221146FEF727FE03A800F054FA16
:10EBB000002803D000221146FEF71EFE01A8052101
:10EBC0000130FEF7F6FA11480222694600900A71F8
:10EBD0004879012318431043E3210840DF210C301A
:10EBE000084069464871072088711020C871087A6A
:10EBF000184310430872064800F04EFB002803D06B
:10EC000000221146FEF7F8FD1FBD0000C1EA010019
:10EC100005280020F3B50446603000782E214843D3
:10EC2000071981B0384601F0B7FD060023D0124D18
:10EC3000686802281FD24034A18B38220F4C504301
:10EC4000031959800299002907D0002121542E224E
:10EC50003946181DFEF794FA01E002212154686834
:10EC6000382141430919401C4E636860A9688842F5
:10EC700001D101F031FBFEBD38280020282D0020F5
:10EC8000F8B5044660300D4600782E21484300193F
:10EC900001F082FD010016D00B484268022A12D210
:10ECA00040343823A68B5343084C1F461B195E8003
:10ECB0000126E6555D60521C5963426080688242BD
:10ECC00001D101F009FBF8BD38280020282D0020D3
:10ECD000F0B50646D5480027007893B000285CD0F0
:10ECE000D34D2868002858D0684600F0A7F90028BE
:10ECF00003D000221146FEF77FFD00200E90301D4C
:10ED000002902A2168468181FF21817000210170D3
:10ED10000B91C74C30880C3C10280ED0B0880BAA41
:10ED20000221FFF73DFD002807D10B980C2141433C
:10ED30000919C97A6A4691705070308817287DD0B9
:10ED40002DDC102838D0112879D0132825D10B9923
:10ED50001C220B465343B64A0020343A9A180A90B4
:10ED600005920C225143089009900919C97A18227A
:10ED70005143AF4A0790DC3A891806910022B088C7
:10ED800005AB11467FDF002807D10B980C214843C3
:10ED90000019817A04221143817213B0F0BDA54994
:10EDA00018286ED01C286DD05228F6D1A87A800081
:10EDB000095868468847F0E70BAA01219E48FFF7EB
:10EDC000EFFC0028E9D10B990C20484302220019DE
:10EDD000827211236A4613715170B1880181072232
:10EDE000B11DFEF7CDF9B61D0D96002690491820ED
:10EDF0007043DC394018072210300D99FEF7E4F912
:10EE0000002803D0761C072EF0D3DCE00B980C21F1
:10EE100048430019C672817A0822114381726846FC
:10EE200086708248B1B20CAA083001F097FA002827
:10EE3000EBD10B981C2148437D4901E03DE00FE0F8
:10EE40003439401818231C220CA901F041FBA87A80
:10EE50007849800010390A5869460CA89047B2E0FA
:10EE60000B980C2148430119887AFD2210408872C2
:10EE7000010708D5C0090FD000216846FFF79EFDA5
:10EE80000AE064E09CE068468078FF2804D001F046
:10EE900005FAFF20694688700B980C214843001939
:10EEA000817A490703D5697A0127B943697210212C
:10EEB000817212216846017185E0687A0C21400850
:10EEC000400068720B986B464843011984468A7A61
:10EED000FB2002408A7214201871B07901270028A3
:10EEE00001D00E906FE0F07940076CD59878FF283C
:10EEF00069D008231A438A72B27A920709D5182377
:10EF000002465A434A4BDC3BD218D37D5B085B0078
:10EF1000D375CA7AFF2A56D06246A25C022A11D063
:10EF20001822434E5043DC3E801907221030FEF772
:10EF300027F968468078182148438019C27DFD2151
:10EF40000A40C27501216846FFF738FD3BE0B07901
:10EF50000209012A22D10007000F01281ED10B98B7
:10EF60000C2250430219927A120717D530491839EA
:10EF700040180621001DFEF71CF91620694608718D
:10EF80000B980C2148430119887A6022104388723B
:10EF9000697A012702200143697214E00B980C2260
:10EFA00050430019827A80231A43827215206A46E0
:10EFB0001071A87A8000095868468847002090E7B9
:10EFC00013206946087101A968460E9AFEF720FCD5
:10EFD00068460079122808D10B980C214143091981
:10EFE000897A012901D0FFF7F3FB002F00D1D4E685
:10EFF000687A8007FBD506AA20210F48FFF7D0FBCF
:10F00000002804D0687AFD2108406872C5E6002017
:10F0100069460875069848750C2148430019C07A5E
:10F020006946887505A800F0E9FBB6E6542800207B
:10F03000302F00207C0E0200FFFF0000002806D0C9
:10F04000FF21017041708170C1700020704701483C
:10F05000704700000E800000F0B585B0050031D08B
:10F06000264800240460447284722046FFF7B0FBF7
:10F07000224878380466446600268466304601F0EB
:10F080000DF9761C072EF9D35C2168468180072193
:10F09000C1801B4800901B49684601F06DFA0028AA
:10F0A0000ED1184E0120083E3070287800280BD071
:10F0B00069468888C988484381B2124801F078F9C6
:10F0C00005B0F0BD1048FBE70C4F0025DC3FA9B2AE
:10F0D00002AA0C4801F042F9002809D1182068431F
:10F0E000C0190023182202A901F0F2F9002801D06A
:10F0F0003470E5E76D1C072DE9D3E1E7302F0020E0
:10F100000DF101005C2800200E800000FFB55E4874
:10F110008FB00068189F1E46002876D05C2F74D8E8
:10F120006846FFF78BFF002803D000221146FEF748
:10F1300063FB002468460470047125460597069613
:10F14000A9B20DAA514801F009F9002806D10822F8
:10F150000DA90F98FEF738F8002818D06D1C072D60
:10F16000EED368468578FF2D4FD01098032811D034
:10F1700045481821DC38301AFDF7D8FF0127072849
:10F180001ED204A80290119800280BD011E0684606
:10F190008570E6E75C2F03D04020694608716DE07A
:10F1A0002020FAE738463949A8400839496808421A
:10F1B00062D0284601F000FE2020694608714BE02D
:10F1C00031481C213438301AFDF7B0FF00281DD01B
:10F1D0002D480C211838301AFDF7A8FF01002C48E3
:10F1E0002DD040216A4611712A498E4246D00246EE
:10F1F000A900EC3A5158B1423ED104A90291C07A1B
:10F20000854229D16846447026E035E004A8029082
:10F2100020216846017144701B480A940C300B9001
:10F220004038079068468078182148431849D039FB
:10F230004018089007A80690182005900CE030228E
:10F2400069460A714C70CF70807A800704D41048E8
:10F250000C3804604460846010986946022808797C
:10F2600010D0022108436946087104A8029001A940
:10F270006846119AFEF7CCFA13B0F0BD69460879DA
:10F280000321EFE73843EFE7302F00205C28002010
:10F29000242F0020580E020070B5064611480D4676
:10F2A000007800280ED01049002E0ED0002D0CD072
:10F2B0002868002809D00D4C2168002907D00A4889
:10F2C0000A3870BD0848801F70BD084670BD2060B8
:10F2D0000522691D201DFDF753FF2879A07200202B
:10F2E000307070BD542800200E800000302F0020A8
:10F2F000F8B504462B4801782B4800290ED0002C85
:10F300000AD02178002909D1284E3168002905D07A
:10F310006178002910D102E02348801DF8BD234DFB
:10F320000C3DA97A012907D08907F7D5A17828468D
:10F33000C07AFF2905D102E01B480830F8BDFF283C
:10F3400007D01A4AA070343A11461231288981DF59
:10F35000F8BD29466846FFF789FB0028F8D1627896
:10F360000C2369465A4309785219D172A170217849
:10F3700059438919497AC90710D061780C22514341
:10F3800049198A7A20231A438A7221780C22514320
:10F3900089194A7A02231A434A72F8BD204600F0BE
:10F3A0002DFAF8BD5428002008800000302F0020DE
:10F3B000F0B5284A1378284A002B2CD0931D00283A
:10F3C0000BD0002909D00C68002C06D08C68002CCA
:10F3D00003D0007800281ED101E01846F0BD1F4878
:10F3E0000068002817D000231C4C1A4618460C3C15
:10F3F000E57A854202D1A57AAD0723D40D7B9542EB
:10F400000FD9182506466E43144DDC3D7519EE7D67
:10F41000F60702D005E01046F0BD97008E68521C3A
:10F42000F5510D799D420DD9182506466E430B4DB9
:10F43000DC3D7519EE7DB60704D49F0010350E68CB
:10F440005B1CF551401C0728D2D30B710A730020B6
:10F45000F0BD00005428002008800000302F00205C
:10F4600010B50E4900238A78CC78A24212D0521CE3
:10F47000D2B28A70022A00D18B708A78074B920030
:10F480001C339A580260486910180002000A48614B
:10F49000012010BD0360002010BD00009028002056
:10F4A000F7B5144C0025A76823691EE024215943B1
:10F4B000C9194E68864202D9301A486017E0801B8D
:10F4C000751900264E600E750E699C460B6AB6468D
:10F4D000002E0AD0019E76193602360A8E607646D4
:10F4E000CE6016680E6261461160591CDED1236140
:10F4F000FEBD00009028002010B5002803D0112880
:10F5000002D0FEF7D5F910BD024808224168114328
:10F51000416010BD6C28002010B51C4C217820469D
:10F520004068012906D0022929D0032912D10007F9
:10F5300017D513E0000711D4154814220178514360
:10F540000818C188A28B891A0904090CC18002D04D
:10F5500001F0BCFA10BDFFF7B3F810BD00F098FB46
:10F5600010BD6069401C606100F0FAF9002803D00A
:10F57000207801F0B7F910BDFFF73EF810BD6078B4
:10F58000044980000858804710BD00006C28002006
:10F59000C42F0020A80E020010B528DFFFF7ACFF33
:10F5A00010BD10B529DFFFF7A7FF10BD10B5044649
:10F5B000C0B2FEF745FB204610BD0020704700207A
:10F5C0007047002070470000F8B544780C20444391
:10F5D0000B480021034605590C33E3180A46002D59
:10F5E00007D09E7AF70904D0760602D42118AAB271
:10F5F000091D18890323A9DF002800D00148F8BDA0
:10F60000182F00204180000070B50D460146687833
:10F610000C22084C50430019342300F059FF0028F5
:10F6200006D169780C2251436258521C00D16250B5
:10F6300070BD0000182F0020FEB50D4607460620BD
:10F640006946088168780C2148431F4E02AA801938
:10F65000008903236946AADF002833D168780C218A
:10F660004843741A001969460A89001DFDF7ACFD6C
:10F670000028687806D00C214843215800290DD075
:10F68000124E0CE00C2148438119897A890719D45C
:10F690000019002101604160816013E00C4E694651
:10F6A0000A89225068780C21484300196946001DD8
:10F6B000FDF766FD68780C214843011934230C22BC
:10F6C0003846B0470020FEBD242F00200907020065
:10F6D0002D06020010B5FFF777FF10BD10B5FFF73C
:10F6E00093FF10BD10B5FFF7A7FF10BD10B500F0D8
:10F6F000ABFB002801D0002000E0012000F08AFDD3
:10F7000010BD000070B51B4C207900072ED41A489C
:10F710001422017851430D182E6900F0ADFE014608
:10F72000E8882A89761E80188019FDF7FFFC216978
:10F730000025002909D06169814206D1E560606831
:10F7400001210843606000200AE000F009F9002868
:10F7500002D00220E56003E02069002803D00320E6
:10F7600001F0FCF970BDFEF747FF70BD01F0EAF94A
:10F7700070BD00006C280020C42F002010B5044686
:10F780000878012806D0022803D149880CA0FDF78B
:10F7900097FE10BD0F48FFF7ABFD002803D00022F5
:10F7A0001146FEF729F82046FEF7E2FB002803D0B9
:10F7B00000221146FEF720F807A0FDF781FE10BDDC
:10F7C00048656172742052617465203D2025640D86
:10F7D0000A000000082800204865617274207261E8
:10F7E0007465207365727669636520646973636FFD
:10F7F0007665726564200D0A0000000070B504464D
:10F8000000780C21124E4843811960780C22504335
:10F81000B51A40190089091D7EDF010016D1207834
:10F820000C2250438019427A01231A4342726078B5
:10F830000C2250434219907A042318439072627844
:10F840000C235A435219DF2318409072084670BDAA
:10F85000302F0020F8B51E4C2078002837D02069C2
:10F86000002807D00026E068002805D00025002EDB
:10F8700004D013E00126F6E70125F8E7684651DFDA
:10F88000052806D0002806D000221146FDF7B4FF57
:10F8900004E0012602E0216900988847002D12D17A
:10F8A000608869460880A06861DF052806D00028C6
:10F8B00006D000221146FDF79FFF04E0012502E07B
:10F8C000E168A0688847002ED8D0002DCFD0F8BDC1
:10F8D000B828002030B50989002A05D0D088491CF5
:10F8E000814212D1002030BD0246603214782E25AC
:10F8F0006C432418A48DA142F4D0491C19801178BE
:10F900002E2251430818808D02E01980D088401EB5
:10F910005880012030BD00001048018CC9B2012977
:10F9200017D1818C090714D1018D09060A0F03D163
:10F93000828D1206120F0ED0090F012903D1828D7C
:10F940001206120F07D0032903D1808D0006000F85
:10F9500001D000207047012070470000C00F00F068
:10F9600070B50E481422017851430C18256900F037
:10F9700083FD0146E08822896D1E80184019FDF73D
:10F98000D5FB07494A69824206D3824202D10869FF
:10F99000002801D0002070BD012070BDC42F0020C0
:10F9A0006C280020800701D000207047012070479C
:10F9B00010B50448017AC90702D00078FEF764FC4C
:10F9C00010BD00000C280020F8B523480169009103
:10F9D000457833E02048E900C0680E1834782AE002
:10F9E000182060437168641C0818B178E4B2A14221
:10F9F00000D100240178022902D003291BD113E091
:10FA0000154A40682421926841438F18397D0029A6
:10FA100011D001F009F9002038750CE02427784353
:10FA2000C0180275006A03E00B4900228B68086960
:10FA3000471CF3D108617078A042D1D128466D1ED1
:10FA4000EDB20028C6D1044801690098814201D076
:10FA50000120F8BD0020F8BD90280020F8B504462C
:10FA6000384800270169009146785CE03548F1008C
:10FA7000C2688D1851E0601C07D0324A2420926879
:10FA8000604321468018046A24E028781821414305
:10FA90006A68401CC0B252182870A978884200D108
:10FAA0002F70284B516824209B684843C018137856
:10FAB000012B34D1037D002B31D193688360D3684F
:10FAC000C360136903615269C2611E4A5279002AF8
:10FAD00000D087601B4B82685B6996469C46D31AB0
:10FAE0001A02194B120A9A4202D2C368D21808E0CD
:10FAF000724663469A1A1202C368120A934202D9E6
:10FB00009A1A426000E0476087600122C760027570
:10FB1000921E0262084601F055F8601CABD12878AD
:10FB200069788842A7D13046761EF6B200289DD16A
:10FB3000044801690098814201D00120F8BD0020ED
:10FB4000F8BD000090280020FFFF7F0000248AB04D
:10FB50003D4B0322042120460094FDF7DFFE0028E0
:10FB600003D000221146FDF747FE384A38490320EA
:10FB7000FEF766FB002803D000221146FDF73CFE8D
:10FB800069460020FEF798FA002803D000221146AB
:10FB9000FDF732FE68460078022853D000216846FF
:10FBA0002C4A017107CA06AB07C3684684842A48F9
:10FBB00002900120039029480490FF200130059015
:10FBC00009A800900323264A02A906A8FDF76EFFA4
:10FBD000002803D000221146FDF70EFE21A0FDF7FC
:10FBE0006FFCFEF735FA68460079FEF7D3FFFEF7A3
:10FBF00017F9002803D000221146FDF7FDFD21482A
:10FC0000009069462048FEF7D9F9002803D0002269
:10FC10001146FDF7F1FD1D4800901B4869460C3068
:10FC2000FEF788F8002803D000221146FDF7E4FD16
:10FC300000F0F2FD48DF0028FCD000221146FDF75D
:10FC4000DBFDF7E70121AAE7142A0020A1E101006A
:10FC5000CD0C00004C0E02000428002014290020C6
:10FC6000A10D0200486561727420726174652063A1
:10FC70006F6C6C6563746F72206578616D706C6514
:10FC80000D0A00007DF70100502C00205DDC010012
:10FC900010B504480822416891434160007800F0A3
:10FCA00021FE10BD6C280020002070470020704706
:10FCB000002070478207D30EFF229A408907090E61
:10FCC00010B5994000280BDA03071B0F083B9C086E
:10FCD0000C4BA400E318DC6994430C43DC6107E09F
:10FCE0008408094BA400E418236893430B43236062
:10FCF000C106C90E01208840044908600449086013
:10FD000010BD000000ED00E000E400E080E200E053
:10FD100000E100E0F3B581B00F46019800F0F2FA7F
:10FD2000012400281E4E019817D0FEF7BFFB801952
:10FD3000403000798009032802D0012806D007E06E
:10FD40001848006901998C40204201D1022100E04D
:10FD50000321019800F000F9FEBD00F0DFFA002851
:10FD6000FAD00198FEF7A2FB05468100C81D0E4A95
:10FD7000F93089180A6980B222430A610B49401898
:10FD800000210160002FE7D00198FEF78FFB800073
:10FD900030580028E0D00648AC404460FEBD00006A
:10FDA000742F0020000500500065004000600040F6
:10FDB00000630040F8B5204F0D460446381928214D
:10FDC00041560026C8171346401C01D0082630E0D3
:10FDD000EA7819462046FEF745FB411C28D0174B10
:10FDE000AA78A100C918002A03D00A6802239A43FE
:10FDF00001E06A7892000A60E978002910D0820058
:10FE00000F482978101802690E4B1A400261E20669
:10FE1000D20C8907890B0A4301690A43026108E091
:10FE2000381840302A78017992011143017100E0BD
:10FE300004263046F8BD0000742F00200007005053
:10FE400000650040FFE0FCFF03490969C140C807A5
:10FE5000C00F00D0012070470005005070B5124D52
:10FE6000A87B002801D0082070BD0F490020403930
:10FE7000421E0B182033401CC0B21A722028F8D33F
:10FE800000242046FEF7E0FA641CE4B20A2CF8D302
:10FE900001210620FFF70EFF01200449C00748603A
:10FEA0000120A873002070BDB42F00200063004023
:10FEB0000248807B002800D001207047B42F00202A
:10FEC000F8B504461F480D46001920300821415658
:10FED0000026491C01D008262FE0A97800291DD052
:10FEE000012200212046FEF7BDFA411C14D08300F8
:10FEF00015482A78181869780369144F3B40036144
:10FF00000369E706FF0C9207920BC907C90A3B4336
:10FF10000A431343036104E004260EE00121C943B0
:10FF200001720B4A0320A100891808606A78012039
:10FF3000A0400849012A02D0C8603046F8BD886058
:10FF4000FBE70000742F002000650040FFE0ECFF9D
:10FF50000007005000050050820006481018026893
:10FF600003231B049A430260026809040A430260E7
:10FF7000704700000007005003494018006801283E
:10FF800000D0002070470000006000407FB5041DD5
:10FF9000008819284CD01B280BD01D2808D1208898
:10FFA000A11C75DF002803D000221146FDF724FCB8
:10FFB0007FBD20460B300290A07A6946C008888138
:10FFC0006A4602A90220FDF7D5FB002806D06A4642
:10FFD00002A90320FDF7CEFB0028E9D169468988F4
:10FFE0000020164D4B0820E04200009E511C715C21
:10FFF000B25C09020A43AA4216D187DF0020FEF74D
:020000040002F8
:1000000011F9002803D000221146FDF7F5FB0C483A
:10001000FD2201781140017001460A4AA01C88DFC8
:100020000949002088707FBD401C8342DCD87FBD19
:10003000A0780228FBD100F0EFFB7FBD0D18000077
:10004000682C0020440E020000280020F0B507466E
:100050000446603738782E225043061920464A88D5
:10006000403089B00090002A3BD1083105913579A4
:1000700008782818032800D9032030710020079041
:1000800014E007980A21484305990A2241180C20D8
:10009000684380190890801D891CFDF771F8089845
:1000A000002101820798401C6D1C07903079A842FE
:1000B000E7D80C204543A819418838782E225043B0
:1000C0000019808D81420CD23079032809D0009923
:1000D000C8772046FEF7F2F901000FD000207870B3
:1000E00009E000980025C57701A92046FEF724FC09
:1000F000010005D07D702046FEF7C2FD09B0F0BDBD
:10010000684600790028F9D001212046FEF782FDDB
:10011000204600F051F8F1E7FEB50446603001904A
:100120000D4600782E214843224603194032D07FE5
:100130000C267043C018801D844629466888083103
:10014000002812D11B4E0D880DE0062747437F186B
:10015000BF88B74206D106256843401841886046EB
:10016000418102E0401C8542EFD8002568460570B9
:10017000D07F1979401C884203D10120694608705C
:1001800010E0D07769462046FEF7D6FB010005D087
:10019000019845702046FEF773FDFEBD6846007865
:1001A0000028FAD001212046FEF734FD204600F059
:1001B00003F8FEBD0229000070B514490446C86862
:1001C0002546401CC86089680026603588421BD2DD
:1001D00020464030C67729782E22491CC9B24A43AE
:1001E00029700B4B1219C900C9180B881380498854
:1001F00051801671808B012190DF010003D06E7059
:100200002046FEF73DFD70BD6E7070BD38280020A1
:10021000182D002010B51D4A1D490300FDF760F997
:1002200005040B3120271200487801281FD002282E
:1002300008D1032005E04878002804D0032801D124
:100240000220487010BD134B04201860124B01208F
:1002500018609368D2689A42F3D0FDF743FA10BD54
:100260004878012806D0022804D00328F7D1FDF7EA
:1002700071FA10BD9068D1688142EED1FDF758FA4D
:1002800010BD48780128E8D010BD0000642F002080
:1002900064280020002500400020004070B504467E
:1002A00018200C4960434518284611300621FCF7F8
:1002B00080FF00262E606E60AE60FF21EE60297424
:1002C000E975204600F078FD0249A0001C390E5067
:1002D00070BD0000542E002070B50024074D084E5C
:1002E00005E0382060438019416B8847641CA8688A
:1002F0008442F6D30020686070BD000038280020DA
:10030000282D00200449081828214156042901DB22
:100310000120704700207047742F002004490818FE
:1003200028214156042901D201207047002070473E
:10033000742F002007490979490701D40820704724
:10034000002804D0044949780160002070470E203D
:10035000704700006C280020C42F002030B5124BDD
:100360001B795B0701D4082030BD002805D0002A86
:1003700003D00468002C10D101E00E2030BD0B4BDF
:100380001D68002D09D045681889414369185D89A9
:10039000454358682818884201D8072030BD1460AA
:1003A0000020516030BD00006C28002090300020FB
:1003B000FEB5054625480E460079400701D40820C1
:1003C000FEBD002D03D02868002834D101E00E20A6
:1003D000FEBD1F4C216800292DD06089218948432A
:1003E000616841186868814225D9FFF7DBFA002867
:1003F0000FD06868019029680C2251430F19796861
:100400000091401A39890C46FCF790FE002912D160
:1004100001E01020FEBD21463046FCF787FE002992
:1004200009D1002E07D0788944430198811900989A
:100430000019814201D90720FEBD0020024600902C
:10044000334629460320FEF715F9FEBD6C2800202F
:100450009030002010B507484469601C06D000F0B9
:100460000BF801462046FCF761FE10BD0120000795
:10047000406910BD0010001001200007006980B223
:100480007047000070B500240F4825460470447082
:100490002846FEF7DFF86D1C0A2DF9D30B4D6C8052
:1004A000FFF7D8FF861EFFF7E7FF46430648AE601A
:1004B000CC306C610460048144812C70AC610420F8
:1004C000EC616860002070BDC42F00206C28002003
:1004D000FFB5274881B000791F4616460D464007F4
:1004E00002D4082005B0F0BD002D06D001980028E8
:1004F00003D02868002815D101E00E20F2E71D4C3A
:10050000206800280ED061892089626841438918DB
:100510006A68914206D9002E04D0B04202D3F11984
:10052000814201D90720DDE70198FFF73BFA002857
:100530001BD03846FFF736FA002816D06868FFF758
:1005400031FA002811D068683246C1190198FCF7C9
:1005500017FE009628680C214843245800220221E7
:100560002846019BA0470020BCE71020BAE7000006
:100570006C28002090300020F8B52A4D04462879D8
:100580000E46400701D40820F8BD002C20D0002ED4
:100590001ED0206800281BD0FFF76EFF0146A08800
:1005A000814213D3102811D3E08800280ED0FFF722
:1005B00051FF471EFFF760FF4743E288A088A96804
:1005C00042435218974201D3800703D00720F8BD59
:1005D0000E20F8BD6888012821D003C60C22124BDA
:1005E0005043C218516021681950A0881081E088DA
:1005F0005081FFF741FF0146A088E2885043401E2A
:10060000FCF7AAFD441CFFF737FF0146A8686143C9
:100610000818A8606888401C68800020F8BD042085
:10062000F8BD00006C28002090300020F8B504468A
:1006300020481E46007915460F46400701D4082081
:10064000F8BD002F05D0002C03D02068002815D15C
:1006500001E00E20F8BD1848016800290ED042893B
:10066000018940684A4310186268904206D9002DFB
:1006700004D0A94202D3A819884201D90720F8BDA5
:100680003846FFF78FF9002811D03046FFF78AF976
:1006900000280CD06068FFF785F9002807D02B46AA
:1006A0003A46214601200096FDF7E4FFF8BD1020F0
:1006B000F8BD00006C2800209030002010B51149D2
:1006C00002460878002811D004280FD0022A16D03C
:1006D000032A0BD10A79120711D48A69521C8A6144
:1006E000032A08D0022802D000F0FCF810BD487898
:1006F00000F034FA10BD0D20FDF7DAF810BDFEF75A
:100700000BFF10BD6C280020F8B5044620481E469B
:10071000007915460F46400701D40820F8BD002F88
:1007200005D0002C03D02068002815D101E00E2050
:10073000F8BD1848016800290ED042890189406837
:100740004A4310186268904206D9002D04D0A9428D
:1007500002D3A819884201D90720F8BD3846FFF70F
:1007600021F9002811D03046FFF71CF900280CD0E1
:100770006068FFF717F9002807D02B463A46214654
:1007800004200096FDF776FFF8BD1020F8BD0000AC
:100790006C2800209030002070B50D4B00210B4AD2
:1007A0009B680EE0CC00A518AD788678B54207D1DD
:1007B000145B0588AC4203D1C8008018406870BD46
:1007C000491C9942EED3002070BD0000182D002076
:1007D0003828002070B501240B49600408600B49DB
:1007E00040108860094940398860094D6C602F20AD
:1007F000FCF770FCAC60074D00242F206C61FCF707
:1008000069FC2C7170BD000080E100E040130140E4
:10081000001001409028002030B595B004A8FFF7E3
:1008200089FD002803D000221146FCF7E5FF04985B
:100830002A4D002803D00120E87015B030BD0821F2
:10084000684601710024047305A800900DA8029069
:1008500022486946401DFEF7ABFD002803D0002268
:100860001146FCF7C9FF684601791D48A0225023B4
:10087000002903D16946097B002905D0697801293F
:1008800002D1A97800290AD00178FD25490849003C
:100890002940017002814381446084810BE001782A
:1008A00002244908490021430170028143816946BD
:1008B00041601E2181810A4886DF002803D0002282
:1008C0001146FCF799FF0120FDF7ACFC0028B4D0DD
:1008D00000221146FCF790FFAFE70000002800203F
:1008E000682C002010B50F490028087009D0012895
:1008F00011D0022812D0032802D14869FEF74CFE1D
:1009000010BD00208861C861074840780028F7D0F2
:10091000FDF784FE10BD00F0D9F810BD00F038F8E6
:1009200010BD00006C280020C42F002010B5084620
:100930001146C046C04610BD002803D00249C86019
:10094000002070470E207047B828002070B500299D
:1009500001D08C0701D0072070BD064C0125A16095
:1009600062800549636010DF0028F5D125701620EC
:100970002EDF70BDB82800202D090200002803D00A
:1009800002490861002070470E207047B8280020F7
:10099000F8B5164C142260684008400060601448A6
:1009A000017851430E183769FFF766FD0146384656
:1009B000FCF7BCFB05466061FFF75EFD0146F08871
:1009C0007F1EC019FCF7B2FB02228542606801D18C
:1009D000104300E090436060E1681040084303D09A
:1009E000002000F0BBF8F8BD0220FAE76C280020D8
:1009F000C42F002010B502484069FEF7CDFD10BDA0
:100A00006C28002010B5FFF725FD441EFFF734FDCC
:100A10004443FFF731FD04494A69521E5043CA68F6
:100A20002146FEF7BEFD10BD6C280020F8B5104829
:100A30001422017851430C182569FFF71DFD01466A
:100A4000E088228980184019FCF770FB0F46FFF7F9
:100A500001FD461EFFF710FD4643E0882289F1198B
:100A60008018044A40191269FEF79BFDF8BD00008A
:100A7000C42F00206C28002070B5FFF7FDFC054650
:100A8000FFF7E8FC441EFFF7F7FC60432946FCF73C
:100A90004DFBFEF781FD70BD70B5FFF7EDFC8608DC
:100AA000FFF7EAFC0749496948430446FFF7D2FCCF
:100AB000451EFFF7E1FC684332462146FEF771FD13
:100AC00070BD00006C2800200020704770B51448ED
:100AD0001422017851430C18241DFFF7CDFC6188C6
:100AE000104E884211D2FFF7C7FC61880D1AFFF73C
:100AF000C3FC8208A188E06840182169401949199F
:100B0000FEF74FFDFFF7B8FC07E0A288E068801809
:100B10008A082169FEF745FD6088F06170BD00001C
:100B2000C42F00206C28002010B50548007900076C
:100B300003D4012000F012F810BD00F003F810BD3E
:100B40006C28002010B50448082241689143416098
:100B5000407800F003F810BD6C280020024948706E
:100B600002498000085800476C280020940E0200BB
:100B700010B50446FFF7A2FD022C01D0032C07D1CB
:100B80000448C178002903D00021C170FFF744FE5A
:100B900010BD00000028002010B5054800790007AE
:100BA00002D4FDF729FD10BDFFF7CCFF10BD0000FA
:100BB0006C280020012002490005086070470000F1
:100BC00000E200E0F0B5174F2421BC6841430D1945
:100BD00039694A1C09D024224A4316196B68726885
:100BE000934204D8D21A726029623861F0BD0A4675
:100BF00002E00A46396A9B1B4E1C0BD024264E434A
:100C000037197E689E42F4D324264E4336197768FE
:100C1000FF1A77606B60296224214A431119086228
:100C2000F0BD00009028002070B5194C2269A5681D
:100C30001346114606E0814207D00A462426714336
:100C40004919096A4E1CF6D170BD002EFCD08A42AB
:100C50000CD1242043435819006A2061401C05D15F
:100C60000C4B012098600023636160712420414394
:100C70004819242341685A43006A52191062421CE1
:100C8000E2D024225043401942685118416070BD9F
:100C90009028002000100140F8B51D4C2569681C03
:100CA00035D01C48002640686169401A07023F0A97
:100CB00019E024204543A0682A185068B84214D887
:100CC000A3693F1A8619156A002B09D0D16990696A
:100CD0009847002807D000221146FCF78DFD02E05E
:100CE0009169D0698847681CE3D1A178E078814296
:100CF00006D1401CC0B2E070022801D10020E07093
:100D000003490006800D1C310E50FFF753FFF8BD5C
:100D1000902800200015014010B50E4C2168606835
:100D2000884210D014210C4A484381188B78002B3C
:100D30000AD0105A083197DF002804D12079401CCE
:100D40004007400F606010BD105A8988002295DF6F
:100D5000F2E700002C280020782C002010B50E4C63
:100D600021686068884210D014210C4A48438118D9
:100D70008B78002B0AD0105A083197DF002804D155
:100D80002079401C4007400F606010BD105A8988D0
:100D9000002295DFF2E7000048280020982D00206F
:100DA00010B50178022901D0012904D10022406840
:100DB0001146FCF721FD10BD012181400248426827
:100DC0008A43426070470000542800201249486856
:100DD000C005C00D19D0103840B2002807DA02074C
:100DE000120F083A920892005118C96904E081086C
:100DF0000A4A8900891809688007C00EC1400806A0
:100E0000800F012803D0032803D002207047002060
:100E1000704701207047000000ED00E000E400E0B2
:100E200042788378521C934200D100220378934287
:100E300001D1002070470A60416840781822504371
:100E40000818704706001800000090010B09080AF6
:100E50000100000000509D00FFFFFFFFB1FC0100FA
:100E600039F60100C3F50100E5F60100ADFC010013
:100E700009F60100BFF50100DDF60100A9FC010043
:100E8000C9F50100BBF50100D5F601000001000025
:100E900003000000790A0200990A0200F509020025
:100EA0002D0A0200050A0200290B020049E8010090
:100EB000F5E70100990B020005F70100DC0E0200C6
:100EC00000280020CC000000FAD40100A80F020086
:100ED000CC280020D40F00000AD501000002000039
:100EE0000000000000000000000000000000000002
:100EF00000000000000000000000000000000000F2
:100F0000000000000024F4000000000000000000C9
:100F100000000000000000000000000000000000D1
:100F200000000000000000000000000000000000C1
:100F300000000000000000000000000000000000B1
:100F400001000000000000000000000000000000A0
:100F50000000000000000000000000000000000091
:100F60000000000000000000000000000000000081
:100F70000000000000000000000000000000000071
:100F80000000000000000000000000000000000061
:100F90000000000000000000000000000000000051
:080FA000000000000000000049
:040000050001D0C165
:00000001FF
