:020000040001F9
:10D00000904F0020F5D001000FD1010011D1010097
:10D010000000000000000000000000000000000010
:10D0200000000000000000000000000013D101001B
:10D03000000000000000000015D1010017D1010020
:10D0400019D1010019D10100C9D5010019D1010080
:10D0500019D1010000000000F5D2010019D1010032
:10D0600019D1010019D1010019D1010019D1010014
:10D0700019D1010019D1010019D1010019D1010004
:10D0800019D10100CDD4010019D1010019D101003D
:10D09000EDD4010019D1010041D5010019D10100E1
:10D0A00019D1010019D101000000000000000000AA
:10D0B0000000000000000000000000000000000070
:10D0C0000348854600F0E2F800480047E11A0200F4
:10D0D000904F0020401E00BF00BF00BF00BF00BF38
:10D0E00000BF00BF00BF00BF00BF00BF00BFF1D145
:10D0F000704700000321094802680A43026008489B
:10D1000002680A4302600748804707480047FEE775
:10D11000FEE7FEE7FEE7FEE7FEE70000240500402D
:10D120005405004065D50100C1D0010030B50B4663
:10D13000014600202022012409E00D46D5409D42F1
:10D1400005D31D469540491B254695404019154677
:10D15000521E002DF1DC30BD70B50024254600289C
:10D1600001DA01244042002901DA01254942FFF792
:10D17000DDFFAC4200D04042002C00D0494270BDDF
:10D1800010B5431A934209D28318881803E0401E51
:10D1900001785B1E1970521EF9D210BD03460B4375
:10D1A0009B0703D009E008C9121F08C0042AFAD25D
:10D1B00003E00B78491C0370401C521EF9D210BDCD
:10D1C000D2B201E00270401C491EFBD2704700221F
:10D1D000F6E710B513460A4604461946FFF7F0FF76
:10D1E000204610BD10B5002200E0521C835C8C5C10
:10D1F000A34201D1002BF8D1D8B2E1B2401A10BD40
:10D2000030B504460020034600E05B1C934203D285
:10D21000E05CCD5C401BF8D030BD03460A7802705C
:10D22000491C401C002AF9D118467047F0B51FB4BC
:10D230000646002082B005464024019100901BE084
:10D24000019922460F46304600F042F8049A059BA9
:10D25000801A994110D310461946224600F028F84A
:10D26000361A8F410197224601200021009F00F0CD
:10D270001FF838184D4100902046641E0028DFDC5E
:10D28000019B00982946324607B0F0BD064C0125A7
:10D29000064E05E02046E36807C82B439847103444
:10D2A000B442F7D3FFF710FF6C3E02008C3E020041
:10D2B00010B5202A04DB0146203A9140002010BD21
:10D2C000914020239C1A0346E3401943904010BD2F
:10D2D00010B5202A04DB0846203AD040002110BDBA
:10D2E0000B46D340D0402024A21A9140084319464F
:10D2F00010BD0000F8B50025FF24013401262F469B
:10D300000095204604F066FE002808D034484068A6
:10D31000304204D033480021201835430160241DD9
:10D3200076007F1CA4B2042FEBD3FF207D3004F0E5
:10D3300051FE002807D02C4800210160400705431A
:10D340002A48006900902A4E280713D0012700249C
:10D35000384628420AD02748A200111808690969EE
:10D36000C004C00E8903B258890F90477F00641C27
:10D37000042CEDD3002D30DA00241D4E0821301985
:10D3800040304156491C25D0077ABD06AD0E2846CF
:10D3900001F030FC80003658002E1BD0BF0901215F
:10D3A000A940154AA80080180068009A8003800FE1
:10D3B000114202D0022802D00CE003280AD1032F28
:10D3C00005D102280AD00221284604F0F3FD39468F
:10D3D0002846B047641C062CCFD3F8BD0321F3E7E1
:10D3E00000630040006000407C6100400005005088
:10D3F0006445002000650040000700508307FF22BD
:10D40000DB0E9A408907090E994000280BDA0007C5
:10D41000000F0838830808489B001B18D869904300
:10D420000843D8617047830804489B001B1818689C
:10D43000904308431860704700ED00E000E400E00E
:10D4400010B58EB0FF2368460377E62343770023A9
:10D450008377130CC377130A08A80370427007ACD4
:10D46000801CFFF78DFE11A000F0EEF81248142288
:10D47000A11C01F0A5F808A843790279C178807849
:10D4800003AC0FC408A8427801786846C07F6B4699
:10D4900007C36846837F427F017F084800F0D4F8C5
:10D4A00007A000F0D1F80EB010BD000077616974DC
:10D4B00020313032300D0A00E6FF00008C360200C9
:10D4C000706F737420313032300D0A0010B5064988
:10D4D0000020086048608860C860034940390860DF
:10D4E000486005F0F9FE10BD40110140FEB5002076
:10D4F000C043124D02906869019068462E6903F09E
:10D50000E5FB074604F082F90446002F08D002AA82
:10D510000199009803F0FAFB029804F0C1F906E0C3
:10D52000029804F0BDF9002801D1002C02D0304649
:10D5300001F084FC00206871FEBD0000E828002096
:10D5400010B507484068002807D08047002803D05E
:10D550000022114600F000FC10BD04F095F810BD4B
:10D560001429002010B504F0F3F8002805D00E4966
:10D570000C484860C8130D4988610D48018CC9B238
:10D5800001290ED1818C09070BD1018D0906090FE4
:10D59000042906D1808D0006000F02D10549012023
:10D5A000886010BDDFFF07C000050040006C004030
:10D5B000C00F00F00006004008B50620694608705C
:10D5C0000122FFF73DFF08BD7CB51B4CA0681B4E38
:10D5D0000025002818D0A56019488069C1B21948F3
:10D5E00000F013FC002805D001216A46117001905B
:10D5F000684607E013488168C068401A012803D1D3
:10D600006846057071688847E069002803D0E561C5
:10D61000032004F0B3FE606A00280BD0656208495D
:10D6200080390868086002216A46117001907168AB
:10D63000684688477CBD000000210040A4280020E7
:10D6400000250040444500200FB410B503A9044B49
:10D65000044A029800F038F810BC08BC04B018471F
:10D66000190E0200102900200FB410B504A9074BB1
:10D6700002AA039800F028F8044602A9002000F04E
:10D6800061FA204610BC08BC04B0184745DB010015
:10D6900030B47446641E2578641CAB4200D21D462B
:10D6A000635D5B00E31830BC184702E008C8121F36
:10D6B00008C1002AFAD170477047002001E001C17B
:10D6C000121F002AFBD17047FFB591B00F460546E7
:10D6D0000026F9E0252876D100246D1CFB4A009431
:10D6E000012102942B780846203B984003461342C0
:10D6F00002D004436D1CF5E728782A280ED00221B9
:10D7000028780246303A092A15D8009A0A235A4343
:10D71000303A80180C436D1C0090F1E701CF009067
:10D72000002805DA0120400304430098404200909D
:10D73000022004436D1C28782E2815D104200443B0
:10D740006D1C28782A280AD101CF6D1C02900BE0AD
:10D7500002990A225143303940186D1C02902878F2
:10D76000014630390929F3D928786C2810D006DC15
:10D770004C281AD068280ED06A2817D104E07428E3
:10D7800013D07A2812D110E00120400504430CE0A8
:10D790000121090501E0032109050C436978814253
:10D7A00003D101206D1C000524186D1C28780390FE
:10D7B0006E281FD00DDC632833D005DC00287DD017
:10D7C000582812D1BEE010E0642801D069280CD19D
:10D7D00081E073282FD004DC6F2870D0702804D12A
:10D7E000B2E075286CD078286BD0149A13999047C2
:10D7F000761C68E06002400F022807D003280AD098
:10D80000042838680AD03F1D06605CE001CFF1179C
:10D810000660416057E001CF068054E03F1D06706E
:10D8200051E03878694608740020487404A83F1D08
:10D830000390012003E001CF03900020C043610763
:10D840000FD5002101E00199491C029A01919142F2
:10D8500013DA8142F7DB019A0399895C0029F2D13E
:10D860000BE0002101E00199491C01918142FADBA2
:10D87000019A0399895C0029F5D101990098139ABE
:10D88000401A00902146149B00F046F90199801936
:10D89000461807E0039803990078491C0391149AED
:10D8A000139990470198401E0190401CF2D12146E7
:10D8B000149B139A009800F01FF903E008E04CE075
:10D8C0003EE03FE086196D1C2878002800D001E773
:10D8D000304615B0F0BD0A20002104900591600289
:10D8E000410F022905D001CFC2179446032907D062
:10D8F00009E0FF1DFF08FF0079683868083706E077
:10D9000000B2C2179446042902D140B2C1178C4616
:10D9100000226146944506DA0A46002140429141C0
:10D920008C462D2102E0210504D52B216A46117673
:10D93000012103E0E10701D02021F7E7019150E048
:10D940000A200BE0102009E01020049000210420A0
:10D95000044308200591029003E00820002105916E
:10D9600004906002410F022905D001CF00229446A5
:10D97000032908D008E0FF1DFF08FF007968386818
:10D9800008378C4603E080B2042900D1C0B20021E0
:10D990000191210725D5039970292AD0049A1021D5
:10D9A000059B4A401A4309D16146014306D0302104
:10D9B0006A4611760399517602210191049A082151
:10D9C000059B4A401A430CD16146014301D16107CE
:10D9D00007D530216A461176012101910299491E2D
:10D9E00002910399582909D039A103910FA90F91E8
:10D9F00012E040216A4611760121DEE739A1F4E701
:10DA00006146059B049AFFF711FC039B8C469B5CC7
:10DA10000F9A521E0F92137061460143F0D10F9876
:10DA200007A9081A20300390600704D501200004DC
:10DA30008443029801E0012002900399884201DDAD
:10DA4000401A00E00020411802900198091800983F
:10DA5000401A0090E00306D42146149B139A0098C4
:10DA600000F05AF88619002007E006A9085C149A0D
:10DA7000139990470498761C401C019904908842A1
:10DA8000F3DBE0030CD52146149B139A009800F0B9
:10DA900043F8861904E0149A302013999047761CB5
:10DAA0000299481E02900029F5DC08E00F980F99B2
:10DAB0000078491C0F91149A13999047761C03998A
:10DAC000481E03900029F1DCF1E60000092801005E
:10DAD00030313233343536373839616263646566E4
:10DAE00000000000303132333435363738394142A6
:10DAF0004344454600000000F8B5044600251E4694
:10DB00001746880404D405E039462020B0476D1C30
:10DB1000641EF9D52846F8BDFFB50446002581B03E
:10DB20001E46C80301D5302700E02027880404D50D
:10DB300005E038460399B0476D1C641EF9D52846A8
:10DB400005B0F0BD0A68531C0B60107070470000F0
:10DB500038B50D4C6078022802D00C49012088604D
:10DB600069460B4800F02EF9002802D000F016F8A4
:10DB700038BD0848802181606A46074B1278DA6117
:10DB800002226270416038BDA428002000200040BD
:10DB90005445002000230040002500401CB50649E4
:10DBA0000120C8600549487003206A461070496822
:10DBB000684688471CBD000000200040A4280020C3
:10DBC00004490020487004490122CA604A600349A0
:10DBD00008607047A4280020002000400025004075
:10DBE000FFB581B01E4615460F46182003F01CFFF6
:10DBF00004001CD0019860702770A5700A98E66038
:10DC0000206103F0D7FB6060E1684018A06000204D
:10DC1000084960610868002802D10C6004E00846E9
:10DC200041690029FBD14461002005B0F0BD00200E
:10DC3000C043FAE72028002070B500238D880C68C7
:10DC40000DE0E6187678E15C864206D1E018801C8B
:10DC5000491E10609180002070BD5B185B1C9D42C6
:10DC6000EFD8052070BD10B501220221002000F080
:10DC7000C7FD002801D0072812D107220221012068
:10DC800000F0BEFD002801D0072809D100210A229A
:10DC9000084600F0B5FD002801D0072800D100207B
:10DCA00010BD0000044842680121C9050B4693439A
:10DCB00083600A40C26070470005005070B50024C0
:10DCC000064D06E06968E000085C012104F052F8A6
:10DCD000641C28788442F5D3002070BDD028002031
:10DCE000F8B515460C460646052A01D20720F8BDB0
:10DCF00004F00CF9002803D104F0DEF80028F6D176
:10DD0000114900204E600C7008618D6048610F4D14
:10DD10000DE0E00029688019009181786A46517011
:10DD200000780B4A694604F075F80028DFD12046D8
:10DD3000641EE4B20028ECD10348064A00210C30EE
:10DD400000F09AF8F8BD0000D02800205C3E0200E8
:10DD5000E913020001F30100BFF34F8F03490248AA
:10DD6000C860BFF34F8FFEE70400FA0500ED00E046
:10DD7000F8B5074606480D4604681646097805A01A
:10DD8000FFF762FC324629463846A047F8BD00003E
:10DD9000204500205B444D5D3A204E6F74696679E2
:10DDA000696E67206170706C69636174696F6E2061
:10DDB0006F66206576656E74203078253032580D98
:10DDC0000A0000008268C3689A1A0AD082688388B1
:10DDD0001A4003689A5C0A708168491C81600020BF
:10DDE000704705207047002906D0002A02D0531E34
:10DDF000134203D0092070470E20704701608380D2
:10DE000000218160C160084670478268C3689B1A20
:10DE10008288934208D8C36813400268D154C1680D
:10DE2000491CC160002070470420704738B50C467B
:10DE3000A2680C235A43064B09789D58054A126A7A
:10DE400000920246204608302369A84738BD0000EA
:10DE500080460020AC28002010B5064914230A781B
:10DE60005A435118091DFFF7E1FF042004F0A2FFF7
:10DE700010BD0000B445002070B5114CA568002D00
:10DE800006D0002A06D0002804D00023247809E018
:10DE9000082070BD072070BD24265E43AE5D002EB5
:10DEA00004D05B1CA342F7DB042070BD24240126B0
:10DEB0005C432E5564196170A2610360002070BD3F
:10DEC000E8280020FFB59807002481B01E461546BB
:10DED0000F4600280BD1002E09D004F07FFE224906
:10DEE0000A9888610F70324600208E6008E0072093
:10DEF00005B0F0BD24234343D4549B181C75401C2B
:10DF0000B842F7DB24204743BB19032048700F4673
:10DF10001846CB6019461830002218232E465E435F
:10DF2000D3005B181C705C709D7058603018521CD8
:10DF3000032AF5DB0020C0433861BC70FC7001246B
:10DF40000A482405046003211420FFF757FA084803
:10DF50000460084C0198A06003211120FFF74EFADD
:10DF6000606878610020C3E7E828002080E200E0D4
:10DF700000E100E000150140FEB504461D481746CB
:10DF800082680D46002A0CD001788C4201D2052D02
:10DF900001D20720FEBD214624235943535C012BA7
:10DFA00001D00820FEBD8818407801281DD0002629
:10DFB00005F0D6FAC0000F490190C96840186946BB
:10DFC00005F0F8FA002812D0012101700A494460D6
:10DFD00049680830E2C007490198C96841180098AB
:10DFE000487005F0D5F80020FEBD2E46E0E704207D
:10DFF000FEBD0000E828002000150140F8B5144DD2
:10E000000446A868002809D029788C4201D307204B
:10E01000F8BD24216143405C012801D00820F8BDEF
:10E0200005F09EFAC600E8686946301805F0C2FAA5
:10E0300000280AD0022101704460E8683118009875
:10E04000487005F0A5F80020F8BD0420F8BD0000D8
:10E05000E828002070B506460D4608A0FFF7F4FA40
:10E06000002404E0315D06A0FFF7EEFA641CAC4228
:10E07000F8D302A0FFF7E8FA70BD00000D0A000017
:10E08000307825303258200000B50D4A89B007CAD3
:10E0900005AB07C30020694608840A4801900120A7
:10E0A000029009480390FF200130049008A80090D6
:10E0B0000323064A01A905A800F00AF809B000BD2B
:10E0C000603E02000C2900208C46002035350200FD
:10E0D000FFB5584F83B000260D4604467E707A6027
:10E0E00000292AD0A888296882B25348FFF77BFE0E
:10E0F000002823D1A889A96882B24F481030FFF7C1
:10E1000072FE00281AD160784C4903228000401822
:10E11000026022783046920051180E60484D6178B6
:10E12000E96021786961A1686962454E617940368C
:10E13000002905D00E21F16203E0072007B0F0BDF1
:10E14000F0622379022B17D03E493F4A012B45D07C
:10E1500004232B608860C861F06A40084000F062C8
:10E16000581FA860286101209060106078700C989A
:10E17000008800283FD043E003F0C8FE002803D108
:10E1800003F09AFE0028D9D1304869460068009013
:10E19000A07803F0C3FE0028D0D1401E2861A078EB
:10E1A000A860F06A01210843F0622848284A4068C4
:10E1B0000190E07801A903F02DFE0028BED1E0789F
:10E1C000012103F0D7FDE07803F06CFE002801D0B8
:10E1D000002000E0012004F0D1F8C8E704232B6000
:10E1E0008860C861F16A01200143F162E178296128
:10E1F000A178A960B8E70C9938780880401C38707D
:10E2000000211448C9438160A1218900416012495D
:10E2100004200860114B06991A68FF24240489071A
:10E22000090EA24309040A431A600D490860002040
:10E2300084E70000A4280020444500200007005087
:10E240000025004000210040002000402C3E02003C
:10E25000351402000023004080E200E000E400E00A
:10E2600000E100E010B501460448FFF7CEFD04468A
:10E27000022004F083F8204610BD00005445002021
:10E2800030B5002815D0002913D00E4A1378002B82
:10E2900011D09368022B10D011D20B4CDD002C1939
:10E2A00005882580408860805B1C61600020936049
:10E2B00030BD0E2030BD082030BD062030BD04200A
:10E2C00030BD000078280020F03F002000210448E5
:10E2D000012281600270C160416008467047000001
:10E2E0007828002070B5002817D0002915D0254ABD
:10E2F0001278002A11D004460A88FF348134302A6B
:10E3000016D00BDC102A11D0112A06D1FF219B3127
:10E31000FEF75DFF0020C043A08270BD322A2CD0E2
:10E32000332AFAD1091D03F09FFF70BD8888F3E7F7
:10E330000546091D4888002807D00021284601F01D
:10E3400083FC284603F0E6FF70BD207ECA225043BE
:10E3500040194A8902808A894280C230CA898280F3
:10E36000098AC180284600F04DFC0100ECD0002055
:10E370006076284601F0A0FC70BD091D03F00CFF7B
:10E3800070BD00007828002070B500280ED0164A15
:10E390001378002B0CD09368002B09D00446FF346F
:10E3A0008134637E002B05D0112070BD0E2070BD1E
:10E3B000082070BD0023D3605360054623760B48C8
:10E3C000A1820188298040886880A28A89B2084891
:10E3D000FFF73AF9A08A2A46012190DF0028E8D108
:10E3E00001206076002070BD78280020F03F0020DA
:10E3F000BC37020010B5044601F086FC21460748F0
:10E40000FFF770FF2146064800F058F8204600F05C
:10E410000DF9204603F0E8FD10BD0000702C00202F
:10E420000C2E002070B505000ED0002460004019AD
:10E4300041882888012200F081FB641C042CF5DB54
:10E4400000F002FE002070BD0E2070BD08B500284F
:10E450001FD000291DD001236A4693701F23DB4380
:10E4600013800D4A10600968416259110180002132
:10E470000A464B001B18491C5A800829F9DB07A2E1
:10E480000A490BA0FFF7E0F80B496846FFF7F8FED2
:10E4900008BD0E2008BD000088280020626C655F62
:10E4A0006872735F635F696E69740000EB38020025
:10E4B0005B25735D3A257300CDF0010038B50C463D
:10E4C000002823D0002C21D0218810291FD03729E3
:10E4D00022D038291AD10546A289134913A0FFF783
:10E4E000B3F8A089698A884210D102206946087071
:10E4F000A07C611CC00700280CD0C87C897C00026D
:10E500000843694648806A6A2846904738BDA18812
:10E51000018038BDE07CF4E7034907A03631FFF7FE
:10E5200093F804F05BFF38BDC43802005B25735DCF
:10E530003A25640D0A0000005B25735D3A424C45A4
:10E540005F47415454435F4556545F5752495445C1
:10E550005F5253500D0A000008B5002348221549A8
:10E56000082004F05BFC002803D000221146FFF7CE
:10E57000F3FB00206946009048700220087068464E
:10E5800060DF002803D000221146FFF7E5FB0A48B0
:10E5900004F03AFC002803D000221146FFF7DCFB10
:10E5A000064804F053FC002803D000221146FFF770
:10E5B000D3FB08BD28290020F5E30100413002000B
:10E5C00013460A46014610B50248006804F05CFF95
:10E5D00010BD0000882800207CB5134E00250C4695
:10E5E0003060002918D06946002000F0B3F80028F8
:10E5F00019D101A9012000F0ADF8002813D1684617
:10E6000001790020002901D0022004E06946097840
:10E61000002900D00B2020707068002802D1FFF77D
:10E6200022FB054628467CBD6028002010B51C4C06
:10E630000188606810290DD011290AD1401E606040
:10E6400007D1FFF710FB002803D02168002900D074
:10E65000884710BD00281ED100210122084600F085
:10E66000CFF8002801D0072811D10722022101206C
:10E6700000F0C6F8002801D0072808D104220221A2
:10E68000002000F0BDF8002805D0072803D021683D
:10E69000002900D088476068401C606010BD000001
:10E6A0006028002010B5032000F024FA002801D0D3
:10E6B000062800D1002010BDF8B5074600242248E6
:10E6C00002E0641C042C19D2A2008258BA42F8D18C
:10E6D000042C13D21D4E1E4DF069002928D00129AB
:10E6E0000DD002290AD16000201840194578002D6C
:10E6F00004D0F168002901D028468847F8BD6100A0
:10E7000062182946AD5C511800914978002909D05A
:10E7100071680A2251430D4A521CFFF72DFC002854
:10E7200000D1777000988178084810300155DEE7F5
:10E73000FFF764FC05486100611810304919005D5D
:10E740008D78A842D3D0F8BDD036020040280020F2
:10E75000443F002004280CD2074A1269074B80006E
:10E760001B5C01209840904300D0012008700020DD
:10E7700070470020FAE7000000050050D036020084
:10E7800070B51E4C04281BD0072821D00A2816D1AA
:10E79000002000F059F8002803D000221146FFF7AE
:10E7A000DBFAFFF77FFF002803D000221146FFF7B6
:10E7B000D3FA3CDF09E000221146FFF7CDFA70BD25
:10E7C0001321E08876DF0828F9D00028F3D170BD46
:10E7D0006078012501280CD1A078002809D1A57006
:10E7E00087DF002807D0082803D000221146FFF752
:10E7F000B3FAA57070BD04F013FAFAE70C280020F4
:10E8000070B50023042811D2440004190D4D012ACB
:10E8100002D101290DD0002246008019094E80192D
:10E8200000290CD0012906D0022906D0072318465A
:10E8300070BD0D30C2B22A55F9E74270F7E7827019
:10E84000F5E70000443F002010B5054A0146127A62
:10E850000020D20702D0084600F054F810BD000096
:10E860004028002070B50E46204905464E608D6058
:10E870000020CA60A9071ED50024012211462046A7
:10E88000FFF7BEFF641C042C02D20028F5D012E072
:10E89000002810D1720804211548FFF721FA00283A
:10E8A00009D1FFF70BFA002805D11048114A0021C1
:10E8B0001C30FFF7E1FAE90706D00F220E49520596
:10E8C0008A600023CB608A6100280DD107480B4A7B
:10E8D00000211430FFF7D0FA002805D10348084A78
:10E8E00001211830FFF7C8FA70BD00004028002051
:10E8F000E036020031EB010000050050F517020080
:10E90000A5DC0100FEB5784906464F684B690093C7
:10E91000BB00FB1800200122019352050546734CF1
:10E920003300FEF7B5FE180D13133749596C828E6C
:10E93000858E97A1A5A5A5A5A5C3C8CDD4DADA1261
:10E940000B225205A260E5600D70FEBD052080051A
:10E95000A060E56060680F235B055840800209D520
:10E96000A260E560022E02D1E120C0000AE07D2015
:10E97000400107E0E260A560022E01D1C82001E05D
:10E98000FF2091300E706421FEF7D0FB7843002207
:10E99000014646E005208005A060E56060680F2321
:10E9A0005B055840800204D5A260E5601920400153
:10E9B000E8E7E260A560E1E705208005A060E5608A
:10E9C00060680F235B055840800202D5A260E560B5
:10E9D000CDE7E260A560D3E705208005A060E56093
:10E9E00060680F235B055840800202D5A260E56095
:10E9F00001E0E260A5600E707900002211E00520C0
:10EA00008005A060E56060680F235B0558408002C8
:10EA100002D5A260E56001E0E260A5600E70002210
:10EA200039460098FFF7A8FAFEBD05239B0544E090
:10EA30006068012189050A468243A2600840E060BF
:10EA400010E061680120800502468A43A26001400F
:10EA5000E160E4E761680120800502468A43A26024
:10EA60000140E1600199C8E70F214905E1601BE021
:10EA70000F468869FFF7C2FA11218A1B1C4E01D08C
:10EA8000002802D0A660E560FEBD012A0BD9104621
:10EA9000C82148436421FEF749FB796800224143BD
:10EAA000B869FFF769FAE660A560FEBD0F2252055E
:10EAB000A260E56015E007239B05A360E5600EE01A
:10EAC0000D225205A260E5600122920507E00322B3
:10EAD000D205A260E560921001E00F225205E260CB
:10EAE000A5600E70FEBD000040280020000500500B
:10EAF00000008000F0B500210B4C0C4D03273F04B3
:10EB00008A00A25892005619326801238B400340B4
:10EB100000D00323BA431B0413433360491C042968
:10EB2000EED30020F0BD0000D036020000070050F8
:10EB300010B500780221FFF7BFFD10BD70B5144677
:10EB4000054602460E460F48FEF77EFD0E49282276
:10EB500048680E4B4243401C0007000F4860D21823
:10EB6000D68302205084101D5062002010840120A2
:10EB700010771471210A51711580907004F02EFCE9
:10EB8000002070BD7C39020088280020A8410020A8
:10EB90000022D243830004490428CA5002D3081833
:10EBA000403002717047000064450020F0B5002538
:10EBB000ED43002A02D00023042601E004230A26A4
:10EBC0000B4C04E09F00E7597F1C04D05B1CB34250
:10EBD000F8D32846F0BD26185DB2203635729E0067
:10EBE000A151002AF5D1E11840310871F1E7000088
:10EBF0006445002002490918282008567047000083
:10EC000064450020024608B5FF328132117ECA23D6
:10EC100059430918D07D002807D0401EC0B20C23EC
:10EC200058434018C089401C01E0C620405A6B463A
:10EC30001880C031088969464880908A92DF08BDF3
:10EC4000F8B53B481422017851430C18241DA068E4
:10EC50000C2148433649E768CC3140180589418981
:10EC60000091466803F00CFE01463846FEF75EFA56
:10EC7000002940D000200099A2884D436188AE1938
:10EC80008918CD1900222B4900280A6109D003F008
:10EC9000F7FD6188884230D0B54202D1A0880028B3
:10ECA0002BD0A068022828D003F0EAFD0146A088F6
:10ECB000C019FEF73BFA1F4C8808E06003F0E0FD46
:10ECC00001462846FEF732FA00292CD0B5422AD058
:10ECD000ADB2B6B203F0D4FD01463046FEF726FAD7
:10ECE000074603F0CDFD01462846FEF71FFA87428E
:10ECF0000DD1701B15E00120BDE703F0C1FD0146F9
:10ED00003846FEF713FA0B49486103200CE003F084
:10ED1000B7FD064603F0B4FD01462846FEF706FAA5
:10ED2000701A80082061022004F044F8F8BD000049
:10ED3000B4450020AC28002010B507481422017803
:10ED4000514308180079042802D000F059F810BD8A
:10ED5000012004F02FF810BDB445002010B50B4879
:10ED60001422017851430818094AC18811620079B8
:10ED7000012806D0032801D0042801D1FFF760FF45
:10ED800010BD012004F016F810BD0000B4450020AD
:10ED9000AC28002014225043054A0021801801713C
:10EDA000C18001220161C2604161018170470000A0
:10EDB000B4450020F8B5104C069E65780A2D19D090
:10EDC00027787D190A2D00D30A3D14277D432D197C
:10EDD00028716A6103C92961E860EB802E8160783F
:10EDE000401C607005480078002801D1FFF7B6FF8D
:10EDF0000020F8BD0420F8BDB4450020AC28002058
:10EE000010B50D4C1421207848430119091D00202C
:10EE1000FFF70CF82078FFF7BDFF6078401E6070A8
:10EE20002078401CC0B220700A2801D10020207038
:10EE3000002003F0BFFF10BDB4450020F8B5224804
:10EE400001694A1C3DD024225143826889184E68CA
:10EE50001E494C6847690079E11B0D022D0AED1C23
:10EE6000002814D101201A4A00045060184A403A80
:10EE70005060184940000860174908601749012090
:10EE800008602F20FEF726F90F4901200871B542CE
:10EE900000D23546E81900020C49000A40310860EA
:10EEA0000A494968001B091B0902090A0002C91C1A
:10EEB000000A814204D901200649400480390860D3
:10EEC000F8BD03F08BFEF8BDE828002000150140D6
:10EED0004013014080E200E000E100E0001001404A
:10EEE00070B504460DA0FEF7AFFB2246012118487D
:10EEF00000F062F8050005D016A0FEF7A5FB04257A
:10EF0000284670BD1FA02168FEF79EFB20680C22DA
:10EF10005043284A022180188172F1E75B444D5D1D
:10EF20003A205265717565737420746F20616C6C42
:10EF30006F636174696F6E20636F6E6E6563746971
:10EF40006F6E20696E7374616E63650D0A00000058
:10EF5000FFFF00005B444D5D3A204E6F20667265F6
:10EF60006520636F6E6E656374696F6E20696E7382
:10EF700074616E63657320617661696C61626C6552
:10EF80000D0A00005B444D5D3A5B253032585D3A16
:10EF900020436F6E6E656374696F6E20496E737483
:10EFA000616E636520416C6C6F63617465642E0DE6
:10EFB0000A0000001445002070B5094B04469E7AF3
:10EFC000082000250E4207D00648844202D0188946
:10EFD000A04202D10020156070BD052070BD000068
:10EFE00014450020FFFF000010B50446014608A0AC
:10EFF000FEF72AFB0C20444312480121201881729D
:10F00000891E0181FF21C1720721FEF7E0F810BDC2
:10F010005B444D5D3A20496E697469616C697A6937
:10F020006E6720436F6E6E656374696F6E20496E04
:10F030007374616E6365203078253038582E0D0A60
:10F04000000000001445002010B5FEF7B5FA10BD11
:10F0500010B5134C207900071FD46069401C606113
:10F06000E068002801D0042004E002F095FB0028AD
:10F0700003D0022003F0DAFF10BD2069002809D078
:10F080006068C10701D00320F4E7012108436060F4
:10F090000020EFE7FFF750FE10BD03F0BBFF10BDEF
:10F0A000AC28002010B5084841680A0708D48A0730
:10F0B00002D5012211434160022003F0B7FF10BDC9
:10F0C00003F0A8FF10BD0000AC280020F8B50546ED
:10F0D0000078002838D1A8881C49884234D1A87902
:10F0E000012831D11A4E6888316808802A7A194976
:10F0F00019A0FEF7A9FA002418E00C206043134A77
:10F1000040194189521CA218914206D1336861000E
:10F11000828AC9184A80408A488231686000401853
:10F12000428A418819A0FEF78FFA641C287AA0420F
:10F13000E3D83068418A18A0FEF786FA01206946B4
:10F1400008703068426A9047F8BD0000E0FF000098
:10F1500088280020D33802005B25735D3A705F6514
:10F1600076742D3E706172616D732E646973636F86
:10F1700076657265645F64622E636861725F636F57
:10F18000756E74203D2025640D0A00002025642C36
:10F190002025640D0A0000005B4852535F435D3A2E
:10F1A00020486561727420526174652053657276DF
:10F1B00069636520646973636F7665726564206155
:10F1C0007420706565722E203D2025640D0A0000B4
:10F1D00010B502F0DDFB002010BD10B502F0D8FB29
:10F1E000002010BD10B5084A002907D0002808D01B
:10F1F0004A694261084602F0CBFB10BD0020106056
:10F20000F9E748691060F5E720280020F7B582B0DB
:10F21000044603F061F90C214C432518154EAC68E7
:10F2200030780028FDD0002030700127A86012E05F
:10F23000009400982469C068002803D002F0A8FB5D
:10F2400000280ED0009802F0A3FB002809D00498F3
:10F25000401E80B20490002C07D004980028E7D10B
:10F26000AC603770002005B0F0BD28880399484095
:10F270002880F6E73C280020F3B50546FF35064612
:10F280008135287ECA2148438719EC7D0C206043D4
:10F29000C1193A79891D601C83B0904227D101AB16
:10F2A0000022304602F030FA002823D011E0401E40
:10F2B000A04201D1002004E020460C225043C01996
:10F2C00012300246009001AB304602F01DFA0028D1
:10F2D00007D0049800210170A88A01A993DF05B026
:10F2E000F0BDE87D0099401C641CE875E4B23879F3
:10F2F000A042DCD80498012101700020EFE7000053
:10F30000F8B500260124154D24E06968F00047187F
:10F310003878214681406A690B46134218D08A43E7
:10F320006A6102F0BFFD3A7821462B69914019408D
:10F330000346934099420BD17978012901D00121EC
:10F3400000E000217B684140002B01D01046984727
:10F35000761CF6B228788642D7D3F8BDD028002094
:10F36000FEB504460F4636A0FEF76EF9A1786A4650
:10F370003C4803F0F7F905005CD162780C203A496B
:10F3800050434018807A40062BD4022F29D0A17810
:10F39000012F2CD03548FEF757F9354EA0781821AB
:10F3A000484331490023D039411818226846B047F4
:10F3B000050021D0022F3BD020780C2148432A4958
:10F3C0000C314018807A2949800078390A58214642
:10F3D00068469047050031D0014626A0FEF734F973
:10F3E00028E0A17831A0FEF72FF9404ED6E740A0E3
:10F3F000FEF72AF94D4ED1E7022F1FD061780C207D
:10F4000041431948BF220818817A1823114081729C
:10F4100060781C2148431449283941181C22684649
:10F42000B0470200C8D0A17841A0FEF70DF9C3E7AC
:10F43000002D03D029464EA0FEF706F9FEBD0000C0
:10F440005B444D5D3A202D2D3E20646576696365F1
:10F450005F636F6E746578745F73746F72650D0AA5
:10F46000000000009C28002014450020403A0200C3
:10F47000992F02005B444D5D3A204661696C6564DA
:10F4800020746F2073746F72652073657276696380
:10F490006520636F6E746578742C20726561736F7C
:10F4A0006E20253038580D0A000000005B444D5D89
:10F4B0003A5B444920253032585D3A5B4349202568
:10F4C0003032585D3A202D3E205570646174696E6B
:10F4D0006720626F6E64696E6720696E666F726D19
:10F4E0006174696F6E2E0D0A00000000112B02007E
:10F4F0005B444D5D3A5B444920253032585D3A5BB0
:10F50000434920253032585D3A202D3E2053746FF8
:10F5100072696E6720626F6E64696E6720696E66DD
:10F520006F726D6174696F6E2E0D0A00352A0200CC
:10F530005B444D5D3A5B3078253032585D3A466128
:10F54000696C656420746F2073746F726520626FDC
:10F550006E6420696E666F726D6174696F6E2C20C7
:10F56000726561736F6E203078253038580D0A004F
:10F570005B444D5D3A204661696C656420746F2080
:10F5800073746F72652064657669636520636F6E5E
:10F59000746578742C20726561736F6E2025303825
:10F5A000580D0A00F3B51E4F1E4E83B000241820DC
:10F5B000604385192A7C21461BA0FEF745F8287D6B
:10F5C000AA7D697D6B4607C3EB7CAA7C697C20A081
:10F5D000FEF73AF8E87DFF2805D0641C072CE6D337
:10F5E000384605B0F0BD0498007802280AD01820EB
:10F5F00060438019FD21C175103007220499FDF781
:10F60000BFFD04E0182060438019FE21C1750398F6
:10F610000027047021461EA0FEF716F8E0E7000060
:10F6200043800000444400205B444D5D3A5B444904
:10F63000203078253032585D3A204465766963651C
:10F640002074797065203078253032582E0D0A00EC
:10F650005B444D5D3A20446576696365204164648E
:10F6600072203078253032582030782530325820BA
:10F670003078253032582030782530325820307894
:10F6800025303258203078253032582E0D0A0000AF
:10F690005B444D5D3A20416C6C6F6361746564201E
:10F6A00064657669636520696E7374616E63652055
:10F6B0003078253032580D0A00000000F3B50646B8
:10F6C0008279417983B000796B4607C30527F378C7
:10F6D000B27871781748FDF7B7FF00251820294642
:10F6E000414315480C18227C294614A0FDF7ACFFB5
:10F6F000207DA27D617D6B4607C3E37CA27C617C9B
:10F7000018A0FDF7A1FF2046103007223146FDF773
:10F7100077FD002805D06D1C072DDFD3384605B0D6
:10F72000F0BD29461FA0FDF78FFF04980027056054
:10F73000F4E70000F8390200444400205B444D5DCA
:10F740003A5B4449203078253032585D3A20446590
:10F750007669636520747970652030782530325879
:10F760002E0D0A005B444D5D3A2044657669636561
:10F77000204164647220307825303258203078255A
:10F7800030325820307825303258203078253032C9
:10F790005820307825303258203078253032582E95
:10F7A0000D0A00005B444D5D3A20466F756E642083
:10F7B00064657669636520617420696E7374616E37
:10F7C0006365203078253032580D0A00FEB50646B4
:10F7D000087814460D46152877D009DC564C1128B8
:10F7E0000DD0122840D013285BD014286BD16FE0C5
:10F7F00021286BD022286AD0232864D191E04FA021
:10F80000FDF722FF68686F468179037AC2790EC7D7
:10F8100043790279C1785148FDF716FF0720FFF7B9
:10F8200013F8002803D000221146FEF795FA686805
:10F83000042205884048E58031460C30FDF7A0FCE5
:10F8400029464748FEF7A0FD002803D000221146B4
:10F85000FEF782FA2078401C0006000E207001D1CD
:10F8600003F0DEF93FA019E046A0FDF7EDFEFF2111
:10F870009B313B48FDF7ABFC0020FEF7E5FF00287D
:10F8800003D000221146FEF767FA2078012801D143
:10F8900003F0C6F92078401E207043A0FDF7D4FE87
:10F8A00011E0717849A0FDF7CFFE23480C3001F03C
:10F8B000DFF8002803D000221146FEF74DFA7178D8
:10F8C0004DA0FDF7C1FE0020FEBD0FE013E01DE0DE
:10F8D00054A0FDF7B9FE5E48FEF7A4FD002803D052
:10F8E00000221146FEF738FA5AA0D7E764A0FDF7C8
:10F8F000ABFE6CA0D2E774A0FDF7A6FE200003D0FB
:10F9000000221146FEF728FA78A0C7E782A0FDF78B
:10F910009BFE200003D000221146FEF71DFA89A0AD
:10F92000BCE793A0FDF790FE200003D00022114613
:10F93000FEF712FA99A0B1E70C2800205B41505065
:10F940004C5D3A203E3E20444D5F4556545F434F48
:10F950004E4E454354494F4E0D0A0000FC350200FF
:10F96000702C00205B4150504C5D3A203C3C2044C0
:10F970004D5F4556545F434F4E4E454354494F4E9D
:10F980000D0A00005B4150504C5D3A203E3E204441
:10F990004D5F4556545F444953434F4E4E45435483
:10F9A000494F4E0D0A0000005B4150504C5D3A201B
:10F9B0003C3C20444D5F4556545F444953434F4EB1
:10F9C0004E454354494F4E0D0A0000005B415050D4
:10F9D0004C5D3A5B3078253032585D203E3E204405
:10F9E0004D5F4556545F53454355524954595F53F3
:10F9F000455455500D0A00005B4150504C5D3A5B38
:10FA00003078253032585D203C3C20444D5F4556CF
:10FA1000545F53454355524954595F5345545550CB
:10FA20000D0A00005B4150504C5D3A203E3E2044A0
:10FA30004D5F4556545F53454355524954595F53A2
:10FA4000455455505F434F4D504C4554450D0A00A9
:10FA50000C2E00205B4150504C5D3A203C3C204431
:10FA60004D5F4556545F53454355524954595F5372
:10FA7000455455505F434F4D504C4554450D0A0079
:10FA80005B4150504C5D3A203E3E20444D5F4C4916
:10FA90004E4B5F534543555245445F494E440D0A12
:10FAA000000000005B4150504C5D3A203C3C20443B
:10FAB0004D5F4C494E4B5F534543555245445F495A
:10FAC0004E440D0A000000005B4150504C5D3A204E
:10FAD0003E3E20444D5F4556545F4C494E4B5F536C
:10FAE0004543555245440D0A000000005B4150500B
:10FAF0004C5D3A203C3C20444D5F4556545F4445A4
:10FB0000564943455F434F4E544558545F4C4F410F
:10FB10004445440D0A0000005B4150504C5D3A20C2
:10FB20003E3E20444D5F4556545F4445564943454B
:10FB30005F434F4E544558545F53544F5245440D04
:10FB40000A0000005B4150504C5D3A203C3C204490
:10FB50004D5F4556545F4445564943455F434F4EBC
:10FB6000544558545F53544F5245440D0A00000009
:10FB70005B4150504C5D3A203E3E20444D5F45561F
:10FB8000545F4445564943455F434F4E544558548E
:10FB90005F44454C455445440D0A00005B415050BC
:10FBA0004C5D3A203C3C20444D5F4556545F4445F3
:10FBB000564943455F434F4E544558545F44454C66
:10FBC000455445440D0A00001FB56946087302F00C
:10FBD0005DFE002803D000221146FEF7BDF803A801
:10FBE00000F05AFC002803D000221146FEF7B4F8BA
:10FBF00001A805210130FDF7EAFA11480222694601
:10FC000000900A714879012318431043E32108400A
:10FC10000C30DF21084069464871072088711020A8
:10FC2000C871087A184310430872064800F0BEFEF7
:10FC3000002803D000221146FEF78EF81FBD0000F9
:10FC4000CDF7010011280020F3B50446FF348134BC
:10FC5000217ECA2251430F1881B0384602F0A0FF1E
:10FC6000060023D0124D686802281FD2A18AD42230
:10FC7000104C5043031959800299002907D00021E4
:10FC80002154181DCA223946FDF77AFA01E00221F3
:10FC900021546868D42141430919C031401C0E61C8
:10FCA0006860A968884201D102F010FDFEBD000025
:10FCB0007828002000400020F8B50446FF340D46A7
:10FCC0008134217ECA225143081802F069FF0100E5
:10FCD00015D00B484268022A11D2D4235343094E4F
:10FCE000A78A9C1967800127F7546560C034521CAD
:10FCF000216142608068824201D102F0E7FCF8BDD8
:10FD00007828002000400020F0B50546F74800277D
:10FD1000007895B0002867D0F54E3068002863D091
:10FD200002A800F0ABFB002803D000221146FEF72A
:10FD300013F800201490281D04902A206946888218
:10FD4000FF208872002008720C90E94C28880C3C37
:10FD500010280ED0A8880CAA0221FFF72DF9002840
:10FD600007D10C980C2141430919CA7A69468A7255
:10FD70004872288817287DD038DC102846D01128F2
:10FD800079D0132830D1DBA0FDF75EFCA879C0073D
:10FD9000C00F0090687A4107CB0F8107CA0FC107D7
:10FDA000C90FDFA0FDF750FC00200C99D04B1C229E
:10FDB0004A43343B0B90D21806920C2251430990CF
:10FDC0000A900919C97A182251431A46A83A891883
:10FDD000079108900022A88806AB11467FDF01003A
:10FDE0007ED0D9A0FDF730FC15B0F0BD182878D032
:10FDF0001C2877D05228F7D1E3A0FDF725FCB07A74
:10FE00008100EC48415802A88847EDE70CA8FFF7AD
:10FE100067F80028E8D11120694608730C984872E9
:10FE20000C225043A9880019018102218172072206
:10FE3000A91DFDF7A5F90FA9A81DFFF73FFC002894
:10FE40001CD10C990C22514309190F98C8728A7A57
:10FE500008231A438A726946887281B2A3480DAAA0
:10FE6000083002F07FFC002809D00346D2480F9AE0
:10FE70000C9901E07AE041E0FDF7E6FB12E1182180
:10FE800001911C200C999A4D00904843343D431930
:10FE9000C9480E9AA838FDF7D7FB1C210C980A46D2
:10FEA0004843401918230DA902F016FD002804D07C
:10FEB0000246C2A00C99FDF7C7FB342000900C99B4
:10FEC0008B4A0C204843183A8218BB480C234C3804
:10FED000FDF7BAFBB07AB749800010390A5802E042
:10FEE0003BE0B1E0EBE102A90DA890470028C5D0A6
:10FEF0000246C1A00C99FDF7A7FBD3E0A979CEA0DB
:10FF0000FDF7A2FB0C980C2148430119887AFD22C9
:10FF100010408872010706D5C0090DD0002102A843
:10FF2000FFF71EFA08E06846807AFF2804D002F046
:10FF300095FBFF20694688720C980C2148430019F4
:10FF4000817A490703D5717A0127B943717210216B
:10FF50008172122069460873A4E00C980C21484372
:10FF60000019817A0422114381723DE7A979BBA06F
:10FF7000FDF76AFB707A0C214008400070720C9803
:10FF8000FB2248430019817A012711408172142015
:10FF900069460873A879002801D0149082E00621F0
:10FFA000A81DFEF757F80C981C21484350493439D6
:10FFB00040181C21FEF74EF8E879400772D56846D4
:10FFC000827AFF2A6ED00C980C218446484300198F
:10FFD000817A082319438172A97A890709D51146C4
:10FFE00018235943424BDC3BC918CB7D5B085B00AF
:10FFF000CB75C07AFF2855D06146A4A0FDF724FB3D
:020000040002F8
:100000000C980C214843215C022918D0011968463C
:10001000807A1822364D5043DC3D401910300722BB
:10002000FDF7AEF86846807A182148434019C17D33
:10003000FD221140C17510300721FEF70BF8012198
:1000400002A8FFF78DF92DE0A879020901075A48A7
:10005000090F4C30FDF7F8FAA879010901292BD1D5
:100060000007000F012827D10C980C2148430119E3
:10007000897A090720D51E4918394018001D062124
:10008000FDF7A5F81620694608730C980C21484323
:100090000119887A602210438872707A0127022140
:1000A0000843707203A902A8149AFDF761FE68461E
:1000B000007B122817D018E10C980C214843001936
:1000C000817A802211438172152069460873B07AC3
:1000D00081003848415802A88847002804D0684663
:1000E000827A417AE6E0EFE0E7E000009428002021
:1000F000204500205B444D5D3A203E3E20424C4569
:100100005F4741505F4556545F5345435F504152EE
:10011000414D535F524551554553540D0A0000005F
:100120005B444D5D3A203078253032582C203078B1
:10013000253032582C203078253032582C20307819
:10014000253032580D0A00005B444D5D3A2053655E
:1001500063757269747920706172616D657465721E
:10016000207265706C792072657175657374206694
:1001700061696C65642C20726561736F6E203078E4
:10018000253038582E0D0A005B444D5D3A203E3E26
:1001900020424C455F47415454535F4556545F538A
:1001A00059535F415454525F4D495353494E470D83
:1001B0000A000000E83902009C3D02005B444D5DEE
:1001C0003A5B253032585D3A204661696C6564209F
:1001D000746F206C6F616420426F6E6420696E667C
:1001E0006F726D6174696F6E2C20726561736F6ED2
:1001F00020253038580D0A005B444D5D3A5B2530B0
:1002000032585D3A204661696C656420746F206CD9
:100210006F6164207365727669636520696E666FCD
:10022000726D6174696F6E2C20726561736F6E20E0
:10023000253038580D0A00005B444D5D3A20446972
:1002400073636F6E6E65637420526561736F6E20A9
:100250003078253034580D0A000000005B444D5DB5
:100260003A203E3E20424C455F4741505F45565440
:100270005F415554485F5354415455532C20737477
:100280006174757320253038580D0A005B444D5D4C
:100290003A5B4349203078253032585D3A5B444917
:1002A000203078253032585D3A20426F6E646564A4
:1002B000210D0A0024A0FDF7C7F900206DE632A049
:1002C000FDF7C2F9132045E638A00C99FDF7BCF9FB
:1002D0000C990C2048430019807A012805D03FA0D2
:1002E000FDF7B2F90C98FEF77FFE002F00D17BE5F9
:1002F000707A8007FBD544A0FDF7A6F906AA202155
:100300004748FEF759FE002807D046A0FDF79CF9A4
:10031000707AFD210840707266E500206946087118
:10032000069848710C2148430019C07A69468871C3
:1003300001A801F05BF9694603468A7949793FA033
:10034000FDF782F950E500005B444D5D3A5B43499F
:10035000203078253032585D3A5B4449203078258A
:100360003032585D3A204661696C656420746F20B4
:100370006170706C79207365727669636520636F54
:100380006E746578740D0A005B444D5D3A203E3E04
:1003900020424C455F4741505F4556545F534543AB
:1003A0005F524551554553540D0A00005B444D5D65
:1003B0003A5B4349203078253032585D3A20467206
:1003C0006565696E6720636F6E6E656374696F6ED5
:1003D00020696E7374616E63650D0A005B444D5D48
:1003E0003A5B253032585D3A204672656564206379
:1003F0006F6E6E656374696F6E20696E7374616E83
:1004000063652E0D0A0000005B444D5D3A51756531
:1004100075656420726571756573740D0A0000005E
:10042000FFFF00005B444D5D3A4E6F7468696E6774
:100430002070656E64696E67210D0A005B444D5D36
:100440003A5B4349203078253032585D3A5B444965
:10045000203078253032585D3A20536563757269D3
:100460007479207265717565737420726573756C2B
:1004700074203078253038580D0A0000002806D046
:10048000FF21017041708170C170002070470148E8
:10049000704700000E800000F0B5054687B046A00A
:1004A000FDF7D2F8002D2FD0002148A0FDF7CCF8A1
:1004B000002753483C460760477287722046FEF784
:1004C00093FD4F48783804664466846600242046CD
:1004D00002F0C4F8641C072CF9D35C216846018241
:1004E0000721418247480390474903A802F048FA90
:1004F00004000BD0014645A0FDF7A6F853A0FDF778
:10050000A3F8204607B0F0BD5548FBE73E4801215F
:1005100008380170287800280CD06946088A498A72
:10052000484381B2384802F047F904464DA0FDF730
:100530008BF8E3E73448416859A0FDF785F80026B9
:10054000B1B205AA304802F00DF9040003D002460A
:1005500031465B4816E031465AA0069AFDF774F81A
:1005600018203146414326480023DC380818054648
:10057000182205A902F0B0F9040009D0024650483B
:1005800031464438FDF760F81F4808380770B5E772
:100590002A7C314655A0FDF757F8287DAA7D697D54
:1005A0006B4607C3EB7CAA7C697C5AA0FDF74CF82C
:1005B000761C072EC4D3A1E75B444D5D3A203E3E36
:1005C00020646D5F696E69742E0D0A005B444D5D99
:1005D0003A20496E697469616C697A696E67204175
:1005E00070706C69636174696F6E20496E737461B9
:1005F0006E6365203078253038582E0D0A000000D3
:1006000020450020550702009C2800205B444D5DDA
:100610003A204661696C656420746F207265676971
:100620007374657220776974682073746F72616780
:1006300065206D6F64756C652C20726561736F6EDB
:10064000203078253038582E0D0A00005B444D5D6F
:100650003A203C3C20646D5F696E69742E0D0A007F
:100660000E8000005B444D5D3A20537563636573F3
:100670007366756C6C7920726571756573746564E9
:1006800020636C656172206F662070657273697398
:1006900074656E7420646174612E0D0A00000000A0
:1006A0005B444D5D3A2053746F72616765206861E9
:1006B0006E646C65203078253038582E0D0A0000A5
:1006C000BC3B02005B444D5D3A5B307825303258CC
:1006D0005D3A20426C6F636B2068616E646C6520CC
:1006E0003078253038582E0D0A0000005B444D5DEF
:1006F0003A5B4449203078253032585D3A204465D1
:1007000076696365207479706520307825303258B9
:100710002E0D0A005B444D5D3A20446576696365A1
:10072000204164647220307825303258203078259A
:100730003032582030782530325820307825303209
:100740005820307825303258203078253032582ED5
:100750000D0A0000FFB56E4891B000681A9F1E4652
:1007600000287DD05C2F7BD801A8FFF787FE0028EA
:1007700003D000221146FDF7EFFA00246846047109
:100780000473254607970896A9B209AA614801F0A3
:10079000E9FF002806D1082209A91198FCF730FDCD
:1007A000002819D06D1C072DEED368468079009083
:1007B000FF2855D0129806AD032810D054481821B0
:1007C000DC38301AFCF7B2FC012707281ED204954A
:1007D000139800280BD012E068468571E5E75C2F7E
:1007E00003D04020694608738DE02020FAE7009985
:1007F00038468840474908394968084230D000984F
:1008000002F0A4FE2020694608736BE040481C21DA
:100810003438301AFCF78AFC002825D03C480C21DB
:100820001838301AFCF782FC00283BD069464A7918
:1008300039A00099FCF708FF402069460873414839
:10084000864260D08879324A8100F83A5158B142E4
:1008500057D11146EC310495C97A884242D100E063
:100860004FE0684644713DE06846427936A0009901
:10087000FCF7EAFE20216846049501734471244880
:100880000E940C300F9040380B90684680791821F8
:1008900048431F49DC3940180C900BA808901820D9
:1008A00007901FE06846427933A00099FCF7CCFE20
:1008B0003021684601734471C771154822460C38CF
:1008C000807A80070ED4684681793748FCF7BCFEF1
:1008D000684640790C2148430D4918394018046096
:1008E00044608460129869460228087B0ED0022179
:1008F000084369460873049503A901A8139AFDF7F4
:1009000037FA15B0F0BD087B0321F1E73843F1E772
:10091000204500209C2800205B444D5D3A5B3078E8
:10092000253032585D3A5B3078253032585D3A20B8
:1009300041707020636F6E74657874204576656EC3
:10094000740D0A00C43902005B444D5D3A5B307897
:10095000253032585D3A5B3078253032585D3A2088
:10096000426F6E6420636F6E74657874204576659F
:100970006E740D0A000000005B444D5D3A5B3078F8
:10098000253032585D3A5B3078253032585D3A2058
:100990005365727669636520636F6E746578742041
:1009A0004576656E740D0A002C3B020070B5064654
:1009B00016480C460078002815D01548002E11D096
:1009C000002C0FD0216800290CD012A0FCF73CFEAF
:1009D000164D2868002809D00D4C0A3C14A0FCF7DD
:1009E00033FE204670BD0A48801F70BD16A0FCF77C
:1009F0002BFE206828600522611D281DFCF7C0FB26
:100A00002079A872002030700446E7E7942800207F
:100A10000E8000005B444D5D3A203E3E20646D5FD9
:100A200072656769737465722E0D0A002045002097
:100A30005B444D5D3A203C3C20646D5F72656769A4
:100A4000737465722E0D0A005B444D5D3A2041704F
:100A5000706C69636174696F6E20496E7374616E46
:100A6000636520616C6C6F63617465642E0D0A00B0
:100A7000F8B504463648374E0078002810D0002CD0
:100A800003D0207800280BD102E03248801DF8BD49
:100A9000314F3868002803D06078002815D101E074
:100AA0003046F8BD2C4D0C3DA87A01280DD02BA066
:100AB000FCF7CAFD61780C2048434019827A9207FE
:100AC00041D5A278FF2A06D102E022480830F8BDBD
:100AD000C27AFF2A0BD0C27AA2701C2251431E4A4E
:100AE0000089343A8A181146123181DF2AE0014622
:100AF0006846FEF757FD060025D161780C2268464E
:100B0000514300784919C872A07020785043C01929
:100B1000407AC00713D01AA0FCF796FD60780C212C
:100B200048434019817A20221143817220780C2198
:100B30004843C019417A02221143417203E0204622
:100B400000F054FD0646314613A0FCF77DFDA7E7F3
:100B50009428002008800000204500205B444D5D63
:100B60003A203E3E20646D5F7365637572697479E7
:100B70005F73657475705F7265710D0A0000000027
:100B80005B444D5D3A204D61726B65642070656E0B
:100B900064696E670D0A00005B444D5D3A203C3C81
:100BA00020646D5F73656375726974795F736574D2
:100BB00075705F7265712C203078253038580D0AB9
:100BC00000000000F8B50C462C492D4A0978002990
:100BD0002FD0911D00280BD0002C09D02368002BAA
:100BE00006D0A368002B03D00078002821D101E0B3
:100BF0000846F8BD2348006800281AD022A0FCF758
:100C000023FD00221F4B114610460C3BDD7A854226
:100C100002D19D7AAD0723D4257B8D420FD91825AB
:100C200006466E43174DDC3D7519EE7DF60702D082
:100C300005E01046F8BD8F00A668491CF5512579DE
:100C400095420DD9182506466E430E4DDC3D7519AB
:100C5000EE7DB60704D4103597002668521CF55176
:100C6000401C0728D2D3227121730F48FCF7ECFCFB
:100C70000EA0FCF7E9FC0020F8BD0000942800203D
:100C800008800000204500205B444D5D3A203E3E38
:100C900020646D5F77686974656C6973745F6372F3
:100CA000656174650D0A0000003C02005B444D5D07
:100CB0003A203C3C20646D5F77686974656C6973A9
:100CC000745F6372656174650D0A000010B50E49AA
:100CD00000238A78CC78A24212D0521CD2B28A70F9
:100CE000022A00D18B708A78074B92001C339A58E5
:100CF0000260486910180002000A4861012010BD16
:100D00000360002010BD0000E8280020F7B5144C57
:100D10000025A76823691EE024215943C9194E689C
:100D2000864202D9301A486017E0801B75190026E8
:100D30004E600E750E699C460B6AB646002E0AD0B0
:100D4000019E76193602360A8E607646CE601668A7
:100D50000E6261461160591CDED12361FEBD0000A8
:100D6000E828002010B5002803D0112802D0FDF794
:100D700073F810BD0248082241681143416010BD5C
:100D8000AC28002010B51C4C217820464068012971
:100D900006D0022929D0032912D1000717D513E064
:100DA000000711D415481422017851430818C1884E
:100DB000A28B891A0904090CC18002D002F0EEF856
:100DC00010BDFEF71DF810BD00F032FF10BD6069C8
:100DD000401C606100F0E0FC002803D0207801F0A6
:100DE000E9FF10BDFDF7A8FF10BD60780449800041
:100DF0000858804710BD0000AC280020B4450020F2
:100E0000483E020010B528DFFFF7ACFF10BD10B55B
:100E100029DFFFF7A7FF10BD10B50446C0B2FDF7EC
:100E200021FA204610BD000010B50248FCF70CFC6A
:100E3000002010BD0C3B020010B50248FCF704FC7A
:100E4000002010BDEC3A020010B50248FCF7FCFB94
:100E5000002010BD843A0200F8B50446002637464B
:100E60001CA0FCF7F1FB234A60780C214143154696
:100E700053580C3549198A7A01461FA0FCF7E4FB48
:100E800060780C214843691A0958002910D040198C
:100E9000807AC1090CD040060AD423A0FCF7D4FB09
:100EA00061780C204143281A0E18405A361D87B22B
:100EB00060780C2148434019008903233A463146A3
:100EC000A9DF002804D001461FA0FCF7BDFB2C4879
:100ED000F8BD00005B444D5D3A202D2D3E2067613A
:100EE0007474735F636F6E746578745F6170706C37
:100EF000790D0A00084500205B444D5D3A5B43498B
:100F0000203078253032585D3A2053746174652062
:100F10003078253032582C2053697A652030782576
:100F20003038580D0A0000005B444D5D3A2053658F
:100F30007474696E672073746F72656420636F6E7A
:100F4000746578742E0D0A005B444D5D3A2046614D
:100F5000696C656420746F20736574207379737491
:100F6000656D20617474726962757465732C20728A
:100F70006561736F6E203078253038582E0D0A0069
:100F800041800000F8B50C4607468A78497815A0DC
:100F9000FCF75AFB60780C214843204E0A46801922
:100FA0003423394601F098FC6178050005D00246EB
:100FB0001BA0FCF749FB2846F8BD0C2048433358DA
:100FC00026487A68FCF740FB60780C21484380197A
:100FD000FDF740F860780C2148433158491CEAD1AC
:100FE0003150E8E75B444D5D3A5B4349203078255A
:100FF0003032585D3A5B4449203078253032585DB4
:101000003A202D2D3E2067617474735F636F6E7498
:101010006578745F6C6F61640D0A000008450020FC
:101020005B444D5D3A5B253032585D3A204661693C
:101030006C656420746F206C6F61642053657276F8
:1010400069636520636F6E746578742C20726561C6
:10105000736F6E20253038580D0A0000A43A020044
:10106000FEB50C46074606206946088138A0FCF705
:10107000EBFA60780C2148433D4E02AA80190089A2
:1010800003236946AADF00285FD160780C2148431A
:10109000751A40196946001D0A89FCF7B1F8002845
:1010A0000BD060780C2148432858A17800281BD029
:1010B00030A0FCF7C9FA3C4E1AE0A1783BA0FCF73F
:1010C000C3FA61780C2048438019807A80073CD4A9
:1010D00045A0FCF7B9FA60780C214843401900217B
:1010E00001604160816030E04DA0FCF7ADFA574EE1
:1010F0006846028960780C2148432A50607848434A
:101100004019001D6946FCF73BF860780C21484304
:101110004019FCF79FFF60780C2148432A58A178BA
:101120004BA0FCF791FA60780C2148434119342315
:101130000C223846B047020004D0A1784EA0FCF73C
:1011400083FA02E05CA0FCF77FFA0020FEBD0000FD
:101150005B444D5D3A202D2D3E2067617474735FB2
:10116000636F6E746578745F73746F72650D0A00D7
:10117000144500205B444D5D3A5B30782530325891
:101180005D3A205570646174696E672073746F7284
:101190006564207365727669636520636F6E74653C
:1011A00078740D0A00000000112B02005B444D5DB5
:1011B0003A5B3078253032585D3A204E6F206368B4
:1011C000616E676520696E20474154545320436F18
:1011D0006E7465787420696E666F726D6174696F84
:1011E0006E2E0D0A000000005B444D5D3A5B3078C6
:1011F000253032585D3A20526573657474696E67A4
:1012000020474154545320666F722061637469769D
:101210006520696E7374616E63652E0D0A000000AF
:101220005B444D5D3A5B3078253032585D3A20534F
:10123000746F72696E672073657276696365206387
:101240006F6E746578740D0A00000000352A020084
:101250005B444D5D3A5B3078253032585D3A20472B
:101260004154545320446174612073697A6520307D
:1012700078253038580D0A005B444D5D3A5B307874
:10128000253032585D3A4661696C656420746F2080
:1012900073746F7265207365727669636520636F1E
:1012A0006E746578742C20726561736F6E2030786F
:1012B000253038580D0A00005B444D5D3A205365D7
:1012C000727669636520636F6E74657874207375D8
:1012D000636365737366756C6C792073746F726584
:1012E000642E0D0A0000000010B5044605A0FCF7AE
:1012F000ABF92046FFF7B0FD002802D12046FFF7EA
:1013000093FD10BD5B444D5D3A202D2D3E2067615D
:10131000747473635F636F6E746578745F6170700B
:101320006C790D0A0000000070B505460C4607A058
:10133000FCF78AF921462846FFF724FE002803D14E
:1013400021462846FFF778FD70BD00005B444D5DE7
:101350003A202D2D3E206761747473635F636F6E56
:10136000746578745F6C6F61640D0A0070B5054632
:101370000C4607A0FCF768F921462846FFF770FEE7
:10138000002803D121462846FFF75EFD70BD00000E
:101390005B444D5D3A202D2D3E206761747473636C
:1013A0005F636F6E746578745F73746F72650D0A36
:1013B000000000000148406870470000001501402F
:1013C000024680680860002902D001200B6804E012
:1013D00000207047401CC0B20B601B69002BF9D184
:1013E00092680A607047000070B50646104C0125EF
:1013F000B540E068FCF702FE002805D161690846A7
:10140000284202D0A943616170BD304600F04AFD18
:101410000028206901D0284300E0A84320616069CA
:10142000002228436061A168E068FCF7A5FD70BD5B
:10143000D028002010B500F035FD002801D0002094
:1014400000E0012000F09AFF10BD000070B51B4CB9
:10145000207900072ED41A481422017851430D1820
:101460002E6901F00DFA0146E8882A89761E801857
:101470008019FBF75BFE21690025002909D061690D
:10148000814206D1E5606068012108436060002068
:101490000AE000F081F9002802D00220E56003E0B4
:1014A0002069002803D0032001F0C0FD70BDFDF7C6
:1014B00043FC70BD01F0AEFD70BD0000AC28002003
:1014C000B445002070B5044608780D4601280AD0BE
:1014D000022807D169880FA0FCF7B6F8698817A021
:1014E000FCF7B2F870BD1A48FFF7C2FA002803D023
:1014F00000221146FCF730FC2046FCF793FF002841
:1015000003D000221146FCF727FC12A0FCF79CF840
:1015100070BD00005B4150504C5D3A204852204D58
:101520006561737572656D656E742072656365695A
:10153000766564202564200D0A000000486561720C
:10154000742052617465203D2025640D0A0000005E
:1015500018280020486561727420726174652073D8
:1015600065727669636520646973636F7665726519
:1015700064200D0A00000000054901600549416032
:1015800005498160054901610549C1600020704736
:1015900079150200D1F1010049250200AD250200B4
:1015A000BF25020010B50446142000F03DFA20606B
:1015B000FFF7E2FF002802DA206800F0E9F90648A8
:1015C00060600648A0600648E06006482061064862
:1015D0004460002010BD0000A5150200DBF10100F1
:1015E00069240200052402002428002070B5044666
:1015F00019A0FCF729F820780C214843214E052139
:101600008019001DFCF726FD20780C214843811924
:1016100060780C22091D5043B51A401900897EDFFD
:10162000010016D120780C2250438019427A012300
:101630001A43427260780C2250434219907A042374
:101640001843907262780C235A435219DF231840D2
:101650009072084670BD00005B444D5D3A20496EB3
:101660006974696174696E672061757468656E7408
:1016700069636174696F6E20726571756573740D4D
:101680000A00000020450020F8B51E4C20780028F4
:1016900037D02069002807D00026E068002805D050
:1016A0000025002E04D013E00126F6E70125F8E717
:1016B000684651DF052806D0002806D000221146D2
:1016C000FCF74AFB04E0012602E021690098884704
:1016D000002D12D1608869460880A06861DF052866
:1016E00006D0002806D000221146FCF735FB04E0A6
:1016F000012502E0E168A0688847002ED8D0002DBF
:10170000CFD0F8BD1429002030B50989002A05D0B2
:10171000D088491C814215D1002030BD0246FF32DD
:101720008132147ECA256C432418C0342489A14216
:10173000F2D0491C1980117ECA2251430818C030CA
:10174000008902E01980D088401E5880012030BDF9
:101750001048018CC9B2012917D1818C090714D115
:10176000018D09060A0F03D1828D1206120F0ED0C9
:10177000090F012903D1828D1206120F07D0032908
:1017800003D1808D0006000F01D00020704701209A
:1017900070470000C00F00F070B50E4814220178A9
:1017A00051430C18256901F06BF80146E088228945
:1017B0006D1E80184019FBF7B9FC07494A6982423F
:1017C00006D3824202D10869002801D0002070BDF2
:1017D000012070BDB4450020AC28002001480078ED
:1017E0007047000014290020800701D000207047B6
:1017F0000120704710B50448017AC90702D000786B
:10180000FDF780F810BD000040280020F8B52348FF
:1018100001690091457833E02048E900C0680E185E
:1018200034782AE0182060437168641C0818B17885
:10183000E4B2A14200D100240178022902D0032998
:101840001BD113E0154A40682421926841438F1848
:10185000397D002911D001F0D5FC002038750CE04D
:1018600024277843C0180275006A03E00B49002260
:101870008B680869471CF3D108617078A042D1D108
:1018800028466D1EEDB20028C6D1044801690098B3
:10189000814201D00120F8BD0020F8BDE8280020D9
:1018A000F8B50446384800270169009146785CE0A5
:1018B0003548F100C2688D1851E0601C07D0324AEB
:1018C00024209268604321468018046A24E0287826
:1018D000182141436A68401CC0B252182870A97888
:1018E000884200D12F70284B516824209B684843C0
:1018F000C0181378012B34D1037D002B31D19368AC
:101900008360D368C360136903615269C2611E4A70
:101910005279002A00D087601B4B82685B6996462B
:101920009C46D31A1A02194B120A9A4202D2C36871
:10193000D21808E0724663469A1A1202C368120A65
:10194000934202D99A1A426000E047608760012200
:10195000C7600275921E0262084601F021FC601CFD
:10196000ABD1287869788842A7D13046761EF6B286
:1019700000289DD1044801690098814201D00120CE
:10198000F8BD0020F8BD0000E8280020FFFF7F0020
:10199000F8B5060007D00024FFF720FF050005D0AA
:1019A000684636DF07E00120C043F8BDEFF310843E
:1019B000012080F31088194800780027FF43002891
:1019C0000CD017480121301A090388420FD3002D8B
:1019D0000AD06846007837DF3846F8BD002D03D0BE
:1019E0006846007837DFF7E784F31088F4E74209A8
:1019F0000C4950000B5A0020064603E017187F00E0
:101A0000CE53401C9842F9DB002D03D06846007885
:101A100037DF01E084F310880020F8BD1C28002087
:101A2000442E0020443E0020F8B5060050D000248B
:101A3000FFF7D4FE050002D0684636DF04E0EFF37E
:101A40001084012080F31088224F387800280AD1B2
:101A5000012109032048FBF7BAFB80211F48FBF74F
:101A6000B6FB01203870761E7109491C00221B4B01
:101A7000104646009E5B002E01D000221DE0521C45
:101A80008A421AD1421A9446521C00208EB203E0B8
:101A900017187F00DE53401C8842F9DB60460E4970
:101AA000400146182036002D03D06846007837DF05
:101AB00001E084F310883046F8BD401C8028D8DB54
:101AC000002D03D06846007837DF01E084F31088EA
:101AD0000020F8BD1C280020442E0020443E002099
:101AE00000248AB0414B0322052120460094FCF7D4
:101AF000E9F9002803D000221146FCF72DF93C4AF1
:101B00003C490320FCF7AEFE002803D0002211461A
:101B1000FCF722F969460020FCF75EFD002803D09F
:101B200000221146FCF718F96846007802285AD0BE
:101B30000021314A68460171083207CA06AB07C363
:101B4000684684842D480290012003902C4804901C
:101B5000FF200130059009A800900323294A02A91B
:101B600006A8FCF7B5FA002803D000221146FCF7BE
:101B7000F3F8FCF789FA24A0FBF766FD00F0B2FC4D
:101B8000FCF7EAFC68460079FEF71EF8FCF79EFBBE
:101B9000002803D000221146FCF7DEF8224800900E
:101BA00069462248FCF752FC002803D00022114667
:101BB000FCF7D2F81420FFF737FF104C241FA06069
:101BC000FFF7F0FC002802DAA068FFF7E1FE01F061
:101BD00027F848DF002803D000221146FCF7BCF8A4
:101BE00000F002FDF5E70121A3E70000702A0020C4
:101BF00081E70100CD0C0000E8350200102800202C
:101C000070290020353502004865617274207261C8
:101C1000746520636F6C6C6563746F7220657861A6
:101C20006D706C650D0A0000C51402000C2E0020BA
:101C300010B504480822416891434160007801F0E2
:101C4000B9F810BDAC28002010B5044604A0FBF77D
:101C5000FBFC61780CA0FBF7F7FC002010BD000036
:101C60005B444D5D3A202D2D3E206E6F5F73657293
:101C7000766963655F636F6E746578745F617070B9
:101C80006C790D0A000000005B444D5D3A5B4349EE
:101C9000203078253032585D3A204E6F20536572DF
:101CA0007669636520636F6E746578740D0A000051
:101CB00010B502A0FBF7C8FC002010BD5B444D5DD1
:101CC0003A202D2D3E206E6F5F73657276696365D5
:101CD0005F636F6E746578745F6C6F61640D0A008A
:101CE00010B502A0FBF7B0FC002010BD5B444D5DB9
:101CF0003A202D2D3E206E6F5F73657276696365A5
:101D00005F636F6E746578745F73746F72650D0ACC
:101D1000000000008207D30EFF229A408907090EB7
:101D200010B5994000280BDA03071B0F083B9C08ED
:101D30000C4BA400E318DC6994430C43DC6107E01E
:101D40008408094BA400E418236893430B432360E1
:101D5000C106C90E01208840044908600449086092
:101D600010BD000000ED00E000E400E080E200E0D3
:101D700000E100E0F3B581B00F46019800F0C6FC29
:101D8000012400281E4E019817D0FCF733FF80195C
:101D9000403000798009032802D001280BD005E0EB
:101DA0001848006901998C40204204D00321019811
:101DB00000F000F9FEBD0221F9E700F0B3FC0028B5
:101DC000F8D00198FCF716FF05468100C81D0E4AA1
:101DD000F93089180A6980B222430A610B49401818
:101DE00000210160002FE5D00198FCF703FF80007F
:101DF00030580028DED00648AC404460FEBD0000EC
:101E0000644500200005005000650040006000406F
:101E100000630040F8B517460C460546002600F062
:101E20006BFC002801D0082631E0E27839462846CC
:101E3000FCF7BCFE411C29D0164BA278A900C9189A
:101E4000002A03D00A6802239A4301E062789200D4
:101E50000A60E178002910D082000F48217810181C
:101E600002690E4B1A400261EA06D20C8907890BFF
:101E70000A4301690A43026109E009492278081806
:101E80004030017992011143017100E0042630468F
:101E9000F8BD00000007005000650040FFE0FCFFB7
:101EA0006445002003490969C140C807C00F00D03C
:101EB000012070470005005070B5124DA87B002826
:101EC00001D0082070BD0F4900204039421E0B1878
:101ED0002033401CC0B21A722028F8D300242046B8
:101EE000FCF756FE641CE4B20A2CF8D3012106204C
:101EF000FFF710FF01200449C00748600120A873C4
:101F0000002070BDA4450020006300400248807B93
:101F1000002800D001207047A4450020F8B50446F1
:101F20001F480D4600192030082141560026491C43
:101F300001D008262FE0A97800291DD00122002118
:101F40002046FCF733FE411C14D0830015482A7844
:101F5000181869780369144F3B4003610369E70669
:101F6000FF0C9207920BC907C90A3B430A4313436C
:101F7000036104E004260EE00121C94301720B4A0B
:101F80000320A100891808606A780120A040084950
:101F9000012A02D0C8603046F8BD8860FBE7000027
:101FA0006445002000650040FFE0ECFF00070050A2
:101FB00000050050820006481018026803231B0425
:101FC0009A430260026809040A43026070470000F5
:101FD00000070050034940180068012800D0002085
:101FE0007047000000600040F0B5041D008885B017
:101FF000192864D01B280CD01D2808D12088A11CCA
:1020000075DF002803D000221146FBF7A5FE05B0BE
:10201000F0BD20460B300290A07A6946C008888146
:102020006A4602A90220FBF707FE002806D06A468E
:1020300002A90320FBF700FE0028E8D10025274F66
:1020400037E06800009A411C515C165C09020E439F
:10205000314623A0FBF7F8FABE4229D187DF244E90
:102060000546B068002307691A460121B847002DCC
:1020700003D029461FA0FBF7E7FA0020FCF7E4FB9A
:10208000002803D000221146FBF766FE2348FD22FC
:102090000178114001700146214AA01C88DF0146E9
:1020A0000020B0700029B2D01EA0FBF7CDFAAEE739
:1020B0006D1C684680884008A842C2D8A7E7A0786F
:1020C000022805D00328A2D122A0FBF7BDFA9EE783
:1020D0002AA0FBF7B9FA00F0A3FD98E7E0FF0000A3
:1020E000095B4150504C5D3A2025780D0A000000F4
:1020F0000C2800205B4150504C5D3A205363616EC8
:102100002073746F70206661696C65642C20726541
:1021100061736F6E2025640D0A000000342E0020CC
:10212000E83502005B4150504C5D3A20436F6E6EC3
:10213000656374696F6E20526571756573742046AE
:1021400061696C65642C20726561736F6E20256413
:102150000D0A00005B4150504C5D3A20436F6E6E9B
:10216000656374696F6E2052657175657374207450
:10217000696D6564206F75742E0D0A005B415050C7
:102180004C5D3A205363616E2074696D6564206F05
:1021900075742E0D0A000000F3B583B0039ECA22A9
:1021A000FF368136307E5043039A851848880028D0
:1021B00038D1083100912C7908782018102800D9DE
:1021C00010202871002711E00A2000997843411857
:1021D0000C20604340190190891C801D0A22FAF7E7
:1021E000CFFF00210198641C01827F1C2879A04246
:1021F000EAD80C20444360194288307ECA230399F0
:1022000058434018C030008982420BD228791028E8
:1022100008D0F0750398FCF7F5FC01000ED0002003
:10222000707608E00024F47569460398FDF724F8F9
:10223000010005D074760398FDF73EFD05B0F0BDB2
:10224000684600780028F9D0B28A29880548FBF74B
:10225000FBF901210398FDF7F7FC039800F05AF809
:10226000ECE700000C380200F8B50446FF340546E0
:1022700081340A46207ECA2148434619E07D0C235A
:1022800058438019801D8446114650880831002823
:1022900012D11E4B0A880DE0062747437F18BF88DE
:1022A0009F4206D106225043401841886046418132
:1022B00002E0401C8242EFD8002768460770E07DAC
:1022C0003179401C884203D10120694608700FE033
:1022D000E07569462846FCF7CFFF010004D0677619
:1022E0002846FDF7E9FCF8BD684600780028FAD0DA
:1022F000A28A31880648FBF7A7F901212846FDF795
:10230000A3FC284600F006F8F8BD000002290000F2
:1023100068380200F8B5064615493446C868FF34E7
:10232000401CC86089680025813488421ED2E5754A
:10233000207ECA21401CC0B241438F1920760D492E
:10234000C000401801883980408878803D71A28A99
:102350000948FBF779F9A08A3A46012190DF01008C
:1023600003D065763046FDF7A7FCF8BD6576F8BD6D
:1023700078280020F03F0020BC37020010B51D4A2D
:102380001D490300FBF784F905040B3120271200D7
:10239000487801281FD0022808D1032005E048789A
:1023A000002804D0032801D10220487010BD134B2F
:1023B00004201860124B012018609368D268D21A6A
:1023C000F3D0FBF7C5FB10BD4878012806D00228E2
:1023D00004D00328F7D1FBF7F3FB10BD9068D16858
:1023E000081AEED1FBF7DAFB10BD48780128E8D0D7
:1023F00010BD000054450020A42800200025004006
:1024000000200040F0B5164685B004460A461D4639
:1024100013A102A8FBF728F90020049020681149B5
:10242000C46802AB04AA0968A047002803D00020B2
:10243000C04305B0F0BD0024012704993A46488AFC
:10244000A240104307D00B8A0422E0B21146009646
:10245000019500F04BFC641C022CEED30020E8E751
:102460002564000024280020F0B585B00E460446FF
:10247000154614A102A8FBF7F7F800200190206888
:102480001149C76802AB01AA0968B847002811D0F2
:102490001420FFF7C9FA14210190FAF798FE02A858
:1024A00000902068022384680749019AA047002011
:1024B00005B0F0BD019801220582418AB240114366
:1024C0004182F4E7256400002428002001480078B8
:1024D000704700002C2800200148806870470000E9
:1024E0002C280020F8B5134A01211348FBF7C4FC3F
:1024F000114D00220C3D1149E868FBF73DFD104EDF
:102500000C2130884843FFF78FFA00240D4FA86054
:102510000BE02C700C21AA686143002089188860A8
:10252000A00038588047641CE4B230888442F0D35D
:10253000F8BD00006930020038280020CD0C0000F2
:1025400000280020E0350200F8B50F4606991D4628
:1025500014000FD000290DD01046FAF75EFE257248
:1025600000200546E060FFF739F9060005D068460F
:1025700036DF07E00020C043F8BDEFF310850120EF
:1025800080F310883868002802D13C6004E00846D7
:10259000C1680029FBD1C460002E03D068460078D2
:1025A00037DF01E085F310880020F8BD00200968BE
:1025B000C043002A02D0002900D10020704770B526
:1025C0001E4615460C0001D1481E70BD21463046FE
:1025D000FAF708FE002804D0E468002CF6D10020A9
:1025E00070BD2C60FBE7000030B40C4A0C499368C6
:1025F000098800200C2444431C5B002C03D1401CA0
:10260000C0B28842F6D3884205D2107005498000D6
:10261000085830BC004730BC704700002C28002010
:1026200000280020D835020038B514460A4A12683E
:1026300008E05578854204D195788D4201D100207B
:1026400038BD5269002AF4D100930A46234601217D
:10265000FBF7C6FA38BD00002028002070B50446FC
:1026600001460EA0FAF7F0FF1820174960434518FD
:10267000284611300621FAF7AAFD00262E606E606A
:10268000AE60FF21EE602974E975204600F05EFF20
:102690000D49A0001C390E5070BD00005B444D5D1B
:1026A0003A20496E697469616C697A696E67205075
:1026B00065657220496E7374616E6365203078259C
:1026C0003038582E0D0A00004444002070B5002414
:1026D000074D084E06E0D42060438019D0210958E8
:1026E0008847641CA8688442F5D30020686070BDE8
:1026F000782800200040002003490818282141566E
:10270000C817401C704700006445002004490818A1
:1027100028214156042901DB012070470020704721
:10272000644500200449081828214156042901D293
:10273000012070470020704764450020074909794F
:10274000490701D408207047002804D0044949787B
:102750000160002070470E2070470000AC28002068
:10276000B445002030B5124B1B795B0701D408201B
:1027700030BD002805D0002A03D00468002C10D1F9
:1027800001E00E2030BD0B4B1D68002D09D04568BF
:102790001889414369185D8945435868281888425B
:1027A00001D8072030BD14600020516030BD00000A
:1027B000AC28002080460020FEB5054625480E4680
:1027C0000079400701D40820FEBD002D03D0286801
:1027D000002834D101E00E20FEBD1F4C21680029E5
:1027E0002DD0608921894843616841186868814219
:1027F00025D9FEF7F9FF00280FD0686801902968F5
:102800000C2251430F1979680091401A39890C46FE
:10281000FAF78CFC002912D101E01020FEBD214600
:102820003046FAF783FC002909D1002E07D07889B9
:1028300044430198811900980019814201D9072069
:10284000FEBD002002460090334629460320FCF7D7
:10285000B1FAFEBDAC2800208046002010B5074824
:102860004469601C06D000F00BF801462046FAF7D8
:102870005DFC10BD01200007406910BD0010001074
:1028800001200007006980B27047000070B5002485
:102890000F482546047044702846FCF77BFA6D1CEF
:1028A0000A2DF9D30B4D6C80FFF7D8FF861EFFF77A
:1028B000E7FF46430648AE60CC306C61046004819B
:1028C00044812C70AC610420EC616860002070BD14
:1028D000B4450020AC280020FFB5274881B000791E
:1028E0001F4616460D46400702D4082005B0F0BD2D
:1028F000002D06D00198002803D02868002815D1A3
:1029000001E00E20F2E71D4C206800280ED06189FE
:1029100020896268414389186A68914206D9002E6D
:1029200004D0B04202D3F119814201D90720DDE77A
:102930000198FEF759FF00281BD03846FEF754FFD8
:10294000002816D06868FEF74FFF002811D068688D
:102950003246C1190198FAF713FC009628680C2139
:1029600048432458002202212846019BA04700200A
:10297000BCE71020BAE70000AC2800208046002009
:10298000F8B52A4D044628790E46400701D40820A0
:10299000F8BD002C20D0002E1ED0206800281BD0AF
:1029A000FFF76EFF0146A088814213D3102811D390
:1029B000E08800280ED0FFF751FF471EFFF760FFA9
:1029C0004743E288A088A96842435218974201D33E
:1029D000800703D00720F8BD0E20F8BD68880128C5
:1029E00021D003C60C22124B5043C21851602168FB
:1029F0001950A0881081E0885081FFF741FF0146FF
:102A0000A088E2885043401EFAF7A6FB441CFFF75B
:102A100037FF0146A86861430818A8606888401C11
:102A200068800020F8BD0420F8BD0000AC2800201C
:102A300080460020F8B5044620481E460079154619
:102A40000F46400701D40820F8BD002F05D0002C08
:102A500003D02068002815D101E00E20F8BD1848E9
:102A6000016800290ED04289018940684A43101844
:102A70006268904206D9002D04D0A94202D3A81959
:102A8000884201D90720F8BD3846FEF7ADFE002880
:102A900011D03046FEF7A8FE00280CD06068FEF783
:102AA000A3FE002807D02B463A4621460120009677
:102AB000FCF780F9F8BD1020F8BD0000AC2800201C
:102AC0008046002010B5114902460878002811D030
