:020000040001F9
:10D00000284A0020F5D001000FD1010011D1010004
:10D010000000000000000000000000000000000010
:10D0200000000000000000000000000013D101001B
:10D03000000000000000000015D1010017D1010020
:10D0400019D1010019D101002DD5010019D101001C
:10D0500019D1010000000000F5D2010019D1010032
:10D0600019D1010019D1010019D1010019D1010014
:10D0700019D1010019D1010019D1010019D1010004
:10D0800019D1010041D4010019D1010019D10100C9
:10D0900061D4010019D10100B5D4010019D10100FA
:10D0A00019D1010019D101000000000000000000AA
:10D0B0000000000000000000000000000000000070
:10D0C0000348854600F0E2F80048004735050200B5
:10D0D000284A0020401E00BF00BF00BF00BF00BFA5
:10D0E00000BF00BF00BF00BF00BF00BF00BFF1D145
:10D0F000704700000321094802680A43026008489B
:10D1000002680A4302600748804707480047FEE775
:10D11000FEE7FEE7FEE7FEE7FEE70000240500402D
:10D1200054050040D9D40100C1D0010030B50B46F0
:10D13000014600202022012409E00D46D5409D42F1
:10D1400005D31D469540491B254695404019154677
:10D15000521E002DF1DC30BD70B50024254600289C
:10D1600001DA01244042002901DA01254942FFF792
:10D17000DDFFAC4200D04042002C00D0494270BDDF
:10D1800010B5431A934209D28318881803E0401E51
:10D1900001785B1E1970521EF9D210BD03460B4375
:10D1A0009B0703D009E008C9121F08C0042AFAD25D
:10D1B00003E00B780370401C491C521EF9D210BDCD
:10D1C000D2B201E00270401C491EFBD2704700221F
:10D1D000F6E710B513460A4604461946FFF7F0FF76
:10D1E000204610BD10B5002200E0521C835C8C5C10
:10D1F000A34201D1002BF8D1D8B2E1B2401A10BD40
:10D2000030B504460020034600E05B1C934203D285
:10D21000E05CCD5C401BF8D030BD03460A7802705C
:10D22000401C491C002AF9D118467047F0B51FB4BC
:10D230000646002082B005464024019100901BE084
:10D24000019922460F46304600F042F8049A059BA9
:10D25000801A994110D310461946224600F028F84A
:10D26000361A8F410197224601200021009F00F0CD
:10D270001FF838184D4100902046641E0028DFDC5E
:10D28000019B00982946324607B0F0BD064C0125A7
:10D29000064E05E0E36807CC2B430C3C984710345E
:10D2A000B442F7D3FFF710FFA01D0200C01D02001B
:10D2B00010B5202A04DB0146203A9140002010BD21
:10D2C000914020239C1A0346E3401943904010BD2F
:10D2D00010B5202A04DB0846203AD040002110BDBA
:10D2E0000B46D340D0402024A21A9140084319464F
:10D2F00010BD0000F8B50024FF25013501262746A2
:10D300000094284603F03EFB002808D034484068CB
:10D31000304204D0334800212818344301602D1DC9
:10D3200076007F1CADB2042FEBD3FF207D3003F0DD
:10D3300029FB002807D02C48002101604007044346
:10D340002A48006900902A4F200712D001260025A4
:10D3500026420AD02748AA00111808690969C004A2
:10D36000C00E8903BA58890F904776006D1C042DB2
:10D37000EED3002C30DA00241D4E08213019403045
:10D380004156491C25D0077ABD06AD0E284601F04E
:10D39000D5FB80003658002E1BD0BF090121A940C3
:10D3A000154AA80080180068009A8003800F114277
:10D3B00002D0022802D00CE003280AD1032F05D1A5
:10D3C00002280AD00221284603F0CCFA3946284622
:10D3D000B047641C062CCFD3F8BD0321F3E700004F
:10D3E00000630040006000407C6100400005005088
:10D3F0000041002000650040000700508307FF2225
:10D40000DB0E9A408907090E994000280BDA0007C5
:10D41000000F0838830808489B001818C369934315
:10D420000B43C3617047830804489B001B181868AE
:10D43000904308431860704700ED00E000E400E00E
:10D4400010B506490020086048608860C86003493C
:10D4500040390860486004F06FFB10BD4011014086
:10D46000FEB50020C043124D0290686901906846E5
:10D470002E6902F0C1FB074602F0F2FE0446002FBF
:10D4800008D002AA0199009802F0D6FB029802F097
:10D4900031FF06E0029802F02DFF002801D1002C98
:10D4A00002D0304601F072FC00206871FEBD000021
:10D4B000E828002010B507484068002807D08047BA
:10D4C000002803D00022114600F0F4FB10BD02F04A
:10D4D00007FE10BD1029002010B502F063FE0028E1
:10D4E00005D00E490C484860C8130D4988610D48A5
:10D4F000018CC9B201290ED1818C09070BD1018D94
:10D500000906090F042906D1808D0006000F02D1FB
:10D5100005490120886010BDDFFF07C000050040FD
:10D52000006C0040C00F00F0000600407CB51B4CB2
:10D53000A0681B4E0025002818D0A56019488069F6
:10D54000C1B2194800F0EBFB002805D001216A4662
:10D5500011700190684607E013488168C068401A5E
:10D56000012803D16846057071688847E069002882
:10D5700003D0E561032003F059FB606A00280BD05B
:10D580006562084980390868086002216A4611709E
:10D5900001907168684688477CBD0000002100400A
:10D5A000A428002000250040E04000200FB410B562
:10D5B00003A9044B044A029800F038F810BC08BCD8
:10D5C00004B0184745FD01000C2900200FB410B528
:10D5D00004A9074B02AA039800F028F8044602A900
:10D5E000002000F05DFA204610BC08BC04B01847CB
:10D5F000A1DA010030B47446641E2578641CAB4285
:10D6000000D21D46635D5B00E31830BC184702E0A2
:10D6100008C8121F08C1002AFAD1704770470020BD
:10D6200001E001C1121F002AFBD17047FFB591B084
:10D630000F460546002606E025280AD0149A1399BD
:10D6400090476D1C761C28780028F5D1304615B01F
:10D65000F0BD002400940121F34A029400E0044349
:10D660006D1C2B780846203B98401042F7D1287853
:10D670002A280ED0022128780246303A092A15D8E5
:10D68000009A0A235A43303A80180C436D1C0090CC
:10D69000F1E701CF0090002805DA012040030443A0
:10D6A000009840420090022004436D1C28782E28E8
:10D6B00015D10420044368786D1C2A280AD101CFB3
:10D6C0006D1C02900BE002990A2251433039401838
:10D6D0006D1C02902878014630390929F3D9287841
:10D6E0006C2810D006DC4C281AD068280ED06A2886
:10D6F00017D104E0742813D07A2812D110E0012049
:10D70000400504430CE00121090501E0032109055E
:10D710000C436978814203D10120000524186D1C57
:10D720006D1C287803906E281ED00CDC632831D045
:10D7300004DC00288AD0582811D1B2E064287BD0BC
:10D7400069280CD178E073282DD004DC6F2870D0C4
:10D75000702804D1A7E075286CD078286BD0149A73
:10D7600013999047761C62E06002400F022807D0B0
:10D7700003280AD0042838680AD006603F1D56E006
:10D780003868F11706604160F8E738680680F5E709
:10D790000670F3E73878694608740020487404A8D6
:10D7A0000390012003E0386803900020C0433F1D30
:10D7B00061070FD5002101E00199491C029A0191EE
:10D7C000914213DA8142F7DB019A0399895C0029BF
:10D7D000F2D10BE0002101E00199491C0191814245
:10D7E000FADB019A0399895C0029F5D10199009827
:10D7F000139A401A00902146149B00F03BF90199BE
:10D800008019461807E0039803990078491C039192
:10D81000149A139990470198401E0190401CF2D130
:10D820002146149B139A009800F014F986196D1C78
:10D8300009E741E033E034E00A200021049005913B
:10D840006002410F022905D001CFC2179446032977
:10D8500005D007E0FF1DFF08FF0003CF06E000B280
:10D86000C2179446042902D140B2C1178C46002247
:10D870006146944506DA0A460021404291418C46B1
:10D880002D2102E0210504D52B216A4611760121C4
:10D8900003E0E10701D02021F7E7019154E00A20DD
:10D8A0000BE0102009E01020049000210420044324
:10D8B00008200591029003E00820002105910490C2
:10D8C0006002410F022905D001CF002294460329AE
:10D8D00006D006E0FF1DFF08FF0003CF8C4603E0E3
:10D8E00080B2042900D1C0B20021019121072BD5BB
:10D8F0000399702906D0049A1021059B4A401A43C7
:10D9000005D00EE040216A461176012108E061460B
:10D91000014306D030216A461176039951760221DF
:10D920000191049A0821059B4A401A430CD1614693
:10D93000014301D1610707D530216A4611760121E3
:10D9400001910299491E02910399582904D037A1E7
:10D9500003910FA90F910DE039A1F9E76146059BED
:10D96000049AFFF763FC039B8C469B5C0F9A521E44
:10D970000F92137061460143F0D10F9807A9081A5E
:10D9800020300390600704D50120000484430298EE
:10D9900001E0012002900399884201DD401A00E075
:10D9A000002041180290019809180098401A009030
:10D9B000E00306D42146149B139A009800F05AF80D
:10D9C00086190020049008E006A9085C149A1399AF
:10D9D00090470498401C761C049001998842F3DB20
:10D9E000E0030CD52146149B139A009800F042F8EE
:10D9F000861904E0149A302013999047761C0299F6
:10DA0000481E02900029F5DC08E00F980F99007875
:10DA1000491C0F91149A13999047761C0399481E3C
:10DA200003900029F1DCFBE6092801003031323394
:10DA3000343536373839616263646566000000004A
:10DA40003031323334353637383941424344454634
:10DA500000000000F8B5044600251E46174688045D
:10DA600004D405E039462020B0476D1C641EF9D56A
:10DA70002846F8BDFFB50446002581B01E46C80300
:10DA800001D5302700E02027880404D505E038467A
:10DA90000399B0476D1C641EF9D5284605B0F0BD4A
:10DAA0000A68531C0B6010707047000038B50D4CAD
:10DAB0006078022802D00C490120886069460B4832
:10DAC00000F00AF9002802D000F016F838BD084826
:10DAD000802181606A46074B1278DA610222627007
:10DAE000416038BDA428002000200040F040002004
:10DAF00000230040002500401CB506490120C860F5
:10DB00000549487003206A4610704968684688478E
:10DB10001CBD000000200040A42800200449002073
:10DB2000487004490122CA604A600349086070478E
:10DB3000A42800200020004000250040FFB581B04F
:10DB40001E4615460F46182002F098FC04001CD013
:10DB5000019860702770A5700A98E660206102F055
:10DB600091F96060E1684018A06000200849606198
:10DB70000868002802D10C6004E0084641690029C9
:10DB8000FBD14461002005B0F0BD0020C043FAE79E
:10DB90002028002070B500238D880C680DE0E61861
:10DBA0007678E15C864206D1E018801C491E106040
:10DBB0009180002070BD5B185B1C9D42EFD8052052
:10DBC00070BD10B501220221002000F0E7FD002801
:10DBD00001D0072812D107220221012000F0DEFD2A
:10DBE000002801D0072809D100210A22084600F0A8
:10DBF000D5FD002801D0072800D1002010BD00006D
:10DC0000044842680121C9050B46934383600A40DA
:10DC1000C26070470005005070B50024064D06E054
:10DC20006968E000085C012102F07AFD641C287834
:10DC30008442F5D3002070BDD0280020F8B51546E9
:10DC40000C460646052A01D20720F8BD02F036FE32
:10DC5000002803D102F008FE0028F6D11149002067
:10DC60004E600C7008618D6048610F4D0DE0E00062
:10DC700029688019009181786A46517000780B4AB2
:10DC8000694602F09DFD0028DFD12046641EE4B203
:10DC90000028ECD10348064A00210C3000F076F849
:10DCA000F8BD0000D02800209C1D0200B9FE010034
:10DCB000F5F00100BFF34F8F03490248C860BFF37E
:10DCC0004F8FFEE70400FA0500ED00E0014B1B68F2
:10DCD00018470000BC4000208268C36893420AD005
:10DCE000826883881A4003689A5C0A708168491CBC
:10DCF00081600020704705207047002906D0002A67
:10DD000002D0531E134203D0092070470E207047E3
:10DD10000160838000218160C1600846704782688D
:10DD2000C3689B1A8288934208D8C368134002686C
:10DD3000D154C168491CC16000207047042070475D
:10DD400038B50C46A2680C235A43064B09789D58F7
:10DD5000054A126A00920246204608302369A84705
:10DD600038BD00001C420020AC28002010B5064938
:10DD700014230A785A435118091DFFF7E1FF0420C4
:10DD800003F04CFC10BD00005041002070B5114C58
:10DD9000A568002D06D0002A06D0002804D0002354
:10DDA000247809E0082070BD072070BD24265E435A
:10DDB000AE5D002E04D05B1CA342F7DB042070BDD7
:10DDC000242401265C432E5564196170A26103600E
:10DDD000002070BDE8280020FFB59807002481B01E
:10DDE0001E4615460F4600280BD1002E09D003F021
:10DDF00029FB22490A9888610F70324600208E6004
:10DE000008E0072005B0F0BD24234343D4549B18F9
:10DE10001C75401CB842F7DB24204743BB19032084
:10DE200048700F461846CB60194618300022182358
:10DE30002E465E43D3005B181C705C709D7058606A
:10DE40003018521C032AF5DB0020C0433861BC7037
:10DE5000FC7001240A482405046003211420FFF704
:10DE6000CDFA08480460084C0198A06003211120F5
:10DE7000FFF7C4FA606878610020C3E7E828002053
:10DE800080E200E000E100E000150140FEB504463C
:10DE90001D48174682680D46002A0CD001788C4236
:10DEA00001D2052D01D20720FEBD2146242359436E
:10DEB000535C012B01D00820FEBD88184078012852
:10DEC0001DD0002603F0D2FEC0000F490190C968A2
:10DED0004018694603F0F4FE002812D001210170B9
:10DEE0000A49446049680830E2C007490198C96896
:10DEF00041180098487003F07BFD0020FEBD2E46BF
:10DF0000E0E70420FEBD0000E828002000150140E5
:10DF1000F8B5144D0446A868002809D029788C4229
:10DF200001D30720F8BD24216143405C012801D0C2
:10DF30000820F8BD03F09AFEC600E868694630186C
:10DF400003F0BEFE00280AD0022101704460E86898
:10DF500031180098487003F04BFD0020F8BD0420F4
:10DF6000F8BD0000E8280020FFB5584F83B0002618
:10DF70000D4604467E707A6000292AD0A888296858
:10DF800082B25348FFF7B9FE002823D1A889A968B7
:10DF900082B24F481030FFF7B0FE00281AD16078E7
:10DFA0004C490322800040180260227830469200DB
:10DFB00051180E60484D6178E96021786961A16867
:10DFC0006962454E61794036002905D00E21F16223
:10DFD00003E0072007B0F0BDF0622379022B17D0D1
:10DFE0003E493F4A012B45D004232B608860C8611D
:10DFF000F06A40084000F062581FA86028610120C4
:10E000009060106078700C98008800283FD043E042
:10E0100002F054FC002803D102F026FC0028D9D1DC
:10E020003048694600680090A07802F04FFC002854
:10E03000D0D1401E2861A078A860F06A0121084371
:10E04000F0622848284A40680190E07801A902F06F
:10E05000B7FB0028BED1E078012102F061FBE07837
:10E0600002F0F8FB002801D0002000E0012002F0BF
:10E07000DDFDC8E704232B608860C861F16A0120D8
:10E080000143F162E1782961A178A960B8E70C99B0
:10E0900038780880401C387000211448C9438160DA
:10E0A000A12189004160124904200860114B0699A2
:10E0B0001A68FF2424048907090EA24309040A43AD
:10E0C0001A600D490860002084E70000A4280020A1
:10E0D000E0400020000700500025004000210040E3
:10E0E000002000406C1D020005FF010000230040DD
:10E0F00080E200E000E400E000E100E010B501464D
:10E100000448FFF70CFE0446022002F08FFD204673
:10E1100010BD0000F040002010B50446087800282B
:10E1200008D0012801D0022803D149780BA0FFF7BD
:10E130003DFA10BD204600F041F8002803D000222F
:10E140001146FFF7B7FD204600F012F80028F0D086
:10E1500000221146FFF7AEFD10BD0000426174744D
:10E16000657279203D2025642025250D0A000000D8
:10E1700070B500281CD00F4B028844881868142101
:10E180004143401C40070C4D400F186049194C8119
:10E190000220C881081D086100248C8101200872BA
:10E1A00008714C710A80887003F006FD204670BD2E
:10E1B0000E2070BD6C280020043E002010B50A4BD4
:10E1C00014221968094C4A43491C4907490F196030
:10E1D000121981889180008810800020907003F0CF
:10E1E000EBFC002010BD00006C280020043E002045
:10E1F00008B5002815D0002913D001236A46937072
:10E20000094B1380094A90600022D2430280002209
:10E2100042808280096881600549684600F038F8CC
:10E2200008BD0E2008BD00000F1800006C2800205B
:10E2300065EF010008B5002816D0002914D00A881F
:10E24000102A12D0352A13D0372A1ED0382A0BD1E3
:10E250008A8983889A4207D101236A461370897C90
:10E26000517082686946904708BD8988018008BD61
:10E270008A8983880C319A4207D102236A46137037
:10E280008979517082686946904703F095FC08BD12
:10E2900030B5002815D0002913D00E4A1378002B72
:10E2A00011D09368022B10D011D20B4CDD002C1929
:10E2B00005882580408860805B1C61600020936039
:10E2C00030BD0E2030BD082030BD062030BD0420FA
:10E2D00030BD000078280020A43E00200021044822
:10E2E000012281600270C1604160084670470000F1
:10E2F0007828002070B5002815D0002913D0244AB2
:10E300001278002A0FD00A88302A17D00CDC044675
:10E310004034102A10D0112A05D16221FEF757FF90
:10E320000020C043A08370BD322A2DD0332AFAD1F9
:10E33000091D02F0FDFB70BD8888F3E70546C8881B
:10E34000091D002807D00021284601F02FF8284693
:10E3500002F03EFC70BD2C46603420782E225043E3
:10E3600040194A8902808A894280CA894285098A7D
:10E370008185284600F0EAFB0100EBD000206070A8
:10E38000284601F049F870BD091D02F06BFB70BD15
:10E390007828002010B500280DD0144A1378002BDF
:10E3A0000BD09368002B08D0044660346378002BB0
:10E3B00005D0112010BD0E2010BD082010BD002377
:10E3C000D360536023700346024640330848998364
:10E3D0000188118040885080988B012190DF0028AF
:10E3E000ECD101206070002010BD000078280020D2
:10E3F000A43E002010B5044601F036F821460A4834
:10E40000FFF778FF08482146643000F055F80648C9
:10E4100021467030FFF70EFF204600F0D5F8204669
:10E4200002F0BAFA10BD00006C2C002070B5002874
:10E430001CD00F4B02884488186814214143401CAB
:10E4400040070C4D400F186049194C810220C881CB
:10E45000081D086100248C810120087208714C712C
:10E460000A80887003F0CAFB204670BD0E2070BD84
:10E4700088280020243F002008B5002814D0002957
:10E4800012D001236A469370084B1380084A9060AB
:10E49000096881600021C94301800021418005494C
:10E4A0006846FFF7F5FE08BD0E2008BD0D180000F8
:10E4B0008828002001EF010008B500281DD00029A0
:10E4C0001BD00A88102A19D0372A1CD0382A14D118
:10E4D0008A8983889A4210D102226B461A708A7CFC
:10E4E000D3074A1C002B0CD0D17C927C090211432B
:10E4F0006A46518082686946904708BD89880180D4
:10E5000008BDC97CF4E703F079FB08BD08B500231A
:10E5100048221549082003F0B5F8002803D000224E
:10E520001146FFF7C7FB00206946009048700220A3
:10E530000870684660DF002803D000221146FFF70C
:10E54000B9FB0A4803F094F8002803D000221146D2
:10E55000FFF7B0FB064803F0ADF8002803D0002217
:10E560001146FFF7A7FB08BD24290020F5E30100B1
:10E57000A91802007CB5134E00250C463060002916
:10E5800018D06946002000F0B3F8002819D101A97D
:10E59000012000F0ADF8002813D168460179002071
:10E5A000002901D0022004E069460978002900D042
:10E5B0000B2020707068002802D1FFF702FB05468F
:10E5C00028467CBD6028002010B51C4C018860687E
:10E5D00010290DD011290AD1401E606007D1FFF724
:10E5E000F0FA002803D02168002900D0884710BD28
:10E5F00000281ED100210122084600F0CFF8002893
:10E6000001D0072811D107220221012000F0C6F80D
:10E61000002801D0072808D104220221002000F0A0
:10E62000BDF8002805D0072803D02168002900D0B4
:10E6300088476068401C606010BD000060280020B2
:10E6400010B5032000F024FA002801D0062800D1DC
:10E65000002010BDF8B507460024224802E0641CE3
:10E66000042C19D2A2008258BA42F8D1042C13D239
:10E670001D4E1E4DF069002928D001290DD0022918
:10E680000AD16000201840194578002D04D0F168A7
:10E69000002901D028468847F8BD61006218294644
:10E6A000AD5C511800914978002909D071680A229F
:10E6B00051430D4A521CFFF7E9FB002800D1777047
:10E6C00000988178084810300155DEE7FFF720FCFC
:10E6D00005486100611810304919005D8D78A84225
:10E6E000D3D0F8BD081D020040280020F83D0020CE
:10E6F00004280CD2074A1269074B80001B5C0120DA
:10E700009840904300D001200870002070470020FE
:10E71000FAE7000000050050081D020070B51E4C0D
:10E7200004281BD0072821D00A2816D1002000F089
:10E7300059F8002803D000221146FFF7BBFAFFF773
:10E740007FFF002803D000221146FFF7B3FA3CDF19
:10E7500009E000221146FFF7ADFA70BD1321E088F1
:10E7600076DF0828F9D00028F3D170BD6078012544
:10E7700001280CD1A078002809D1A57087DF0028D6
:10E7800007D0082803D000221146FFF793FAA5709E
:10E7900070BD02F079FEFAE70C28002070B5002366
:10E7A000042811D2440004190D4D012A02D1012977
:10E7B0000DD0002246008019094E801900290CD086
:10E7C000012906D0022906D00723184670BD0D3056
:10E7D000C2B22A55F9E74270F7E78270F5E7000008
:10E7E000F83D002010B5054A0146127A0020D207F4
:10E7F00002D0084600F054F810BD00004028002068
:10E8000070B50E46204905464E608D600020CA60F6
:10E81000A9071ED50024012211462046FFF7BEFF9E
:10E82000641C042C02D20028F5D012E0002810D17C
:10E83000720804211548FFF701FA002809D1FFF7F3
:10E84000EBF9002805D11048114A00211C30FFF7D0
:10E850009DFAE90706D00F220E4952058A6000236F
:10E86000CB608A6100280DD107480B4A0021143083
:10E87000FFF78CFA002805D10348084A0121183017
:10E88000FFF784FA70BD000040280020181D020028
:10E89000CDEA0100000500504902020001DC010040
:10E8A000FEB5784906464F684B690093BB00FB18DC
:10E8B00000200122019352050546734C3300FEF7F8
:10E8C00099FE180D13133749596C828E858E97A1C6
:10E8D000A5A5A5A5A5C3C8CDD4DADA120B22520589
:10E8E000A260E5600D70FEBD05208005A060E560BA
:10E8F00060680F235B055840800209D5A260E5607F
:10E90000022E02D1E120C0000AE07D20400107E094
:10E91000E260A560022E01D1C82001E0FF20913005
:10E920000E706421FEF702FC78430022014646E0A7
:10E9300005208005A060E56060680F235B055840F6
:10E94000800204D5A260E56019204001E8E7E2609A
:10E95000A560E1E705208005A060E56060680F2301
:10E960005B055840800202D5A260E560CDE7E26019
:10E97000A560D3E705208005A060E56060680F23EF
:10E980005B055840800202D5A260E56001E0E260CC
:10E99000A5600E707900002211E005208005A060BE
:10E9A000E56060680F235B055840800202D5A260D5
:10E9B000E56001E0E260A5600E7000223946009833
:10E9C000FFF764FAFEBD05239B0544E06068012162
:10E9D00089050A468243A2600840E06010E0616851
:10E9E0000120800502468A43A2600140E160E4E71D
:10E9F00061680120800502468A43A2600140E1600F
:10EA00000199C8E70F214905E1601BE00F468869BD
:10EA1000FFF77EFA11218A1B1C4E01D0002802D07C
:10EA2000A660E560FEBD012A0BD91046C821484307
:10EA30006421FEF77BFB796800224143B869FFF748
:10EA400025FAE660A560FEBD0F225205A260E560D2
:10EA500015E007239B05A360E5600EE00D2252053B
:10EA6000A260E5600122920507E00322D205A260C0
:10EA7000E560921001E00F225205E260A5600E7081
:10EA8000FEBD00004028002000050050000080006E
:10EA9000F0B500210B4C0C4D03273F048A00A2580F
:10EAA00092005619326801238B40034000D00323A3
:10EAB000BA431B0413433360491C0429EED30020DE
:10EAC000F0BD0000081D02000007005010B50078DE
:10EAD0000221FFF7BFFD10BD0022D243830004498D
:10EAE0000428CA5002D30818403002717047000051
:10EAF00000410020F0B50025ED43002A02D000239C
:10EB0000042601E004230A260B4C04E09F00E75989
:10EB10007F1C04D05B1CB342F8D32846F0BD2618F6
:10EB20005DB2203635729E00A151002AF5D1E11860
:10EB300040310871F1E70000004100200249091846
:10EB400028200856704700000041002008B56021C9
:10EB5000095C2E22514309184030C27F002A08D098
:10EB6000521ED2B20C235A435218D2896B46521C01
:10EB700001E04A8D6B461A80898D5980808B194639
:10EB800092DF08BDF8B53E481422017851430C18B5
:10EB9000E0680C2148433A492769CC31401805897F
:10EBA00041890091241D466802F09EFA01463846CC
:10EBB000FEF7BCFA002932D000200099A2884D430C
:10EBC0006188AE198918CD1900222E4900280A61E2
:10EBD00009D002F089FA6188884222D0B54202D178
:10EBE000A08800281DD0A06802281AD002F07CFA64
:10EBF000A188CA1901461046FEF798FA214C8808E8
:10EC0000E06002F071FA01462846FEF78FFA00290B
:10EC100011D00020B5422FD000280ED02CE00120CA
:10EC2000CBE702F061FA01463846FEF77FFA154954
:10EC30004861032021E00120ECE7ADB2B7B202F059
:10EC400053FA01463846FEF771FA064602F04CFACE
:10EC500001462846FEF76AFA864201D1781B09E090
:10EC600002F042FA064602F03FFA01462846FEF755
:10EC70005DFA701A80082061022002F0CFFCF8BD16
:10EC800050410020AC28002010B50748142201781C
:10EC9000514308180079042802D000F059F810BD3B
:10ECA000012002F0BBFC10BD5041002010B50B4804
:10ECB0001422017851430818094AC1881162007969
:10ECC000012806D0032801D0042801D1FFF75AFFFC
:10ECD00010BD012002F0A2FC10BD00005041002038
:10ECE000AC28002014225043054A002180180171ED
:10ECF000C18001220161C260416101817047000051
:10ED000050410020F8B5104C069E65780A2D19D0A8
:10ED100027787D190A2D00D30A3D14277D432D192C
:10ED200028716A6103C92961E860EB802E816078EF
:10ED3000401C607005480078002801D1FFF7B6FF3D
:10ED40000020F8BD0420F8BD50410020AC28002070
:10ED500010B50D4C14212078484301190020091DDD
:10ED6000FEF7EEFF2078FFF7BDFF6078401E607071
:10ED70002078401CC0B220700A2801D100202070E9
:10ED8000002002F04BFC10BD50410020F8B5224895
:10ED900001694A1C3DD024225143826889184E687B
:10EDA0001E494C6847690079E11B0D022D0AED1CD4
:10EDB000002814D101201A4A00045060184A403A31
:10EDC0005060184940000860174908601749012041
:10EDD00008602F20FEF77EF90F4901200871B54227
:10EDE00000D23546E81900020C49000A403108609B
:10EDF0000A494968001B091B0902090A0002000AA6
:10EE0000C91C814204D901200649400480390860A8
:10EE1000F8BD02F017FBF8BDE828002000150140FE
:10EE20004013014080E200E000E100E000100140FA
:10EE300070B5094B04469E7A082000250E4207D083
:10EE40000648844202D01889A04202D100201560F1
:10EE500070BD052070BD0000B0400020FFFF000025
:10EE60000C214843064910B5012240188272911EB8
:10EE70000181FF21C1720721FEF7A9F910BD000031
:10EE8000B040002010B5134C207900071FD46069F2
:10EE9000401C6061E068002801D0042004E001F01B
:10EEA000A5F9002803D0022002F0F4FC10BD20696F
:10EEB000002809D06068C10701D00320F4E70121D0
:10EEC000084360600020EFE7FFF7DEFE10BD02F0B0
:10EED000D5FC10BDAC28002010B5084841680A07D1
:10EEE00008D48A0702D5012211434160022002F0B2
:10EEF000D1FC10BD02F0C2FC10BD0000AC28002007
:10EF000038B50178002925D18188134A914221D151
:10EF1000817901291ED1114943888A680021138013
:10EF20000F4C037A0EE00C254D432D186D89A54238
:10EF300007D10C2359430818838A5380418A918052
:10EF400002E0491C8B42EED80120694608709368A4
:10EF50001046984738BD00000D1800008828002092
:10EF6000372A000038B50178002926D18188134A54
:10EF7000914222D1817901291FD1114943888A68A0
:10EF8000002113800F4C037A0FE00C254D432D1800
:10EF90006D89A54207D10C2359430818838A5380F1
:10EFA000418A918003E0491CC9B28B42EDD8002010
:10EFB0006946087093681046984738BD0F180000DE
:10EFC0006C280020192A000010B501F00BFA00206F
:10EFD00010BD10B501F006FA002010BD10B5084AAA
:10EFE000002907D0002808D04A694261084601F08C
:10EFF000F9F910BD00201060F9E748691060F5E7E5
:10F0000020280020F7B582B0044601F0BDFE0C2197
:10F010004C432518154EAC6830780028FDD00020F0
:10F0200030700127A86012E0009400982469C0683D
:10F03000002803D001F0D6F900280ED0009801F086
:10F04000D1F9002809D00498401E80B20490002C09
:10F0500007D004980028E7D1AC603770002005B0D5
:10F06000F0BD2888039948402880F6E73C28002016
:10F07000F3B50546603000782E2148432E464719E7
:10F080004036F47F0C206043C1193A79601C891D19
:10F0900083B0904226D101AB0022284601F060F8EF
:10F0A000002822D010E0401EA04201D1002003E041
:10F0B0000C206043C01912300246009001AB284674
:10F0C00001F04EF8002807D0049800210170B08BA1
:10F0D00001A993DF05B0F0BDF07F0099401C641CCE
:10F0E000F077E4B23879A042DDD8049801210170AC
:10F0F0000020EFE7F8B500260124154D23E06968EC
:10F10000F0004718387821466A698140114218D0CA
:10F110008A436A6101F09EFB3A7821462B6991404F
:10F1200019400346934099420BD17978012901D0C7
:10F13000012100E000217B684140002B01D01046F6
:10F140009847761CF6B228788642D8D3F8BD0000DE
:10F15000D0280020FEB50E46044681786A46234832
:10F1600001F034FF002827D160780C21204F48435C
:10F17000C019807A400620D4022E1ED0012E1ED047
:10F180001C4DA0781821484319490023D039411853
:10F1900018226846A847002813D0022E0CD02078E9
:10F1A0000C21484312490C314018807A12498000E2
:10F1B0000A58214668469047FEBD104DE1E7104DC4
:10F1C000DFE7022EF8D060780C214843C019817A1D
:10F1D000BF221140817260781C21484304491823E2
:10F1E000283941181C226846A847D8E79C280020E7
:10F1F000B0400020011802003C1D020079130200FB
:10F200009D12020070B50546114A124800241823C9
:10F2100063431B18DB7DFF2B04D0641C072CF6D343
:10F22000104670BD0A78022A09D0182262431018CD
:10F23000FD22C27507221030FDF7A2FF04E018215D
:10F2400061430818FE21C1752C700022E8E7000018
:10F2500043800000E03F002070B5064608780D4668
:10F2600015285DD009DC2F4C11280DD0122830D084
:10F27000132844D0142853D146E0212849D022280D
:10F2800047D023284CD144E00720FFF7ABFA0028F1
:10F2900003D000221146FEF70DFD686804220588A0
:10F2A0002048E58031460C30FDF76AFF29461E48AC
:10F2B000FFF770F8002803D000221146FEF7FAFC91
:10F2C0002078401C0006000E207029D102F0DCF8E6
:10F2D00026E062211448FDF77AFF0020FFF782FA4A
:10F2E000002803D000221146FEF7E4FC2078012814
:10F2F00001D102F0C9F82078401E207010E00948C2
:10F300000C3000F0C1FB05E007486430FFF78EF8D1
:10F3100000E01046002803D000221146FEF7CAFC88
:10F32000002070BD0C2800206C2C00201FB5694601
:10F33000087301F0DFFE002803D000221146FEF71B
:10F34000B9FC03A800F054FA002803D000221146AB
:10F35000FEF7B0FC01A805210130FDF738FF114888
:10F360000222694600900A7148790123184310432C
:10F37000E3210840DF210C3008406946487107202E
:10F3800088711020C871087A184310430872064823
:10F3900000F04EFB002803D000221146FEF78AFC45
:10F3A0001FBD000059F2010011280020F3B50446EA
:10F3B000603000782E214843071981B0384602F0AA
:10F3C00023F8060023D0124D686802281FD240346B
:10F3D000A18B38220F4C5043031959800299002900
:10F3E00007D0002121542E223946181DFDF7C8FEF2
:10F3F00001E0022121546868382141430919401C69
:10F400004E636860A968884201D101F09DFDFEBD90
:10F4100078280020B43E0020F8B5044660300D4640
:10F4200000782E214843001901F0EEFF010016D0AC
:10F430000B484268022A12D240343823A68B534329
:10F44000084C1F461B195E800126E6555D60521C64
:10F45000596342608068824201D101F075FDF8BDB8
:10F4600078280020B43E0020F0B50646D548002795
:10F47000007893B000285CD0D34D2868002858D07D
:10F48000684600F0A7F9002803D000221146FEF7D5
:10F4900011FC00200E90301D02902A2168468181C7
:10F4A000FF218170002101700B91C74C30880C3C0A
:10F4B00010280ED0B0880BAA0221FFF7B9FC002853
:10F4C00007D10B980C2141430919C97A6A469170FA
:10F4D0005070308817287DD02DDC102838D01128A6
:10F4E00079D0132825D10B991C220B465343B64AD9
:10F4F0000020343A9A180A9005920C225143089041
:10F5000009900919C97A18225143AF4A0790DC3A89
:10F51000891806910022B08805AB11467FDF0028CC
:10F5200007D10B980C2148430019817A042211431A
:10F53000817213B0F0BDA54918286ED01C286DD07B
:10F540005228F6D1A87A8000095868468847F0E723
:10F550000BAA01219E48FFF76BFC0028E9D10B990B
:10F560000C20484302220019827211236A4613714B
:10F570005170B18801810722B11DFDF701FEB61D52
:10F580000D960026904918207043DC394018072258
:10F5900010300D99FDF734FE002803D0761C072E9D
:10F5A000F0D3DCE00B980C2148430019C672817A35
:10F5B000082211438172684686708248B1B20CAA53
:10F5C000083001F003FD0028EBD10B981C214843C3
:10F5D0007D4901E03DE00FE03439401818231C223A
:10F5E0000CA901F0ADFDA87A7849800010390A58BD
:10F5F00069460CA89047B2E00B980C2148430119CA
:10F60000887AFD2210408872010708D5C0090FD002
:10F6100000216846FFF79EFD0AE064E09CE0684632
:10F620008078FF2804D001F071FCFF2069468870C3
:10F630000B980C2148430019817A490703D5697A50
:10F640000127B94369721021817212216846017144
:10F6500085E0687A0C214008400068720B986B4680
:10F660004843011984468A7AFB2002408A7214209A
:10F670001871B0790127002801D00E906FE0F07961
:10F6800040076CD59878FF2869D008231A438A72FE
:10F69000B27A920709D5182302465A434A4BDC3BFB
:10F6A000D218D37D5B085B00D375CA7AFF2A56D087
:10F6B0006246A25C022A11D01822434E5043DC3E1F
:10F6C000801907221030FDF75BFD6846807818210D
:10F6D00048438019C27DFD210A40C2750121684658
:10F6E000FFF738FD3BE0B0790209012A22D100077B
:10F6F000000F01281ED10B980C2250430219927A58
:10F70000120717D53049183940180621001DFDF79A
:10F710005EFD1620694608710B980C2148430119BB
:10F72000887A602210438872697A01270220014397
:10F73000697214E00B980C2250430019827A8023DE
:10F740001A43827215206A461071A87A80000958FF
:10F7500068468847002090E713206946087101A990
:10F7600068460E9AFEF7B2FA68460079122808D168
:10F770000B980C2141430919897A012901D0FFF71F
:10F780006FFB002F00D1D4E6687A8007FBD506AA6C
:10F7900020210F48FFF74CFB002804D0687AFD2198
:10F7A00008406872C5E600206946087506984875E5
:10F7B0000C2148430019C07A6946887505A800F0F5
:10F7C00063FCB6E694280020BC4000205C1D0200CB
:10F7D000FFFF0000002806D0FF21017041708170FA
:10F7E000C170002070470148704700000E80000083
:10F7F000F0B585B0050031D026480024046044727D
:10F8000084722046FFF72CFB224878380466446651
:10F8100000268466304601F079FB761C072EF9D36A
:10F820005C21684681800721C1801B4800901B49EC
:10F83000684601F0D9FC00280ED1184E0120083E80
:10F840003070287800280BD069468888C9884843DA
:10F8500081B2124801F0E4FB05B0F0BD1048FBE7AF
:10F860000C4F0025DC3FA9B202AA0C4801F0AEFB08
:10F87000002809D118206843C0190023182202A9C2
:10F8800001F05EFC002801D03470E5E76D1C072D07
:10F89000E9D3E1E7BC400020A5F801009C28002046
:10F8A0000E800000FFB55E488FB00068189F1E46AE
:10F8B000002876D05C2F74D86846FFF78BFF0028AD
:10F8C00003D000221146FEF7F5F9002468460470C3
:10F8D0000471254605970696A9B20DAA514801F074
:10F8E00075FB002806D108220DA90F98FDF788FCAA
:10F8F000002818D06D1C072DEED368468578FF2DA3
:10F900004FD01098032811D045481821DC38301A00
:10F91000FDF70CFC012707281ED204A802901198BD
:10F9200000280BD011E068468570E6E75C2F03D015
:10F930004020694608716DE02020FAE738463949D1
:10F94000A84008394968084262D0284602F084F984
:10F950002020694608714BE031481C213438301AA8
:10F96000FDF7E4FB00281DD02D480C211838301A73
:10F97000FDF7DCFB01002C482DD040216A461171B7
:10F980002A498E4246D00246A900EC3A5158B1426B
:10F990003ED104A90291C07A854229D168464470BB
:10F9A00026E035E004A802902021684601714470E9
:10F9B0001B480A940C300B904038079068468078BA
:10F9C000182148431849D0394018089007A80690D4
:10F9D000182005900CE0302269460A714C70CF70F7
:10F9E000807A800704D410480C3804604460846036
:10F9F000109869460228087910D002210843694608
:10FA0000087104A8029001A96846119AFEF75EF9F0
:10FA100013B0F0BD694608790321EFE73843EFE7FB
:10FA2000BC4000209C280020B0400020381D02006F
:10FA300070B5064611480D46007800280ED01049D2
:10FA4000002E0ED0002D0CD02868002809D00D4CB7
:10FA50002168002907D00A480A3870BD0848801F6D
:10FA600070BD084670BD20600522691D201DFDF790
:10FA700087FB2879A0720020307070BD9428002088
:10FA80000E800000BC400020F8B504462B480178E9
:10FA90002B4800290ED0002C0AD02178002909D14A
:10FAA000284E3168002905D06178002910D102E084
:10FAB0002348801DF8BD234D0C3DA97A012907D0AC
:10FAC0008907F7D5A1782846C07AFF2905D102E039
:10FAD0001B480830F8BDFF2807D01A4AA070343AF6
:10FAE00011461231288981DFF8BD29466846FFF7A3
:10FAF00089FB0028F8D162780C2369465A430978BB
:10FB00005219D172A170217859438919497AC907CC
:10FB100010D061780C22514349198A7A20231A4364
:10FB20008A7221780C22514389194A7A02231A4396
:10FB30004A72F8BD204600F0A7FAF8BD94280020CC
:10FB400008800000BC400020F0B5284A1378284AFD
:10FB5000002B2CD0931D00280BD0002909D00C6855
:10FB6000002C06D08C68002C03D0007800281ED111
:10FB700001E01846F0BD1F480068002817D0002398
:10FB80001C4C1A4618460C3CE57A854202D1A57AEF
:10FB9000AD0723D40D7B95420FD9182506466E4339
:10FBA000144DDC3D7519EE7DF60702D005E01046D8
:10FBB000F0BD97008E68521CF5510D799D420DD90C
:10FBC000182506466E430B4DDC3D7519EE7DB607D4
:10FBD00004D49F0010350E685B1CF551401C0728AB
:10FBE000D2D30B710A730020F0BD000094280020CE
:10FBF00008800000BC40002010B50E4900238A7820
:10FC0000CC78A24212D0521CD2B28A70022A00D101
:10FC10008B708A78074B92001C339A5802604869AF
:10FC200010180002000A4861012010BD0360002086
:10FC300010BD0000E8280020F7B5144C0025A76887
:10FC400023691EE024215943C9194E68864202D90E
:10FC5000301A486017E0801B751900264E600E753B
:10FC60000E699C460B6AB646002E0AD0019E761994
:10FC70003602360A8E607646CE6016680E6261469F
:10FC80001160591CDED12361FEBD0000E828002070
:10FC900010B5002803D0112802D0FEF767F810BD78
:10FCA0000248082241681143416010BDAC28002081
:10FCB00010B51C4C217820464068012906D0022945
:10FCC00029D0032912D1000717D513E0000711D45A
:10FCD00015481422017851430818C188A28B891A4B
:10FCE0000904090CC18002D001F08CFD10BDFFF7A2
:10FCF0002FF810BD00F0D2FC10BD6069401C60619F
:10FD000000F074FA002803D0207801F087FC10BDC1
:10FD1000FEF7BAFF10BD607804498000085880479C
:10FD200010BD0000AC28002050410020881D0200BA
:10FD300010B528DFFFF7ACFF10BD10B529DFFFF7C6
:10FD4000A7FF10BD10B50446C0B2FEF7D7F9204694
:10FD500010BD002070470020704700207047000051
:10FD6000F8B544780C2044430B480021034605595C
:10FD70000C33E3180A46002D07D09E7AF70904D009
:10FD8000760602D42118AAB2091D18890323A9DF17
:10FD9000002800D00148F8BDA440002041800000A8
:10FDA00070B50D46014668780C22084C5043001986
:10FDB000342301F0C5F9002806D169780C2251439B
:10FDC0006258521C00D1625070BD0000A440002057
:10FDD000FEB50D46074606206946088168780C2165
:10FDE00048431F4E02AA8019008903236946AADFEF
:10FDF000002833D168780C214843741A00196946E9
:10FE00000A89001DFDF7FCF90028687806D00C214E
:10FE10004843215800290DD0124E0CE00C214843D4
:10FE20008119897A890719D400190021016041607C
:10FE3000816013E00C4E69460A89225068780C21D3
:10FE4000484300196946001DFDF79AF968780C21AE
:10FE50004843011934230C223846B0470020FEBD28
:10FE6000B0400020791302009D12020010B5FFF788
:10FE700077FF10BD10B5FFF793FF10BD10B5FFF76A
:10FE8000A7FF10BD01484068704700000015014001
:10FE9000024680680860002902D001200B6804E057
:10FEA00000207047401CC0B20B601B69002BF9D1C9
:10FEB00092680A607047000070B50646104C012534
:10FEC000B540E068FEF724F800280CD161692942AA
:10FED00007D1304600F0BEFC0028206904D028433A
:10FEE00003E0A943616170BDA843206160690022FD
:10FEF00028436061A168E068FDF7C8FF70BD00009D
:10FF0000D028002010B500F0A5FC002801D000206A
:10FF100000E0012000F08AFE10BD000070B51B4C0F
:10FF2000207900072ED41A481422017851430D1865
:10FF30002E6901F0D9F80146E8882A89761E8018D2
:10FF40008019FDF7F3F821690025002909D06169BE
:10FF5000814206D1E56060680121084360600020AD
:10FF60000AE000F043F9002802D00220E56003E037
:10FF70002069002803D0032001F08CFC70BDFEF73F
:10FF800083FE70BD01F07AFC70BD0000AC2800203B
:10FF90005041002010B504460878012806D00228F8
:10FFA00003D149880CA0FDF701FB10BD0F48FFF7F6
:10FFB0006BFD002803D000221146FDF77BFE204692
:10FFC000FEF734FA002803D000221146FDF772FE36
:10FFD00007A0FDF7EBFA10BD48656172742052610D
:10FFE0007465203D2025640D0A00000018280020BB
:10FFF00048656172742072617465207365727669F8
:020000040002F8
:10000000636520646973636F7665726564200D0AA9
:100010000000000005490160054941600549816013
:10002000054901610549C1600020704715000200C3
:10003000C9EF0100F90D02005D0E02006F0E020013
:1000400010B50446142000F019FA2060FFF7E2FF13
:10005000002802DA206800F0C5F90648606006480A
:10006000A0600648E0600648206106484460002021
:1000700010BD000041000200D3EF0100190D020085
:10008000B50C02002428002070B5044600780C212D
:10009000124E4843811960780C225043B51A40191A
:1000A0000089091D7EDF010016D120780C22504303
:1000B0008019427A01231A43427260780C2250431D
:1000C0004219907A04231843907262780C235A43A1
:1000D0005219DF2318409072084670BDBC400020C2
:1000E000F8B51E4C2078002837D02069002807D0AA
:1000F0000026E068002805D00025002E04D013E07B
:100100000126F6E70125F8E7684651DF052806D005
:10011000002806D000221146FDF7CCFD04E00126A0
:1001200002E0216900988847002D12D16088694655
:100130000880A06861DF052806D0002806D00022CC
:100140001146FDF7B7FD04E0012502E0E168A06873
:100150008847002ED8D0002DCFD0F8BD1029002020
:1001600030B50989002A05D0D088491C814212D1B6
:10017000002030BD0246603214782E256C432418CE
:10018000A48DA142F4D0491C198011782E2251432C
:100190000818808D02E01980D088401E5880012008
:1001A00030BD00001048018CC9B2012917D1818CE3
:1001B000090714D1018D09060A0F03D1828D120699
:1001C000120F0ED0090F012903D1828D1206120FD2
:1001D00007D0032903D1808D0006000F01D0002035
:1001E0007047012070470000C00F00F070B50E4846
:1001F0001422017851430C18256900F075FF01465F
:10020000E08822896D1E80184019FCF78FFF07498E
:100210004A69824206D3824202D10869002801D08D
:10022000002070BD012070BD50410020AC2800208E
:10023000014800787047000010290020800701D095
:10024000002070470120704710B50448017AC907A3
:1002500002D00078FEF724FB10BD000040280020EB
:10026000F8B5234801690091457833E02048E9005A
:10027000C0680E1834782AE0182060437168641C46
:100280000818B178E4B2A14200D100240178022913
:1002900002D003291BD113E0154A4068242192683B
:1002A00041438F18397D002911D001F0DBFB00207C
:1002B00038750CE024277843C0180275006A03E003
:1002C0000B4900228B680869471CF3D108617078DC
:1002D000A042D1D128466D1EEDB20028C6D10448F7
:1002E00001690098814201D00120F8BD0020F8BDCD
:1002F000E8280020F8B50446384800270169009135
:1003000046785CE03548F100C2688D1851E0601C09
:1003100007D0324A24209268604321468018046A3C
:1003200024E02878182141436A68401CC0B2521862
:100330002870A978884200D12F70284B516824205A
:100340009B684843C0181378012B34D1037D002BE0
:1003500031D193688360D368C360136903615269C4
:10036000C2611E4A5279002A00D087601B4B826806
:100370005B6996469C46D31A1A02194B120A9A4296
:1003800002D2C368D21808E0724663469A1A120273
:10039000C368120A934202D99A1A426000E0476089
:1003A00087600122C7600275921E0262084601F052
:1003B00027FB601CABD1287869788842A7D13046EA
:1003C000761EF6B200289DD104480169009881424A
:1003D00001D00120F8BD0020F8BD0000E828002071
:1003E000FFFF7F00F8B5060007D00024FFF720FFCD
:1003F000050005D0684636DF07E00120C043F8BDA0
:10040000EFF31084012080F310881948007800274A
:10041000FF4300280CD017480121301A09038842F5
:100420000FD3002D0AD06846007837DF3846F8BD74
:10043000002D03D06846007837DFF7E784F3108893
:10044000F4E742090C4950000B5A0020064603E02D
:1004500017187F00CE53401C9842F9DB002D03D0C3
:100460006846007837DF01E084F310880020F8BD8B
:100470001C280020F82C0020F83C0020F8B50600CD
:1004800050D00024FFF7D4FE050002D0684636DFC6
:1004900004E0EFF31084012080F31088224F3878B5
:1004A00000280AD1012109032048FCF790FE802191
:1004B0001F48FCF78CFE01203870761E002271095F
:1004C0001B4B1046491C46009E5B002E01D00022AB
:1004D0001DE0521C8A421AD1421A944600208EB264
:1004E000521C03E017187F00DE53401C8842F9DBE2
:1004F00060460E49400146182036002D03D068465C
:10050000007837DF01E084F310883046F8BD401CE6
:100510008028D8DB002D03D06846007837DF01E063
:1005200084F310880020F8BD1C280020F82C00203F
:10053000F83C002000248AB0464B032205212046C7
:100540000094FDF749FC002803D000221146FDF776
:10055000B1FB414A41490320FEF752F9002803D07C
:1005600000221146FDF7A6FB69460020FEF702F8BF
:10057000002803D000221146FDF79CFB6846007856
:10058000022864D000216846354A017107CA06ABCB
:1005900007C36846848433480290012003903248A0
:1005A0000490FF200130059009A8009003232F4AF2
:1005B00002A906A8FDF7D8FC002803D000221146A6
:1005C000FDF778FB2AA0FCF7F1FF00F0E3FBFDF755
:1005D0009DFF68460079FEF7A9FEFDF77FFE002823
:1005E00003D000221146FDF765FB294800906946BB
:1005F0002848FDF741FF002803D000221146FDF7EF
:1006000059FB25480090234869460C30FDF7F0FD62
:10061000002803D000221146FDF74CFB1420FFF701
:100620002DFF104C241FA060FFF70AFD002802DAFE
:10063000A068FFF7D7FE00F027FF48DF002803D0AF
:1006400000221146FDF736FB00F026FCF5E70121FC
:1006500099E700006C2A00201DE70100CD0C000086
:10066000FC1C0200102800206C290020411C020004
:100670004865617274207261746520636F6C6C658B
:1006800063746F72206578616D706C650D0A00008F
:1006900095FF0100D02C002019E1010010B504489D
:1006A0000822416891434160007800F0B7FF10BD17
:1006B000AC280020002070470020704700207047C1
:1006C0008207D30EFF229A408907090E10B5994080
:1006D00000280BDA03071B0F083B9C080C4BA400F7
:1006E000E318DC6994430C43DC6107E08408094BA0
:1006F000A400E418236893430B432360C106C90E8A
:1007000001208840044908600449086010BD0000C9
:1007100000ED00E000E400E080E200E000E100E045
:10072000F3B581B00F46019800F024FC01240028A5
:100730001E4E019817D0FEF701FA8019403000795B
:100740008009032802D0012806D007E01848006974
:1007500001998C40204201D1022100E0032101983F
:1007600000F000F9FEBD00F011FC0028FAD001985D
:10077000FEF7E4F905468100C81D0E4AF9308918D4
:100780000A6980B222430A610B49401800210160C6
:10079000002FE7D00198FEF7D1F9800030580028EB
:1007A000E0D00648AC404460FEBD0000004100209F
:1007B00000050050006500400060004000630040FC
:1007C000F8B5204F0D460446381928214156002619
:1007D000C8171346401C01D0082630E0EA781946B5
:1007E0002046FEF787F9411C28D0174BAA78A100B4
:1007F000C918002A03D00A6802239A4301E06A78E4
:1008000092000A60E978002910D082000F48297808
:10081000101802690E4B1A400261E206D20C8907D9
:10082000890B0A4301690A43026108E03818403025
:100830002A78017992011143017100E004263046C3
:10084000F8BD000000410020000700500065004096
:10085000FFE0FCFF03490969C140C807C00F00D091
:10086000012070470005005070B5124DA87B00288C
:1008700001D0082070BD0F4900204039421E0B18DE
:100880002033401CC0B21A722028F8D3002420461E
:10089000FEF722F9641CE4B20A2CF8D301210620E9
:1008A000FFF70EFF01200449C00748600120A8732C
:1008B000002070BD40410020006300400248807B62
:1008C000002800D00120704740410020F8B50446C0
:1008D0001F480D4600192030082141560026491CAA
:1008E00001D008262FE0A97800291DD0012200217F
:1008F0002046FEF7FFF8411C14D0830015482A78E3
:10090000181869780369144F3B4003610369E706CF
:10091000FF0C9207920BC907C90A3B430A431343D2
:10092000036104E004260EE00121C94301720B4A71
:100930000320A100891808606A780120A0400849B6
:10094000012A02D0C8603046F8BD8860FBE700008D
:100950000041002000650040FFE0ECFF0007005070
:1009600000050050820006481018026803231B048B
:100970009A430260026809040A430260704700005B
:1009800000070050034940180068012800D00020EB
:1009900070470000006000407FB5041D00881928E2
:1009A00052D01B280BD01D2808D12088A11C75DF30
:1009B000002803D000221146FDF77CF97FBD2046B8
:1009C0000B300290A07A6946C00888816A4602A965
:1009D0000220FDF7DFF8002806D06A4602A90320AE
:1009E000FDF7D8F80028E9D1694689880020194D1B
:1009F0004B0826E04200009E511C715CB25C09026B
:100A00000A43AA421CD187DF134D0023A8681A4667
:100A100006690121B0470020FDF7E4FE002803D05D
:100A200000221146FDF746F90C48FD2201781140DD
:100A3000017001460A4AA01C88DF0020A8707FBD13
:100A4000401C8342D6D87FBDA0780228FBD100F09D
:100A50001BFD7FBDE0FF00000C280020E82C0020DB
:100A6000F41C0200F0B507460446603738782E22A1
:100A70005043061920464A88403089B00090002A29
:100A80003BD108310591357908782818032800D919
:100A9000032030710020079014E007980A21484392
:100AA00005990A2241180C20684380190890801D7E
:100AB000891CFCF765FB0898002101820798401CFF
:100AC0006D1C07903079A842E7D80C204543A8193F
:100AD000418838782E2250430019808D81420CD2F3
:100AE0003079032809D00099C8772046FEF72EF800
:100AF00001000FD00020787009E000980025C5772C
:100B000001A92046FEF7B4FA010005D07D70204609
:100B1000FEF782FC09B0F0BD684600790028F9D0E4
:100B200001212046FEF742FC204600F051F8F1E793
:100B3000FEB50446603001900D4600782E214843F2
:100B4000224603194032D07F0C267043C018801D06
:100B50008446294668880831002812D11B4E0D882A
:100B60000DE0062747437F18BF88B74206D1062508
:100B70006843401841886046418102E0401C85423C
:100B8000EFD8002568460570D07F1979401C88424F
:100B900003D101206946087010E0D07769462046ED
:100BA000FEF766FA010005D0019845702046FEF771
:100BB00033FCFEBD684600780028FAD001212046AB
:100BC000FEF7F4FB204600F003F8FEBD022900000A
:100BD00070B514490446C8682546401CC860896839
:100BE0000026603588421BD220464030C6772978DF
:100BF0002E22491CC9B24A4329700B4B1219C90055
:100C0000C9180B881380498851801671808B012187
:100C100090DF010003D06E702046FEF7FDFB70BD33
:100C20006E7070BD78280020A43E002010B51D4ACB
:100C30001D490300FCF7DEFC05040B3120271200E0
:100C4000487801281FD0022808D1032005E0487801
:100C5000002804D0032801D10220487010BD134B96
:100C600004201860124B012018609368D2689A42E1
:100C7000F3D0FCF71BFF10BD4878012806D00228EE
:100C800004D00328F7D1FCF749FF10BD9068D16864
:100C90008142EED1FCF730FF10BD48780128E8D042
:100CA00010BD0000F0400020A428002000250040D6
:100CB00000200040F0B5164685B004460A461D46A1
:100CC00013A102A8FCF782FC0020049020681149BF
:100CD000C46802AB04AA0968A047002803D000201A
:100CE000C04305B0F0BD0024012704993A46488A64
:100CF000A240104307D00B8A0422E0B211460096AE
:100D0000019500F027FC641C022CEED30020E8E7DC
:100D10002564000024280020F0B585B00E46044666
:100D2000154614A102A8FCF751FC00200190206890
:100D30001149C76802AB01AA0968B847002811D059
:100D40001420FFF79BFB14210190FCF740FA02A846
:100D500000902068022384680749019AA047002078
:100D600005B0F0BD019801220582418AB2401143CD
:100D70004182F4E72564000024280020014800781F
:100D8000704700002C280020014880687047000050
:100D90002C280020F8B5134A01211348FCF7F6FF70
:100DA000114D00220C3D1149E868FDF76FF8104E17
:100DB0000C2130884843FFF761FB00240D4FA860E9
:100DC0000BE02C700C21AA68614300208918886010
:100DD000A00038588047641CE4B230888442F0D3C5
:100DE000F8BD0000D118020038280020CD0C00000A
:100DF00000280020EC1C0200F8B50F4606991D469D
:100E000014000FD000290DD01046FCF706FA257209
:100E100000200546E060FFF70BFA060005D06846A3
:100E200036DF07E00020C043F8BDEFF31085012056
:100E300080F310883868002802D13C6004E008463E
:100E4000C1680029FBD1C460002E03D06846007839
:100E500037DF01E085F310880020F8BD0020096825
:100E6000C043002A02D0002900D10020704770B58D
:100E70001E4615460C0001D1481E70BD2146304665
:100E8000FCF7B0F9002804D0E468002CF6D100206B
:100E900070BD2C60FBE7000030B40C4A0C4993682D
:100EA000098800200C2444431C5B002C03D1401C07
:100EB000C0B28842F6D3884205D21070054980003E
:100EC000085830BC004730BC704700002C28002078
:100ED00000280020E41C020038B514460A4A1268B3
:100EE00008E05578854204D195788D4201D10020E3
:100EF00038BD5269002AF4D100930A4623460121E5
:100F0000FCF71CFE38BD00002028002070B5044608
:100F100018200C4960434518284611300621FCF77B
:100F200056F900262E606E60AE60FF21EE602974D7
:100F3000E975204600F090FE0249A0001C390E50D1
:100F400070BD0000E03F002070B50024074D084E42
:100F500005E0382060438019416B8847641CA8680D
:100F60008442F6D30020686070BD0000782800201D
:100F7000B43E00200449081828214156042901DB09
:100F800001207047002070470041002004490818E4
:100F900028214156042901D20120704700207047C2
:100FA0000041002007490979490701D4082070470A
:100FB000002804D0044949780160002070470E20C1
:100FC00070470000AC2800205041002030B5124B83
:100FD0001B795B0701D4082030BD002805D0002A0A
:100FE00003D00468002C10D101E00E2030BD0B4B63
:100FF0001D68002D09D045681889414369185D892D
:10100000454358682818884201D8072030BD14602D
:101010000020516030BD0000AC2800201C420020A0
:10102000FEB5054625480E460079400701D4082044
:10103000FEBD002D03D02868002834D101E00E2029
:10104000FEBD1F4C216800292DD0608921894843AD
:10105000616841186868814225D9FFF7EFF80028D8
:101060000FD06868019029680C2251430F197968E4
:101070000091401A39890C46FCF758F8002912D122
:1010800001E01020FEBD21463046FCF74FF8002954
:1010900009D1002E07D0788944430198811900981E
:1010A0000019814201D90720FEBD002002460090B0
:1010B000334629460320FDF725FEFEBDAC2800205F
:1010C0001C42002010B507484469601C06D000F09F
:1010D0000BF801462046FCF729F810BD0120000757
:1010E000406910BD0010001001200007006980B2A7
:1010F0007047000070B500240F4825460470447006
:101100002846FDF7EFFD6D1C0A2DF9D30B4D6C80C1
:10111000FFF7D8FF861EFFF7E7FF46430648AE609D
:10112000CC306C610460048144812C70AC6104207B
:10113000EC616860002070BD50410020AC280020A8
:10114000FFB5274881B000791F4616460D46400777
:1011500002D4082005B0F0BD002D06D0019800286B
:1011600003D02868002815D101E00E20F2E71D4CBD
:10117000206800280ED0618920896268414389185F
:101180006A68914206D9002E04D0B04202D3F11908
:10119000814201D90720DDE70198FFF74FF80028C9
:1011A0001BD03846FFF74AF8002816D06868FFF7CA
:1011B00045F8002811D068683246C1190198FBF73C
:1011C000DFFF009628680C214843245800220221A2
:1011D0002846019BA0470020BCE71020BAE700008A
:1011E000AC2800201C420020F8B52A4D044628797E
:1011F0000E46400701D40820F8BD002C20D0002E58
:101200001ED0206800281BD0FFF76EFF0146A08883
:10121000814213D3102811D3E08800280ED0FFF7A5
:1012200051FF471EFFF760FF4743E288A088A96887
:1012300042435218974201D3800703D00720F8BDDC
:101240000E20F8BD6888012821D003C60C22124B5D
:101250005043C218516021681950A0881081E0885D
:101260005081FFF741FF0146A088E2885043401EAD
:10127000FBF772FF441CFFF737FF0146A868614384
:101280000818A8606888401C68800020F8BD042009
:10129000F8BD0000AC2800201C420020F8B5044630
:1012A00020481E46007915460F46400701D4082005
:1012B000F8BD002F05D0002C03D02068002815D1E0
:1012C00001E00E20F8BD1848016800290ED04289BF
:1012D000018940684A4310186268904206D9002D7F
:1012E00004D0A94202D3A819884201D90720F8BD29
:1012F0003846FEF7A3FF002811D03046FEF79EFFC8
:1013000000280CD06068FEF799FF002807D02B4614
:101310003A46214601200096FDF7F4FCF8BD102066
:10132000F8BD0000AC2800201C42002010B5114977
:1013300002460878002811D004280FD0022A16D0BF
:10134000032A0BD10A79120711D48A69521C8A61C7
:10135000032A08D0022802D000F060F910BD4878B6
:1013600000F098FA10BD0D20FCF700FD10BDFEF74F
:101370009FFC10BDAC280020F8B5044620481E464E
:10138000007915460F46400701D40820F8BD002F0C
:1013900005D0002C03D02068002815D101E00E20D4
:1013A000F8BD1848016800290ED0428901894068BB
:1013B0004A4310186268904206D9002D04D0A94211
:1013C00002D3A819884201D90720F8BD3846FEF794
:1013D00035FF002811D03046FEF730FF00280CD032
:1013E0006068FEF72BFF002807D02B463A462146BF
:1013F00004200096FDF786FCF8BD1020F8BD000023
:10140000AC2800201C42002070B50D4B00210B4A77
:101410009B680EE0CC00A518AD788678B54207D160
:10142000145B0588AC4203D1C8008018406870BDC9
:10143000491C9942EED3002070BD0000A43E00205C
:101440007828002070B501240B49600408600B491E
:1014500040108860094940398860094D6C602F2030
:10146000FBF738FEAC60074D00242F206C61FBF7C2
:1014700031FE2C7170BD000080E100E0401301409E
:1014800000100140E828002030B595B004A8FFF70F
:1014900089FD002803D000221146FCF70BFC0498BC
:1014A0002A4D002803D00120E87015B030BD082176
:1014B000684601710024047305A800900DA80290ED
:1014C00022486946401DFEF73FFB002803D000225A
:1014D0001146FCF7EFFB684601791D48A022502316
:1014E000002903D16946097B002905D069780129C3
:1014F00002D1A97800290AD00178FD2549084900C0
:101500002940017002814381446084810BE00178AD
:101510000224490849002143017002814381694640
:1015200041601E2181810A4886DF002803D0002205
:101530001146FCF7BFFB0120FDF754F90028B4D099
:1015400000221146FCF7B6FBAFE700000C28002094
:10155000E82C0020FFB583B014200D9FFEF78EFF0E
:1015600004462D48002501782E4600292ED0002162
:101570000170002F07D03846FEF780FF05463A4637
:101580000C99FBF7FDFD002C41D014212046FBF700
:101590001EFE059820702781E56006986060002097
:1015A0002061FFF7F1FB009003990C204143009864
:1015B0000191425A04980025024300984252FEF7D6
:1015C00037FE070005D002A836DF07E0002007B08D
:1015D000F0BDEFF31085012080F310880099019889
:1015E00041188868002806D18C6008E0761CB6B2E5
:1015F00008461E2E02D801690029F7D10461002F88
:1016000003D06846007A37DF01E085F3108802498D
:1016100001200870DAE700003C28002010B50F49CF
:101620000028087009D0012811D0022812D0032800
:1016300002D14869FEF77CFB10BD00208861C861BB
:10164000074840780028F7D0FDF730FB10BD00F0C8
:10165000D9F810BD00F038F810BD0000AC2800200B
:101660005041002010B508461146C046C04610BD86
:10167000002803D00249C860002070470E20704740
:101680001029002070B5002901D08C0701D0072057
:1016900070BD064C0125A16062800549636010DFC2
:1016A0000028F5D1257016202EDF70BD10290020EE
:1016B00065160200002803D0024908610020704727
:1016C0000E20704710290020F8B5164C14226068CF
:1016D0004008400060601448017851430E18376993
:1016E000FFF702FD01463846FBF720FD0546606125
:1016F000FFF7FAFC0146F0887F1EC019FBF716FDC4
:1017000002228542606801D1104300E0904360608E
:10171000E1681040084303D0002000F0BBF8F8BD9A
:101720000220FAE7AC2800205041002010B5024802
:101730004069FEF7FDFA10BDAC28002010B5FFF798
:10174000C1FC441EFFF7D0FC4443FFF7CDFC044925
:101750004A69521E5043CA682146FEF7EEFA10BD90
:10176000AC280020F8B510481422017851430C1819
:101770002569FFF7B9FC0146E088228980184019E5
:10178000FBF7D4FC0F46FFF79DFC461EFFF7ACFCB1
:101790004643E0882289F1198018044A40191269E9
:1017A000FEF7CBFAF8BD000050410020AC28002025
:1017B00070B5FFF799FC0546FFF784FC441EFFF760
:1017C00093FC60432946FBF7B1FCFEF7B1FA70BD0C
:1017D00070B5FFF789FC8608FFF786FC0749496961
:1017E00048430446FFF76EFC451EFFF77DFC684347
:1017F00032462146FEF7A1FA70BD0000AC28002059
:101800000020704770B514481422017851430C1819
:10181000241DFFF769FC6188104E884211D2FFF742
:1018200063FC61880D1AFFF75FFC8208A188E068FD
:101830004018216940194919FEF77FFAFFF754FC57
:1018400007E0A288E06880188A082169FEF775FA27
:101850006088F06170BD000050410020AC2800207D
:1018600010B505480079000703D4012000F012F8F4
:1018700010BD00F003F810BDAC28002010B50448DE
:101880000822416891434160407800F003F810BDA0
:10189000AC280020024948700249800008580047DF
:1018A000AC280020741D020010B50446FFF73EFD71
:1018B000022C01D0032C07D10448C178002903D0A1
:1018C0000021C170FFF7E0FD10BD00000C280020D2
:1018D00010B503484168491C416000F0FBF810BD99
:1018E0002C28002010B505480079000702D4FDF728
:1018F000CBF910BDFFF7C2FF10BD0000AC280020DF
:1019000010B5FFF73BFAC0B200F066F810BD7047A3
:10191000F8B5FFF733FAC6B20025FFF735FA0C2207
:101920001C497243101808600178490729D5694697
:10193000FEF7AEFAC5B20122174800992C4692056F
:101940000B78012B18D0022B04D0032B14D0042BBE
:1019500012D108E04B680B2B0ED1436817469F430A
:101960008760134007E043680127FF059F438760B6
:101970000127FF053B40C360641E09692404240C51
:10198000DED12A4604213046FDF73CFB304600F00C
:1019900023F8F8BD042800200005005070B5FFF7BB
:1019A000EDF9C5B2002301220B212846FFF794FA76
:1019B0001420FEF763FD074C6060FEF741FB002832
:1019C00002DA6068FEF70EFD60682A46C3680121EE
:1019D000984770BD0428002004490C2289685043B0
:1019E00008184168491C4160704700002C280020FD
:1019F00001200249000508607047000000E200E095
:101A0000F0B5174F2421BC6841430D1939694A1CB0
:101A100009D024224A4316196B687268934204D88D
:101A2000D21A726029623861F0BD0A4602E00A46A5
:101A3000396A9B1B4E1C0BD024264E4337197E68F7
:101A40009E42F4D324264E4336197768FF1A7760F6
:101A50006B60296224214A4311190862F0BD00001D
:101A6000E828002070B5194C2269A5681346114674
:101A700006E0814207D00A46242671434919096AC3
:101A80004E1CF6D170BD002EFCD08A420CD1242011
:101A900043435819006A2061401C05D10C4B0120BA
:101AA0009860002363616071242041434819242316
:101AB00041685A43006A52191062421CE2D0242243
:101AC0005043401942685118416070BDE828002019
:101AD000001001407CB5174800250468002C1CD07C
:101AE0006068401C6060A16888421DD3206900289E
:101AF00000D08047002000900190A37860780222F7
:101B00000421FFF727FD2078002802D0012805D006
:101B10000AE021462846FDF761FA7CBDFEF7B2F9DE
:101B20006060E1684018A06025466469002CD7D148
:101B30007CBD000020280020F8B51D4C2569681CDC
:101B400035D01C48002640686169401A07023F0AE8
:101B500019E024204543A0682A185068B84214D8D8
:101B6000A3693F1A8619156A002B09D0D1699069BB
:101B70009847002807D000221146FCF79BF802E0A6
:101B80009169D0698847681CE3D1A178E0788142E7
:101B900006D1401CC0B2E070022801D10020E070E4
:101BA00003490006800D1C310E50FFF721FFF8BDE0
:101BB000E82800200015014010B50E4C216860682F
:101BC000884210D014210C4A484381188B78002B8E
:101BD0000AD0105A083197DF002804D12079401C20
:101BE0004007400F606010BD105A8988002295DFC1
:101BF000F2E700006C280020043E002010B50E4CD7
:101C000021686068884210D014210C4A484381182A
:101C10008B78002B0AD0105A083197DF002804D1A6
:101C20002079401C4007400F606010BD105A898821
:101C3000002295DFF2E7000088280020243F0020E2
:101C400010B50178022901D0012904D10022406891
:101C50001146FCF72FF810BD01218140024842686F
:101C60008A43426070470000942800201249486867
:101C7000C005C00D19D0103840B2002807DA02079D
:101C8000120F083A920892005118C96904E08108BD
:101C90000A4A8900891809688007C00EC1400806F1
:101CA000800F012803D0032803D0022070470020B2
:101CB000704701207047000000ED00E000E400E004
:101CC00042788378521C934200D1002203789342D9
:101CD00001D1002070470A604168407818225043C3
:101CE0000818704711190200011902009D1902001D
:101CF0000F19020006001800000090010B09080AE5
:101D00000000000000E0D7011100000012000000F8
:101D100013000000140000001100030055E601004C
:101D20001200030055E601001300030055E6010010
:101D30001400030055E60100FFFFFFFFBD0602008F
:101D4000D1FD01005BFD01007DFE0100B90602002E
:101D5000A1FD010057FD010075FE0100B50602005E
:101D600061FD010053FD01006DFE01000001000056
:101D700003000000B1170200D11702002D17020066
:101D8000651702003D17020061180200D9EE01003C
:101D900085EE0100E51802001DFF010003000000B0
:101DA000C01D020000280020240100000ED6010002
:101DB000E41E020024290020042100001ED6010098
:101DC000020000000000000000000000000200000F
:101DD0000000000000000000000000000000000003
:101DE00000000000000000000000000000000000F3
:101DF00000000000000000000000000001000000E2
:101E000000000000000000000000000000000000D2
:101E100000000000000000000000000000000000C2
:101E200000000000000000000024F400000000009A
:101E300000000000000000000000000000000000A2
:101E40000000000000000000000000000000000092
:101E50000000000000000000000000000000000082
:101E60000000000001000000000000000000000071
:101E70000000000000000000000000000000000062
:101E80000000000000000000000000000000000052
:101E90000000000000000000000000000000000042
:101EA0000000000000000000000000000000000032
:101EB0000000000000000000000000000000000022
:101EC0000000000000000000000000000000000012
:101ED0000000000000000000000000000000000002
:041EE00000000000FE
:040000050001D0C165
:00000001FF
