:020000040000FA
:1000000088120020F50000000F010000110100001F
:1000100000000000000000000000000000000000E0
:1000200000000000000000000000000013010000BC
:100030000000000000000000150100001701000092
:10004000190100001901000041040000190100001D
:100050001901000000000000090200001901000061
:100060001901000019010000190100001901000028
:100070001901000019010000190100001901000018
:1000800019010000550300001901000019010000CA
:100090007503000019010000C903000019010000E8
:1000A000190100001901000000000000000000001C
:1000B0000000000000000000000000000000000040
:1000C0000348854600F08EF8004800475D33000085
:1000D00088120020401E00BF00BF00BF00BF00BF4D
:1000E00000BF00BF00BF00BF00BF00BF00BFF1D115
:1000F000704700000321094802680A43026008486B
:1001000002680A4302600748804707480047FEE745
:10011000FEE7FEE7FEE7FEE7FEE7000024050040FD
:1001200054050040ED030000C100000030B50B464F
:10013000014600202022012409E00D46D5409D42C1
:1001400005D31D469540491B254695404019154647
:10015000521E002DF1DC30BD70B50024254600286C
:1001600001DA01244042002901DA01254942FFF762
:10017000DDFFAC4200D04042002C00D0494270BDAF
:1001800003460B439B0703D009E008C9121F08C0B0
:10019000042AFAD203E00B780370401C491C521E5B
:1001A000F9D27047D2B201E00270401C491EFBD266
:1001B00070470022F6E710B513460A460446194672
:1001C000FFF7F0FF204610BD30B50446002003467F
:1001D00000E05B1C934203D2E05CCD5C401BF8D096
:1001E00030BD0000064C0125064E05E0E36807CC53
:1001F0002B430C3C98471034B442F7D3FFF764FF0D
:100200003446000054460000F8B50024FF250135AF
:10021000012627460094284603F09CFA002808D0BF
:1002200034484068304204D0334800212818344311
:1002300001602D1D76007F1CADB2042FEBD3FF2093
:100240007D3003F087FA002807D02C480021016098
:10025000400704432A48006900902A4F200712D023
:100260000126002526420AD02748AA00111808694D
:100270000969C004C00E8903BA58890F90477600F7
:100280006D1C042DEED3002C30DA00241D4E082105
:10029000301940304156491C25D0077ABD06AD0EB5
:1002A000284601F03DFC80003658002E1BD0BF09C7
:1002B0000121A940154AA80080180068009A80030F
:1002C000800F114202D0022802D00CE003280AD18C
:1002D000032F05D102280AD00221284603F02AFA6A
:1002E00039462846B047641C062CCFD3F8BD0321FD
:1002F000F3E7000000630040006000407C610040C4
:10030000000500505409002000650040000700501F
:100310008307FF22DB0E9A408907090E99400028C7
:100320000BDA0007000F0838830808489B001818EC
:10033000C36993430B43C3617047830804489B0020
:100340001B181868904308431860704700ED00E0E0
:1003500000E400E010B506490020086048608860AD
:10036000C860034940390860486003F0D1FF10BD00
:1003700040110140FEB50020C043124D0290686953
:10038000019068462E6902F021FB074602F024FF27
:100390000446002F08D002AA0199009802F07AFCC6
:1003A000029802F063FF06E0029802F05FFF002867
:1003B00001D1002C02D0304601F0DCFC0020687135
:1003C000FEBD0000E400002010B50748406800288A
:1003D00007D08047002803D00022114600F084FA9D
:1003E00010BD02F053FE10BD0801002010B502F050
:1003F0009BFE002805D00E490C484860C8130D49E3
:1004000088610D48018CC9B201290ED1818C090780
:100410000BD1018D0906090F042906D1808D000634
:10042000000F02D105490120886010BDDFFF07C021
:1004300000050040006C0040C00F00F000060040C6
:100440007CB51B4CA0681B4E0025002818D0A56069
:1004500019488069C1B2194800F069FA002805D02E
:1004600001216A4611700190684607E013488168CF
:10047000C068401A012803D1684605707168884732
:10048000E069002803D0E561032003F003FA606A05
:1004900000280BD06562084980390868086002218D
:1004A0006A46117001907168684688477CBD0000FB
:1004B00000210040A0000020002500403409002059
:1004C00030B47446641E2578641CAB4200D21D46CD
:1004D000635D5B00E31830BC184702E008C8121FD8
:1004E00008C1002AFAD170477047002001E001C11D
:1004F000121F002AFBD1704738B50D4C60780228D6
:1005000002D00C490120886069460B4800F0FEF9D2
:10051000002802D000F016F838BD0848802181601C
:100520006A46074B1278DA6102226270416038BD78
:10053000A0000020002000404409002000230040CB
:10054000002500401CB506490120C86005494870D7
:1005500003206A4610704968684688471CBD000041
:1005600000200040A00000200449002048700449F9
:100570000122CA604A60034908607047A000002059
:100580000020004000250040F7B582B00026054657
:10059000167000781446002805D02846039902F00A
:1005A00087FF060008D1A87800281ED02078039F76
:1005B000001D1F2802D90C2005B0F0BD684679DF68
:1005C0000028F9D121780322481C20707A54217820
:1005D0001922481C20707A542078C1196846008876
:1005E00003F0F8FE217840182070E87802230028F4
:1005F00010D02078039A411C21701354207803995D
:10060000471C012227700A542078EA78471C039976
:1006100027700A546868002815D0002141562078B8
:100620008C460246C01C03991F28C4D8501C207059
:100630008B5422780A23501C20708B5420786246F9
:10064000431C23700A542889002809D028460094A6
:10065000062202210830039B03F03AFF0600ABD1CB
:10066000288A002809D02846009407220321103048
:10067000039B03F02DFF06009ED1288B002809D094
:1006800028460094152214211830039B03F020FF04
:10069000060091D1286A002805D02246039901F06E
:1006A000BBFB060088D1686A002805D02246039962
:1006B00002F0CCFE060084D12C20405D002806D03C
:1006C00022462846039903F0CFFB0600C7D13046E7
:1006D00072E710B501220221002001F02BF800285A
:1006E00001D0072812D107220221012001F022F8AF
:1006F000002801D0072809D100210A22084601F06C
:1007000019F8002801D0072800D1002010BD0000F2
:1007100030B597B0302101A8FFF74BFD02216846A4
:100720000171012585710621C17100248482242173
:100730000DA80694FFF73DFD10A805702820119024
:100740001E20129010A805731920C0011490B42027
:100750001590074B0DAA0021009401A800F03AFA69
:10076000002803D00022114600F0BEF817B030BDBB
:100770006937000010B50022114600F0B5F810BD31
:100780001FB5044612211548FFF713FD14480090C9
:100790001220029011480390124801900F486946B8
:1007A000143800F067FC002803D00022114600F046
:1007B0009BF8002C07D000F031FD002803D0002268
:1007C000114600F091F80548143800F035FD002876
:1007D00003D00022114600F087F81FBD0804002056
:1007E0009D3700007507000070B50B4800F02EFC27
:1007F000002803D00022114600F076F8074D0124AE
:100800002C70054800F02CFC002803D00022114673
:1008100000F06AF86C7070BDF40300200000002046
:10082000044842680121C9050B46934383600A408E
:10083000C260704700050050100003D002490969EA
:1008400049680847704700005400002070B5002434
:10085000064D06E06968E000085C012102F094FEA4
:10086000641C28788442F5D3002070BDCC000020A1
:10087000F8B515460C460646052A01D20720F8BDF4
:1008800002F050FF002803D102F022FF0028F6D129
:10089000114900204E600C7008618D6048610F4D59
:1008A0000DE0E00029688019009181786A46517056
:1008B00000780B4A694602F0B7FE0028DFD12046D7
:1008C000641EE4B20028ECD10348064A00210C3033
:1008D00000F064F8F8BD0000CC00002030460000B5
:1008E000A92F0000ED200000BFF34F8F03490248FD
:1008F000C860BFF34F8FFEE70400FA0500ED00E08B
:10090000014B1B6818470000100900208268C3686B
:1009100093420AD0826883881A4003689A5C0A70FE
:100920008168491C816000207047052070478268FB
:10093000C3689B1A8288934208D8C3681340026830
:10094000D154C168491CC160002070470420704721
:1009500038B50C46A2680C235A43064B09789D58BB
:10096000054A126A00920246204608302369A847C9
:1009700038BD0000700A0020A800002010B506490C
:1009800014230A785A435118091DFFF7E1FF042088
:1009900003F0DAFA10BD0000A409002070B5114C74
:1009A000A568002D06D0002A06D0002804D0002318
:1009B000247809E0082070BD072070BD24265E431E
:1009C000AE5D002E04D05B1CA342F7DB042070BD9B
:1009D000242401265C432E5564196170A2610360D2
:1009E000002070BDE4000020FFB59807002481B00E
:1009F0001E4615460F4600280BD1002E09D003F0E5
:100A000011FA22490A9888610F70324600208E60E0
:100A100008E0072005B0F0BD24234343D4549B18BD
:100A20001C75401CB842F7DB24204743BB19032048
:100A300048700F461846CB6019461830002218231C
:100A40002E465E43D3005B181C705C709D7058602E
:100A50003018521C032AF5DB0020C0433861BC70FB
:100A6000FC7001240A482405046003211420FFF7C8
:100A70004FFC08480460084C0198A0600321112035
:100A8000FFF746FC606878610020C3E7E4000020BF
:100A900080E200E000E100E000150140FEB5044600
:100AA0001D48174682680D46002A0CD001788C42FA
:100AB00001D2052D01D20720FEBD21462423594332
:100AC000535C012B01D00820FEBD88184078012816
:100AD0001DD0002603F0C0FCC0000F490190C9687A
:100AE0004018694603F0E2FC002812D00121017091
:100AF0000A49446049680830E2C007490198C9685A
:100B000041180098487003F091FB0020FEBD2E466E
:100B1000E0E70420FEBD0000E400002000150140D5
:100B2000F8B5144D0446A868002809D029788C42ED
:100B300001D30720F8BD24216143405C012801D086
:100B40000820F8BD03F088FCC600E8686946301844
:100B500003F0ACFC00280AD0022101704460E86870
:100B600031180098487003F061FB0020F8BD0420A4
:100B7000F8BD0000E400002070B50C4692B00021E2
:100B80006A46117007251171002809D0C1784907FC
:100B90000CD502A9FFF7F8FC002808D102AE00E04E
:100BA0000026002C0ED0E078002802D0284612B093
:100BB00070BD01AA0AA92046FFF7E6FC0028F6D17D
:100BC0000AAA00E00022684603790178304672DF05
:100BD000EDE7000070B50D4604991646040042D0BA
:100BE000002E40D0424800224271C360016124229D
:100BF00031464048FFF7C4FA00F0D0F83D4934319F
:100C00000846103801602031816030215438FFF7E8
:100C1000D0FA3848217830380170A1788170E178B5
:100C2000C170617841706269216942610161E26865
:100C3000A168C26081600146E369A269CB618A61F3
:100C4000616A002919D00146A4310246B0324162DE
:100C50008A60636A1B880B80616A436A898899800D
:100C60000021436A06E00E2070BD666AB668765CB5
:100C70005654491C9E888E42F7D8A16A00291CD080
:100C80001C4AAC3211460C398A608162A36A9B8887
:100C90008B80A16A836A098819800021836A04E035
:100CA000A66AB668765C5654491C9E888E42F7D870
:100CB0002C210A5D0F4910390A73216A002909D0D5
:100CC0000B4914310162226A52884A80216A026A01
:100CD000098811806168002904D00549891D416097
:100CE00061684160034829463038FFF745FF70BD11
:100CF000340000205804002010B502881A4C102A35
:100D000017D00021112A17D0192A11D18079002873
:100D10000ED1607901281BD002281FD003281FD0D4
:100D2000042805D12171E2680846002A00D09047C6
:100D300010BD8088208110BD617080882189884223
:100D4000F9D1012005E021690029F4D0884710BDC0
:100D5000022000F04BF80028F5D110BD0320F8E781
:100D6000032020710420F4E73400002010B502288D
:100D700001D003280ED1084C207800280AD000208A
:100D80002070607900F032F8002803D02169002932
:100D900000D0884710BD00003400002010B50721A6
:100DA0000148FFF706FA10BD4C00002010B50D48B1
:100DB0000078012814D10C4C6078002810D160799B
:100DC000002802D074DF00280BD101206070607908
:100DD00000F00CF8002803D02169002900D08847D2
:100DE000002010BD5804002034000020F0B5754CE0
:100DF00087B06071002606A8069602F0CFFD012795
:100E0000082806D000286FD10698002802D0277045
:100E1000D4E00696FFF7C2FF6B4D6878002802D039
:100E20006079012805D0A87800280AD060790228C6
:100E300007D1E168002903D0E7700820884700E067
:100E4000E6706079012808D16878002809D05D48EB
:100E5000193002F063FD002803D06079022802D027
:100E60000CE002206071A878002805D055481930A0
:100E700002F054FD002801D103206071287B002876
:100E800004D16079032801D104206071287E0028F4
:100E900004D16079042801D166712671E1680029C6
:100EA0000AD06079032801D0042805D128780028C9
:100EB00002D06078002818D0A67018216846FFF785
:100EC00078F96846067001960672039660790128E3
:100ED0000FD0022816D03C4E24363746543F032804
:100EE0001CD004285ED13BE069E0A770072088474A
:100EF000E3E734481830019068460770468206825E
:100F0000277152E02F4818300190684607702989F0
:100F10004182A98801820220207146E0A88A6946A0
:100F20004882288A08822848243003F035FB0028AC
:100F300005D02878002802D06078002801D003204E
:100F40002FE002206946087204200396F8701E48BC
:100F500000213038FFF710FE002830D1052020E0B6
:100F6000A88B69460882288C48821748243003F0F1
:100F700013FB002805D02878002802D060780028CC
:100F800001D004200DE00220694608720420039677
:100F9000F8700D4800213038FFF7EEFD00280ED123
:100FA000062020716079002803D0684673DF00288E
:100FB00005D1E168002901D020798847002007B0D9
:100FC000F0BD0000340000205804002070B5124C21
:100FD0002278052A01D0082070BD636814225A4384
:100FE0005B1C5B075B0F0D4D63600D4B52195B8AF9
:100FF00053810223D381141D1461002494810124A0
:1010000014720C78147149785171008910809370B2
:1010100003F0BEF9002070BD54000020240500201C
:10102000B007002010B503490089098F002200F0A5
:101030001FFD10BDB007002010B503490089898845
:10104000002200F015FD10BDF007002010B5034987
:101050000089098F012200F00BFD10BDB0070020B0
:1010600010B5034900898988012200F001FD10BDF7
:10107000F00700207CB50A68002A29D002604A687F
:10108000FF24426084720025C5728A68C260C96804
:101090000161691E01810F4E462130610E48FFF744
:1010A00088F80E486946056045600B4804700120C9
:1010B0003070C880FF20ED308880094831460090AC
:1010C0001431684602F09AFD0449A031F1607CBDFC
:1010D00007207CBD54000020B0070020240500201C
:1010E0003908000008B504236A4613705170694638
:1010F000FFF76CFF08BD000010B50A4B14225968B9
:10110000094C4A43491C4907490F596007491219BC
:10111000C98B9180008910800120907003F038F90C
:10112000002010BD5400002024050020B00700203E
:10113000F8B5334D0A882F78FF24324E3B00FFF775
:10114000BFF90816052B464B501B2628102A0ED136
:1011500089880181817AFF290AD046204143E868C5
:10116000462209182748FFF70BF806202870F8BD1B
:10117000347002F0B7FEF8BD172A01D0142A06D148
:101180007188214A9142F3D100F0C0FEF8BD112AC6
:10119000FCD101F0E3FCF8BD302AF8D10C46C98837
:1011A000002902D001F026FFF8BD227C3271E289CD
:1011B0007280A2893146002A07D0628ACA80A28A38
:1011C0000A81B11D00F0B4FCF8BDE188EAE7322ADB
:1011D000DDD101F01BFCF8BD332AD8D101F086FC2B
:1011E000F8BD382A06D0352A07D0372ACFD103F0E8
:1011F000CFF8F8BD01F0E4FCF8BD01F017FDF8BD33
:1012000054000020B0070020111800001278112AA5
:1012100001D0142A01D189788172704710B5054830
:101220000078002805D00348FF21ED31143002F08A
:10123000F5FB10BD5400002010B5FF220023ED3255
:101240000A490B4802F084FC00280DD0074A00210F
:10125000143AD268FF2346244C43491C13550729EE
:10126000F9D3052800D1002010BD0000680000203F
:10127000C405002010B5FF220023ED3202490348C7
:1012800002F016FD10BD0000C4050020680000201B
:1012900008B505236A46137051706946FFF796FE3C
:1012A00008BD000010B50A4B14225968094C4A4386
:1012B000491C4907490F596007491219498D918006
:1012C000008910800120907003F062F8002010BDAA
:1012D0005400002024050020B007002070B505460A
:1012E00001461C220F48FEF74BFF0F4C00262670CC
:1012F0002968002907D00822A018FEF741FF2046E0
:1013000008307ADF02E0084808307BDF002808D187
:10131000401E608004486670044A0021001DFFF7EB
:101320003DFB70BDF807002070000020F543000071
:10133000F8B5224C028800271F4DE689102A16D0E6
:1013400029464968112A21D0122A2DD0502A1CD1B1
:10135000C288801DB24218D1028B022A15D1C27EEA
:10136000837E10021843C007C00F0CD112E08188A1
:10137000698001461048082216311030FEF700FF40
:101380006F70002E01D100F08FFDF8BD0020C0432A
:1013900068806F700846FFF7C3FB0028F5D0A1698D
:1013A0000029F2D08847F8BD811D0348082210307B
:1013B000FEF7E6FEE7E7000070000020F8070020D7
:1013C00010B5044600F0CAFF2046FFF7B1FF2146E2
:1013D0000648FFF7ADFE204600F08CF8204602F0EC
:1013E00025FA2046FFF788FC10BD0000F40300201A
:1013F0001CB5002348221549082002F0D9FD002819
:1014000003D000221146FFF76FFA002000906946D2
:1014100001900870684660DF002803D00022114662
:10142000FFF762FA0A4802F0B9FD002803D0002253
:101430001146FFF759FA074802F0D2FD002803D001
:1014400000221146FFF750FA1CBD00001C010020CD
:10145000C1130000014200001CB5044681786A46B1
:101460000C4802F0AFFA002812D160781C214843E2
:1014700009491C2340181A46694602F069FB0648D0
:1014800006493830807A80000A58214668469047DD
:101490001CBD000098000020D8080020E84500008E
:1014A0007CB5134E00250C463060002918D06946E3
:1014B000002000F0B3F8002819D101A9012000F0A4
:1014C000ADF8002813D1684601790020002901D029
:1014D000022004E069460978002900D00B20207022
:1014E0007068002802D1FFF7F4F8054628467CBD55
:1014F0002800002010B51C4C0188606810290DD010
:1015000011290AD1401E606007D1FFF7E2F80028D8
:1015100003D02168002900D0884710BD00281ED1C3
:1015200000210122084600F005F9002801D0072813
:1015300011D107220221012000F0FCF8002801D07F
:10154000072808D104220221002000F0F3F8002827
:1015500005D0072803D02168002900D0884760689B
:10156000401C606010BD00002800002010B5032062
:1015700000F05AFA002801D0062800D1002010BD42
:10158000F8B507460024224802E0641C042C19D256
:10159000A2008258BA42F8D1042C13D21D4E1E4D1F
:1015A000F069002928D001290DD002290AD1600054
:1015B000201840194578002D04D0F168002901D089
:1015C00028468847F8BD610062182946AD5C51186D
:1015D00000914978002909D071680A2251430D4AC7
:1015E000521CFFF75BFA002800D1777000988178D1
:1015F000084810300155DEE7FFF792FA0548610010
:10160000611810304919005D8D78A842D3D0F8BD1B
:10161000A8450000080000201A04002004280CD26D
:10162000074A1269074B80001B5C012098409043D9
:1016300000D001200870002070470020FAE7000069
:1016400000050050A845000070B5001F0025364A6F
:101650000121364C0300FEF733FF0C0A0909150976
:10166000090709091A32490902F054FC70BD132117
:10167000A08876DF08E00028F8D000221146FFF7A6
:1016800033F970BDFFF792FB0828F4D170BDA08834
:101690009042FBD0207802280AD001280AD021707D
:1016A0002348FFF7D3FC0028F0D00828E5D170BD0F
:1016B000217012E025701E48FFF7B4FCF3E7A08804
:1016C0009042F4D06078022806D0012809D06170D9
:1016D0001748FFF7C5FCE6E76170112000F04EF8EF
:1016E000E1E765701248FFF7A7FCDCE7A0889042AD
:1016F000DDD06078022801D001280BD1FF210C48F1
:10170000FFF7C6FD002805D0082803D000221146A7
:10171000FFF7EAF82078022801D00128C7D1FF217D
:101720000348FFF7DFFCBEE7FFFF000000000020DA
:10173000F403002070B50023042811D244000419DA
:101740000D4D012A02D101290DD000224600801939
:10175000094E801900290CD0012906D0022906D093
:101760000723184670BD0D30C2B22A55F9E7427002
:10177000F7E78270F5E700001A04002010B5054A6B
:101780000146127A0020D20702D0084600F054F831
:1017900010BD00000800002070B50E462049054627
:1017A0004E608D600020CA60A9071ED5002401226A
:1017B00011462046FFF7BEFF641C042C02D200280D
:1017C000F5D012E0002810D1720804211548FFF767
:1017D0004FF8002809D1FFF739F8002805D1104843
:1017E000114A00211C30FFF7D9F8E90706D00F2273
:1017F0000E4952058A600023CB608A6100280DD112
:1018000007480B4A00211430FFF7C8F8002805D11B
:101810000348084A01211830FFF7C0F870BD0000E6
:1018200008000020B8450000651A000000050050BF
:10183000C131000021080000FEB5784906464F6816
:101840004B690093BB00FB18002001220193520555
:101850000546734C3300FEF733FE180D131337495A
:10186000596C828E858E97A1A5A5A5A5A5C3C8CDC7
:10187000D4DADA120B225205A260E5600D70FEBDCB
:1018800005208005A060E56060680F235B05584077
:10189000800209D5A260E560022E02D1E120C000DD
:1018A0000AE07D20400107E0E260A560022E01D140
:1018B000C82001E0FF2091300E706421FEF736FC55
:1018C00078430022014646E005208005A060E560DF
:1018D00060680F235B055840800204D5A260E56074
:1018E00019204001E8E7E260A560E1E705208005F6
:1018F000A060E56060680F235B055840800202D558
:10190000A260E560CDE7E260A560D3E70520800531
:10191000A060E56060680F235B055840800202D537
:10192000A260E56001E0E260A5600E70790000222F
:1019300011E005208005A060E56060680F235B056D
:101940005840800202D5A260E56001E0E260A56037
:101950000E70002239460098FFF7A0F8FEBD05235F
:101960009B0544E06068012189050A468243A26024
:101970000840E06010E061680120800502468A436B
:10198000A2600140E160E4E7616801208005024651
:101990008A43A2600140E1600199C8E70F2149052F
:1019A000E1601BE00F468869FFF7BAF811218A1B36
:1019B0001C4E01D0002802D0A660E560FEBD012AC1
:1019C0000BD91046C82148436421FEF7AFFB796864
:1019D00000224143B869FFF761F8E660A560FEBDEB
:1019E0000F225205A260E56015E007239B05A36066
:1019F000E5600EE00D225205A260E560012292052D
:101A000007E00322D205A260E560921001E00F22F8
:101A10005205E260A5600E70FEBD000008000020C7
:101A20000005005000008000F0B500210B4C0C4D6B
:101A300003273F048A00A2589200561932680123F6
:101A40008B40034000D00323BA431B04134333608D
:101A5000491C0429EED30020F0BD0000A845000079
:101A60000007005010B500780221FFF789FD10BD76
:101A700070B5104D2B78052B01D0082070BD6C6817
:101A800014236343641C0C4E6407640F9B196C6041
:101A900059810221D9811C1D1C6100249C810124D3
:101AA0001C721A71120A5A711880997002F070FC37
:101AB000002070BD54000020240500200022D243E5
:101AC000830004490428CA5002D308184030027128
:101AD0007047000054090020F0B50025ED43002AAE
:101AE00002D00023042601E004230A260B4C04E064
:101AF0009F00E7597F1C04D05B1CB342F8D32846F3
:101B0000F0BD26185DB2203635729E00A151002A24
:101B1000F5D1E11840310871F1E7000054090020C7
:101B2000024909182820085670470000540900206F
:101B300010B50446008992DF010003D0204601F071
:101B400059FA10BD01490320087010BD540000204F
:101B50008A7882700A8802800A790271CA88C280F3
:101B600009890181FF21418170470000F8B53E4895
:101B70001422017851430C18E0680C2148433A497B
:101B80002769CC314018058941890091241D466898
:101B900001F0AAFF01463846FEF7C8FA002932D004
:101BA00000200099A2884D436188AE198918CD198B
:101BB00000222E4900280A6109D001F095FF6188B2
:101BC000884222D0B54202D1A08800281DD0A0684A
:101BD00003281AD001F088FFA188CA1901461046CF
:101BE000FEF7A4FA214C8808E06001F07DFF014671
:101BF0002846FEF79BFA002911D00020B5422FD0CD
:101C000000280ED02CE00120CBE701F06DFF01464B
:101C10003846FEF78BFA15494861032021E0012080
:101C2000ECE7ADB2B7B201F05FFF01463846FEF710
:101C30007DFA064601F058FF01462846FEF776FA7F
:101C4000864201D1781B09E001F04EFF064601F003
:101C50004BFF01462846FEF769FA701A800820619A
:101C6000022002F071F9F8BDA4090020A8000020AC
:101C700010B5074814220178514308180079042848
:101C800002D000F059F810BD012002F05DF910BD3E
:101C9000A409002010B50B481422017851430818FC
:101CA000094AC18811620079012806D0032801D0B1
:101CB000042801D1FFF75AFF10BD012002F044F9BA
:101CC00010BD0000A4090020A800002014225043E9
:101CD000054A002180180171C18002220161C260A1
:101CE0004161018170470000A4090020F8B5104C43
:101CF000069E65780A2D19D027787D190A2D00D304
:101D00000A3D14277D432D1928716A6103C9296191
:101D1000E860EB802E816078401C60700548007898
:101D2000002801D1FFF7B6FF0020F8BD0420F8BD60
:101D3000A4090020A800002010B50D4C1421207823
:101D4000484301190020091DFEF702FE2078FFF725
:101D5000BDFF6078401E60702078401CC0B22070CB
:101D60000A2801D100202070002002F0EDF810BDFB
:101D7000A4090020F8B5224801694A1C3DD024225C
:101D80005143826889184E681E494C68476900793A
:101D9000E11B0D022D0AED1C002814D101201A4A66
:101DA00000045060184A403A5060184940000860EA
:101DB000174908601749012008602F20FEF78AF9AB
:101DC0000F4901200871B54200D23546E8190002DA
:101DD0000C49000A403108600A494968001B091B88
:101DE0000902090A0002000AC91C814204D9012023
:101DF0000649400480390860F8BD02F013F8F8BDC8
:101E0000E4000020001501404013014080E200E0A2
:101E100000E100E000100140F8B50D4611780646DB
:101E2000881D14461F2801D90C20F8BD33880720CF
:101E3000062BFAD31927FF01BB4202D9164A934257
:101E4000F3D17288062AF0D3BA4202D9124FBA42AD
:101E5000EBD1114FBB4203D0BA4201D09342E4D838
:101E6000481C052220706A5420781222411C2170DF
:101E70002A5420784119308802F0ACFA21784018B1
:101E8000C0B220704119708802F0A4FA217840187D
:101E900020700020F8BD0000FFFF000010B50022F8
:101EA0001146FEF721FD10BDF8B5164801F02EF9D8
:101EB000144D0026103D144C002807D061690029FC
:101EC0001BD001206A461070684615E0287800286B
:101ED00005D06169002910D0684606700CE068786A
:101EE00000280CD0A16800226868FEF7D7FD002802
:101EF00003D0A169002900D088472E70F8BD616821
:101F0000F1E7000080000020F807002010B504462B
:101F1000164986B00520087015480178FF2901D1BF
:101F2000FE210170A17AFF291ED00078F0281BD273
:101F3000FF212046FFF7D6F8002803D0616800296A
:101F400000D08847FF212046FFF7A2F9002803D0E0
:101F50006168002900D0884702206946087021681E
:101F60006846884706B010BD0020F6E75400002000
:101F7000B007002070B5094B04469E7A0820002562
:101F80000E4207D00648844202D01889A04202D1EE
:101F90000020156070BD052070BD00000409002000
:101FA000FFFF00000C214843064910B501224018EC
:101FB0008272911E0181FF21C1720721FEF7F9F89B
:101FC00010BD00000409002038B54388124C0321DD
:101FD0000422A34203D1037A1C07012006E00E4C21
:101FE000641EA34217D1037A1C070020002C03DAD9
:101FF0006A461070517004E0D9060CD56946087025
:102000004A7069460548FEF7E1FF002803D0002228
:102010001146FEF769FC38BD482A0000F403002091
:1020200010B5134C207900071FD46069401C606113
:10203000E068002801D0042004E001F099F80028AD
:1020400003D0022002F0D2F810BD2069002809D088
:102050006068C10701D00320F4E7012108436060F4
:102060000020EFE7FFF704FE10BD02F0B3F810BD4B
:10207000A800002010B5084841680A0708D48A075C
:1020800002D5012211434160022002F0AFF810BDD9
:1020900002F0A0F810BD0000A800002038B50446EA
:1020A0001048018FFF2904D040308188FF2908D0D3
:1020B00014E0C08E6946401C08804880208993DF68
:1020C00006E040886946401C08804880208993DFEC
:1020D000010003D0204600F08DFF38BD02490420E6
:1020E000087038BDB007002054000020F8B5002665
:1020F0000124154D23E06968F0004718387821461F
:102100006A698140114218D08A436A6101F0D6FAA7
:102110003A7821462B6991401940034693409942F1
:102120000BD17978012901D0012100E000217B68E1
:102130004140002B01D010469847761CF6B2287813
:102140008642D8D3F8BD0000CC000020FEB50E4674
:10215000044681786A46234801F034FC002827D1E0
:1021600060780C21204F4843C019807A400620D463
:10217000022E1ED0012E1ED01C4DA0781C214843DB
:1021800019490023F03941181C226846A847002845
:1021900013D0022E0CD020780C21484312490C3168
:1021A0004018807A124980000A58214668469047B4
:1021B000FEBD104DE1E7104DDFE7022EF8D060784C
:1021C0000C214843C019817ABF2211408172607886
:1021D0001C21484304492C3941181C231A466846DF
:1021E000A847D8E798000020040900202D410000EE
:1021F000D8450000913D0000B13C000070B5054697
:10220000114A124800241C2363431B189B7EFF2B9A
:1022100004D0641C072CF6D3104670BD0A78022A3D
:1022200009D01C2262431018FD228276072210304A
:10223000FDF7A6FF04E01C2161430818FE2181760A
:102240002C700022E8E70000438000001408002002
:10225000F7B505250F4F06460024002E0AD01C2096
:102260006043C019072231461030FDF7ADFF00284A
:1022700007D00AE01C206043C019018B02988142FC
:1022800003D101980025046002E0641C072CE4D30C
:102290002846FEBD140800207CB5054681B26A467A
:1022A000074801F08FFB040008D14C21684601F07B
:1022B000B5FB040002D1284601F03CFB20467CBD62
:1022C0009800002070B505460C46100003D000228F
:1022D0001146FEF709FB224629460248FEF796FF03
:1022E000002070BDF40300201FB56946087301F09B
:1022F00001FC002803D000221146FEF7F5FA03A8DE
:1023000000F018FA002803D000221146FEF7ECFA7C
:1023100001A805210130FDF74CFF694648790122EB
:102320001043E1210840DF210C3008406946487124
:10233000072088711020C871064800900A7106486D
:1023400000F00AFB002803D000221146FEF7CCFA69
:102350001FBD0000C522000002000020F0B50546A8
:1023600093B000200090FF24E7480E9400780028E6
:102370004CD0E64F3868002848D001A800F0CCF9CE
:10238000002803D000221146FEF7AEFA281D059062
:102390002A2168460183FF21002681710671039678
:1023A000DA4C28880C3C10280ED0A88803AA0221F9
:1023B000FFF7E0FD002807D103980C2141430919DC
:1023C000CA7A69468A714871298813201623172909
:1023D0007ED00FDC10291BD0112953D0132978D0BF
:1023E000142913D103980C2148430019C07AFF28FF
:1023F00070D09FE0C64A18296DD01C2963D052299D
:1024000004D1B87A8000115801A8884713B0F0BDF4
:10241000C04F03AA01213846FFF7ACFD0028F5D1D3
:1024200003990C20484302220019827211236A4644
:1024300013745171A98801810722A91DFDF7A0FE1F
:10244000287DC10707D04108AF480830405CFF280D
:1024500008D00E9006E03A460EA9A81DFFF7F8FE38
:10246000002832D103990C22514309190E98C872E1
:102470008A7A08231A438A726946887101A8FEF78E
:10248000EBFF22E003980C2148430119887AFD22D2
:1024900010408872010706D5C0090DD0002101A89F
:1024A000FFF754FE08E068468079FF2804D001F069
:1024B00041FAFF206946887103980C22504310218D
:1024C00000198172122069460874324604A903E09B
:1024D0008BE041E011E0E5E001A8FEF711FA684663
:1024E000007C122892D103980C2141430919897A62
:1024F00001298BD0FFF756FD88E7EA890EA9002055
:10250000FFF7A6FE00280ED103980C2250430019B5
:102510000E99C172827A08231A43827268468171C9
:1025200001A8FEF799FF03980C2148430019C07ACF
:10253000FF2806D003981C214843744938394018B5
:10254000009003981C2148437049FC394218A88820
:102550000023009982DF59E76946087403980C212B
:10256000844648430119887A042210438872CA7A43
:10257000FF2A2AD06A46137462461301634A1C3A42
:102580009B1800229A60DA604022104388720399F7
:102590000C2200204A430A901219D27A1C235A4373
:1025A0005A4B0C90FC3BD2180B921C2251431A46FA
:1025B000C43289180791089009903A1DA88807AB82
:1025C00000217FDF002897D17FE70EA8FFF716FED6
:1025D000002801D00646DAE769460E98887103990B
:1025E0000C2251430919C872D1E7787A0C214008AE
:1025F0004000787203986F460246484301198446AA
:102600008B7AFB2003408B7214203874A879002841
:1026100004D0C87AFFF740FEAE7956E7E879400764
:10262000D2D5B879FF28CFD008273B438B72EB7AFD
:102630009B0709D51C2503466B43344DFC3D5B19B4
:102640009D7E6D086D009D76CB7AFF2BBCD06346D6
:10265000E35C022B11D01C222C4D5043FC3D401951
:1026600007221030FDF78CFD684680791C21484315
:102670004019817EFD2211400EE01C214A4323496E
:10268000383951184A8A1C2148432049FC394018DE
:102690000283817E490849008176012101A8FFF764
:1026A00055FD12E7A879010901291BD10007000F88
:1026B000012817D103990C2048430519A87A060769
:1026C00010D50A0111491C39521800219160D160BE
:1026D00069460B7460210843A872787A0221084386
:1026E00078720FE003980C2148430019817A802307
:1026F00019438172152069460874B87A8000115810
:1027000001A888470026E0E6880000201009002084
:10271000F8450000FFFF0000002806D0FF210170EF
:1027200041708170C17000207047014870470000FF
:102730000E800000F0B585B0050037D02A4800248F
:102740000460447284722046FFF72CFC2648002661
:102750007C38046644668466FF27C466304601F010
:10276000E9F822488755761C072EF7D34C21684696
:1027700081800721C1801E481C49009008316846AD
:1027800001F03CFA00280FD1184E0120083E3070AD
:10279000287800280CD069468888C988484381B2C7
:1027A0003046103001F03AF905B0F0BD1148FBE7B2
:1027B0000D4F0025FC3F0D48A9B202AA083001F0D8
:1027C00001F9002809D11C206843C01900231C22EC
:1027D00002A901F0BDF9002801D03470E4E76D1CB6
:1027E000072DE8D3E0E7000010090020900000204A
:1027F000F92700000E800000FFB555488FB0006833
:10280000189F1E46002852D04C2F50D86846FFF71C
:1028100083FF002803D000221146FEF765F800244C
:10282000684604700471254605970696A9B20DAA5C
:10283000484801F0C7F8002806D108220DA90F98D2
:10284000FDF7C2FC00281AD06D1C072DEED3684698
:1028500080780790FF282AD010982025032811D0CF
:102860003B481C21FC38301AFDF760FC0127072883
:102870002DD204A80290119800281AD021E06846B1
:102880008570E4E74C2F03D040206946087101E0D1
:10289000684605716946087903210843694608714D
:1028A00004A8029001A96846119AFEF729F813B00E
:1028B000F0BD0799384688402649103949680842D2
:1028C000F5D0079801F08CFD6846057136E0204888
:1028D0001C213838301AFDF729FC002808D01C4884
:1028E0001C38311A09091BD0402069460871DEE7FF
:1028F00004A8029068460571447015480A940C308B
:102900000B9044380790684680781C214843104952
:10291000FC394018089007A80690182005900DE093
:10292000302269460A714C70CF7009490C39897A96
:10293000890703D4046044608460C46010986946C9
:102940000228087901D00221A7E73843A7E7000051
:10295000100900209800002070B5064618480D4662
:10296000007800280ED01749002E0ED0002D0CD074
:102970002868002809D0144C2168002907D0114884
:102980000A3870BD0F48801F70BD084670BD2060BA
:102990000522691D201DFDF7F3FB2879A072207A1E
:1029A0000221400840000843FB2210402072E079D9
:1029B0000123184308431040E0710020307070BDBF
:1029C000880000200E8000001009002010B50E497C
:1029D00000238A78CC78A24212D0521CD2B28A70DC
:1029E000022A00D18B708A78074B92001C339A58C8
:1029F0000260486910180002000A4861012010BDF9
:102A00000360002010BD0000E4000020F0B50E4679
:102A1000C98807460846FF3885B00B3808D009300A
:102A200006D000291CD0384600F0E4FA05B0F0BD0D
:102A30002C48418A002911D0C18B00290ED0418D2C
:102A400000290BD0C08E002808D02648403040888E
:102A5000002803D03846FFF721FBE7E70521E2E72E
:102A60002048002401460A310491303103910C3989
:102A700002910C39163025460191009015E00A208C
:102A800068438419E18918480E3408180300FDF7DB
:102A900017FD0504071A201D0B002146049801E0CC
:102AA00021460398FFF754F86D1CB089A842E6D878
:102AB000002C11D020896946401C088009480089F3
:102AC000488038460BE021460298EBE72146019802
:102AD000E8E721460098E5E702493846891DFFF7F7
:102AE00027F8A3E7B0070020BCD5FFFFF8B5CA88D8
:102AF0001346FF3B0B3B07D0093305D0002A05D016
:102B0000114600F077FAF8BD0521FAE7114A8C89E1
:102B100013464033002C11D0CC89D78E651E0E4E43
:102B2000AF4204D10F8AB74201D1148706E05F8813
:102B3000AF4203D1098AB14200D19C80118FFF2995
:102B400005D09988FF2902D0FFF7E0F9F8BDFFF71B
:102B5000A5FAF8BDB00700200229000070B50446B0
:102B6000154886B006780121144D01702978FE2998
:102B700003D1A17AFF290AD02970C9B2072906D248
:102B80004622C068514308180C49FDF7F9FA46215E
:102B90000A48FDF70EFBFF2000212870C943E072B0
:102BA0002181A072052E05D1032069460870216895
:102BB0006846884706B070BD54000020B00700206A
:102BC00070B586B0044604206A4610700A8A0C313B
:102BD000022A27D3144B0D88DE8E18462030921E11
:102BE000B54204D1057C68460571DB8D08E00E4EC8
:102BF00040367688B54215D1057F684605715B8FF2
:102C000043808B790372CB794372E068904200D2A3
:102C100002460392206908310490FDF7B1FA216859
:102C20006846884706B070BDB007002010B586B072
:102C300005226B461A700A8A0C31002A19D0144AF0
:102C40000B88D48BA34204D1147E6B461C71D28AAC
:102C500008E0548DA3420CD10D4B20331C796B46F8
:102C60001C71528C5A80CA881A818988012904D023
:102C700009E001F08DFB06B010BD597AFD2249082C
:102C8000490011405972016818468847F1E7000071
:102C9000B0070020F7B5144C0025A76823691EE093
:102CA00024215943C9194E68864202D9301A486016
:102CB00017E0801B751900264E600E750E699C4644
:102CC0000B6AB646002E0AD0019E76193602360AE5
:102CD0008E607646CE6016680E6261461160591CA1
:102CE000DED12361FEBD0000E400002010B5002805
:102CF00003D0112802D0FDF741FE10BD0248082282
:102D000041681143416010BDA800002010B51C4C63
:102D1000217820464068012906D0022929D00329BC
:102D200012D1000717D513E0000711D4154814225B
:102D3000017851430818C188A28B891A0904090C2B
:102D4000C18002D001F0F4F910BDFEF7F5FF10BD0F
:102D500000F070FB10BD6069401C606100F008FA73
:102D6000002803D0207801F0EFF810BDFEF780FFB7
:102D700010BD6078044980000858804710BD0000ED
:102D8000A8000020A40900201C46000010B528DF80
:102D9000FFF7ACFF10BD10B529DFFFF7A7FF10BD8F
:102DA0000EB511206946087213220EA102A87CDF1D
:102DB000002803D000221146FDF796FD0020FF21D8
:102DC000913100906A46019011804B0053809080B1
:102DD000D18068467ADF002803D000221146FDF733
:102DE00083FD0EBD4E6F726469635F416C657274E2
:102DF0005F4E6F7469662E00002070470020704798
:102E000000207047F8B5417805460A0126480C2392
:102E1000594396461018244B002442681033C918B1
:102E2000274626469446002A0BD08B7ADA0908D02A
:102E30005A0606D4044660461B4A87B270461658A6
:102E40000834088933463A462146A9DF0B281CD0AE
:102E5000002800D01548012E16D168780C2148436F
:102E60001149134A1031401800890C21A7DF0028AE
:102E70000AD01049884214D0082812D0891C8842F0
:102E80000FD011280DD00020F8BD68780C214843E0
:102E9000054901231031401800893A462146A9DF2F
:102EA000DBE70248F8BD0000F40800204180000084
:102EB000FFFF00000230000070B50C46014660784C
:102EC000084D000140193823102200F041FE00286F
:102ED00006D16178090149194A68521C00D14A603B
:102EE00070BD0000F4080020F3B583B00D46082043
:102EF0006946088168780C2103274843214E3B46E8
:102F00008019008902AA6946AADF002837D16878AB
:102F100034460001103C001969460A890830FDF763
:102F200053F90028687806D0000101194968002982
:102F30000FD0154E0EE00C2141438919897A89077B
:102F40001DD4000100190021016041608160C16051
:102F500015E00E4E275068460289687869460001E0
:102F6000001942606878000100190830FDF708F97F
:102F7000687838230001011910220398B047002017
:102F800005B0F0BD04090020913D0000B13C0000F7
:102F900010B5FFF737FF10BD10B5FFF78DFF10BD5F
:102FA00010B5FFF7A1FF10BD70B50646104C012506
:102FB000B540E068FDF7B4FD00280CD161692942F5
:102FC00007D1304600F07AFB0028206904D028435E
:102FD00003E0A943616170BDA843206160690022DC
:102FE00028436061A168E068FDF758FD70BD0000EE
:102FF000CC00002000B5064B85B007221A700122D4
:103000006B461A70029101686846884705B000BD9A
:103010005400002070B51B4C207900072ED41A48AC
:103020001422017851430D182E6900F05DFD014610
:10303000E8882A89761E80188019FDF777F82169BB
:103040000025002909D06169814206D1E5606068E8
:1030500001210843606000200AE000F089F80028A0
:1030600002D00220E56003E02069002803D003209D
:1030700001F0BCF870BDFEF7FBFD70BD01F0AAF8D1
:1030800070BD0000A8000020A4090020F8B51E4C67
:103090002078002837D02069002807D00026E06873
:1030A000002805D00025002E04D013E00126F6E705
:1030B0000125F8E7684651DF052806D0002806D02C
:1030C00000221146FDF710FC04E0012602E0216910
:1030D00000988847002D12D1608869460880A06852
:1030E00061DF052806D0002806D000221146FDF732
:1030F000FBFB04E0012502E0E168A0688847002EA0
:10310000D8D0002DCFD0F8BD080100204188054857
:103110000288914204D34088814201D8012070473F
:1031200000207047780000201048018CC9B20129A6
:1031300017D1818C090714D1018D09060A0F03D11B
:10314000828D1206120F0ED0090F012903D1828D34
:103150001206120F07D0032903D1808D0006000F3D
:1031600001D000207047012070470000C00F00F020
:1031700070B50E481422017851430C18256900F0EF
:10318000B3FC0146E08822896D1E80184019FCF7C7
:10319000CDFF07494A69824206D3824202D10869BB
:1031A000002801D0002070BD012070BDA4090020BE
:1031B000A8000020800701D0002070470120704740
:1031C00010B50448017AC90702D00078FEF734FB35
:1031D00010BD000008000020F8B5234801690091E7
:1031E000457833E02048E900C0680E1834782AE0BA
:1031F000182060437168641C0818B178E4B2A142D9
:1032000000D100240178022902D003291BD113E048
:10321000154A40682421926841438F18397D00295E
:1032200011D001F03DF8002038750CE024277843D8
:10323000C0180275006A03E00B4900228B68086918
:10324000471CF3D108617078A042D1D128466D1E89
:10325000EDB20028C6D1044801690098814201D02E
:103260000120F8BD0020F8BDE4000020F8B50446B8
:10327000384800270169009146785CE03548F10044
:10328000C2688D1851E0601C07D0324A2420926831
:10329000604321468018046A24E0287818214143BD
:1032A0006A68401CC0B252182870A978884200D1C0
:1032B0002F70284B516824209B684843C01813780E
:1032C000012B34D1037D002B31D193688360D36807
:1032D000C360136903615269C2611E4A5279002AB0
:1032E00000D087601B4B82685B6996469C46D31A68
:1032F0001A02194B120A9A4202D2C368D21808E085
:10330000724663469A1A1202C368120A934202D99D
:103310009A1A426000E0476087600122C760027528
:10332000921E0262084600F089FF601CABD128782B
:1033300069788842A7D13046761EF6B200289DD122
:10334000044801690098814201D00120F8BD0020A5
:10335000F8BD0000E4000020FFFF7F00002488B0DB
:103360000522304B114620460094FDF73DFB002816
:1033700003D000221146FDF7B7FA2B4A2B49032050
:10338000FEF70AFA002803D000221146FDF7ACFA36
:1033900001A90020FEF784F8002803D0002211467E
:1033A000FDF7A2FA68460079022831D0002168466C
:1033B0000170FEF71DF868460078FEF795FFFFF7ED
:1033C000EFFCFDF7A5F968460078FDF7D9F91C2157
:1033D0006846FCF7EEFE0520C00301900F200004B4
:1033E00002900094032168460173C4810121017495
:1033F0000F48069005946846FDF770FF002803D03B
:1034000000221146FDF770FA0320FDF7EFFC02E001
:103410000121CCE748DF0028FCD000221146FDF74F
:1034200063FAF7E76401002049160000CD0C0000A4
:103430009D1E000010B50448082241689143416078
:10344000007800F081FD10BDA800002070B5054691
:1034500000790E46801C1446C0B21178821C8A186E
:103460001F2A01D90C2070BD0A46491C2170401C3E
:10347000B0542078FF22411C2170325420788119E9
:10348000288800F0A7FF21784018C0B22070AA88D1
:10349000002A09D0A968002908D08019FCF770FE1D
:1034A0002078297940182070002070BD072070BD59
:1034B000F8B514780746A01C15460E461F2803D8F9
:1034C0007878801C1F2801D90C20F8BD1D20001B16
:1034D00080B26946864608803019801C7DDF00284E
:1034E000F3D13878022805D168460088704501D8A4
:1034F000092107E078780821002801D0704501D91A
:1035000068460088421C3255641CE2B2B1542978E6
:10351000801C081828700020F8BD0020704700208B
:1035200070470020704700008207D30EFF229A40A8
:103530008907090E10B5994000280BDA03071B0F05
:10354000083B9C080C4BA400E318DC6994430C4333
:10355000DC6107E08408094BA400E4182368934366
:103560000B432360C106C90E01208840044908604E
:103570000449086010BD000000ED00E000E400E038
:1035800080E200E000E100E0F3B581B00F46019871
:1035900000F0ECF9012400281E4E019817D0FEF728
:1035A000BFFA8019403000798009032802D0012831
:1035B00006D007E01848006901998C40204201D1EB
:1035C000022100E00321019800F0B4F8FEBD00F0F4
:1035D000D9F90028FAD00198FEF7A2FA0546810031
:1035E000C81D0E4AF93089180A6980B222430A615F
:1035F0000B49401800210160002FE7D00198FEF729
:103600008FFA800030580028E0D00648AC40446073
:10361000FEBD000054090020000500500065004078
:103620000060004000630040F8B5204F0D4604469E
:103630003819282141560026C8171346401C01D0CE
:10364000082630E0EA7819462046FEF745FA411C84
:1036500028D0174BAA78A100C918002A03D00A68FD
:1036600002239A4301E06A7892000A60E97800290F
:1036700010D082000F482978101802690E4B1A40AA
:103680000261E206D20C8907890B0A4301690A43E9
:10369000026108E0381840302A780179920111431C
:1036A000017100E004263046F8BD000054090020F6
:1036B0000007005000650040FFE0FCFF0349096976
:1036C000C140C807C00F00D001207047000500505E
:1036D00070B5124DA87B002801D0082070BD0F499D
:1036E00000204039421E0B182033401CC0B21A7211
:1036F0002028F8D300242046FEF7E0F9641CE4B249
:103700000A2CF8D301210620FFF70EFF01200449FF
:10371000C00748600120A873002070BD94090020F4
:10372000006300400248807B002800D001207047E1
:1037300094090020820006481018026803231B0425
:103740009A430260026809040A430260704700005D
:1037500000070050034940180068012800D00020ED
:10376000704700000060004010B5002813D0012809
:1037700004D0032809D0042806D107E0052005E07D
:1037800000221146FDF7B0F810BD0220FDF7F6FF4C
:103790000028F5D110BD00F0BDFB10BD70B501785B
:1037A000204C0B00FCF78CFE0629162931042E163E
:1037B00040881D49022588420DD16078012809D131
:1037C0000E20FDF7DBFF002803D000221146FDF795
:1037D0008BF8657070BD1449491C8842FAD1207875
:1037E0000128F7D10D20FDF7C9FF002803D00022E2
:1037F0001146FDF779F8257070BD00F0C7FCFCF7A5
:10380000F3FF70BDFEF7E0FB70BD0020207060701C
:10381000FDF7B4FF0028F7D000221146FDF764F849
:1038200070BD000000000020452A000070B505466C
:103830000088174C10280FD0112819D0392801D032
:10384000552808D11321A08876DF002803D0002254
:103850001146FDF749F870BD0720FDF78FFF0028DE
:1038600003D000221146FDF73FF8A888A08070BD64
:103870000020FDF783FF002803D000221146FDF74A
:1038800033F80020C043A080FDF7F4FCDDE7000022
:103890000000002010B51D4A1D490300FCF710FE72
:1038A00005040B3120271200487801281FD0022878
:1038B00008D1032005E04878002804D0032801D16E
:1038C0000220487010BD134B04201860124B0120D9
:1038D00018609368D2689A42F3D0FCF70DFE10BDD1
:1038E0004878012806D0022804D00328F7D1FCF735
:1038F0003BFE10BD9068D1688142EED1FCF722FEFC
:1039000010BD48780128E8D010BD0000440900200F
:10391000A000002000250040002000400021425C63
:10392000002A01D001207047491C0629F7D3002046
:103930007047000070B505461C200B4968434418C9
:10394000204611300621FCF734FC20461021FCF7FC
:1039500030FCFF2121740020A176C043208328463B
:1039600000F03EFD70BD0000140800200449081856
:1039700028214156042901DB0120704700207047AF
:10398000540900200449081828214156042901D26D
:103990000120704700207047540900200749097929
:1039A000490701D408207047002804D00449497809
:1039B0000160002070470E2070470000A800002022
:1039C000A409002070B5134B1B795B0701D40820B4
:1039D00070BD002817D0002A15D00368022B10D222
:1039E0000C240D4D5C432E59002E0AD046686019F8
:1039F00004894589406861436543711828188842E5
:103A000003D8072070BD0E2070BD136000205160E8
:103A100070BD0000A8000020700A0020FEB504461A
:103A200026480E460079400701D40820FEBD002C30
:103A300025D02068022836D20C21214D4843295830
:103A4000002930D040194189028940685143091842
:103A50006068814227D9FFF7ADFB002811D060686C
:103A6000019021680C2251434F1979680091401A46
:103A700039890D46FCF75AFB002914D103E00E20CA
:103A8000FEBD1020FEBD29463046FCF74FFB002945
:103A900009D1002E07D0788900994543019849192A
:103AA0008019884201D90720FEBD002002460090FF
:103AB000334621460320FEF719F9FEBDA800002079
:103AC000700A002010B507484469601C06D000F059
:103AD0000BF801462046FCF729FB10BD012000072A
:103AE000406910BD0010001001200007006980B27D
:103AF0007047000070B500241348254604704470D8
:103B00002846FEF7E3F86D1C0A2DF9D30F4D6C80A3
:103B1000FFF7D8FFC61EFFF7E7FF46430A4A00201B
:103B2000AE60CC326C610C214143545089180C8139
:103B3000401C4C810228F6D32C70AC610420EC614F
:103B40006860002070BD0000A4090020A8000020CB
:103B5000FFB5284881B000791F4616460C4640073D
:103B600002D4082005B0F0BD002C1DD0019800281B
:103B70001AD02068022815D20C211F4D484329581D
:103B800000290FD041194A890889496842435118D0
:103B90006268914206D9002E04D0B04202D3F119D6
:103BA000814203D90720DDE70E20DBE70198FFF70C
:103BB00001FB00281BD03846FFF7FCFA002816D07E
:103BC0006068FFF7F7FA002811D060683246C11923
:103BD0000198FCF7D5FA009620680C2148432D582F
:103BE000002202212046019BA8470020BAE71020AE
:103BF000B8E70000A8000020700A0020F8B52A4DA0
:103C0000044628790E46400701D40820F8BD002C50
:103C100020D0002E1ED0206800281BD0FFF764FFA4
:103C20000146A088814213D3102811D3E0880028D0
:103C30000ED0FFF747FF471EFFF756FF4743E288C6
:103C4000A088A96842435218974201D3800703D045
:103C50000720F8BD0E20F8BD6888022821D003C6D1
:103C60000C22124B5043C218516021681950A08891
:103C70001081E0885081FFF737FF0146A088E28875
:103C80005043401EFCF768FA441CFFF72DFF014625
:103C9000A86861430818A8606888401C68800020F4
:103CA000F8BD0420F8BD0000A8000020700A002024
:103CB000F8B5044621481E46007915460F464007D0
:103CC00001D40820F8BD002F1CD0002C1AD0216888
:103CD000022915D20C20414319484258002A0FD01E
:103CE00008184289018940684A4310186268904266
:103CF00006D9002D04D0A94202D3A819884203D9BD
:103D00000720F8BD0E20F8BD3846FFF753FA00280B
:103D100011D03046FFF74EFA00280CD06068FFF74C
:103D200049FA002807D02B463A4621460120009642
:103D3000FDF7DCFFF8BD1020F8BD0000A800002052
:103D4000700A002010B5114902460878002811D0E9
:103D500004280FD0022A16D0032A0BD10A791207A1
:103D600011D48A69521C8A61032A08D0022802D021
:103D700000F0EAF810BD487800F038FA10BD0D20C8
:103D8000FCF7FCFD10BDFEF7C1FF10BDA800002030
:103D9000F8B5044621481E46007915460F464007EF
:103DA00001D40820F8BD002F1CD0002C1AD02168A7
:103DB000022915D20C20414319484258002A0FD03D
:103DC00008184289018940684A4310186268904285
:103DD00006D9002D04D0A94202D3A819884203D9DC
:103DE0000720F8BD0E20F8BD3846FFF7E3F900289C
:103DF00011D03046FFF7DEF900280CD06068FFF7DD
:103E0000D9F9002807D02B463A46214604200096CF
:103E1000FDF76CFFF8BD1020F8BD0000A8000020E1
:103E2000700A002070B501240B49600408600B493A
:103E300040108860094940398860094D6C602F2026
:103E4000FCF748F9AC60074D00242F206C61FCF7AB
:103E500041F92C7170BD000080E100E04013014089
:103E600000100140E4000020F7B582B0029814462B
:103E7000806A0F46002833D0029800252030009039
:103E800028E00298816A0C2068430E182178307966
:103E90004A1C2270C01C785420781622411C2170C4
:103EA0003A542078C119308800F094FA21784018EB
:103EB000C0B22070B288002A09D0B16800290FD0A2
:103EC000C019FCF75DF920783179401820706D1C1D
:103ED0000098EDB2007BA842D3D8002005B0F0BD19
:103EE0000720FBE738B50446012168468170074A80
:103EF000028020896A4690DF010003D02046FFF748
:103F000079F838BD02490220087038BD1118000048
:103F10005400002010B50020FDF730FC002803D02D
:103F200000221146FCF7E0FCFDF720FB002803D03F
:103F300000221146FCF7D8FC3CDF002803D0002209
:103F40001146FCF7D1FC10BD10B50F4900280870D0
:103F500009D0012811D0022812D0032802D14869C3
:103F6000FEF714FF10BD00208861C8610748407843
:103F70000028F7D0FDF78EFE10BD00F0D9F810BD77
:103F800000F038F810BD0000A8000020A4090020AF
:103F900010B508461146C046C04610BD002803D0E3
:103FA0000249C860002070470E20704708010020B9
:103FB00070B5002901D08C0701D0072070BD064CD8
:103FC0000125A16062800549636010DF0028F5D1FA
:103FD000257016202EDF70BD08010020913F0000E3
:103FE000002803D002490861002070470E20704766
:103FF00008010020F8B5164C142260684008400003
:1040000060601448017851430E183769FFF76CFD62
:1040100001463846FCF78AF805466061FFF764FD03
:104020000146F0887F1EC019FCF780F80222854205
:10403000606801D1104300E090436060E168104087
:10404000084303D0002000F0D1F8F8BD0220FAE7C1
:10405000A8000020A409002010B502484069FEF71E
:1040600095FE10BDA800002010B5FFF72BFD441EE3
:10407000FFF73AFD4443FFF737FD04494A69521EF2
:104080005043CA682146FEF786FE10BDA8000020F6
:10409000F8B510481422017851430C182569FFF730
:1040A00023FD0146E088228980184019FCF73EF87C
:1040B0000F46FFF707FD461EFFF716FD4643E08853
:1040C0002289F1198018044A40191269FEF763FE2B
:1040D000F8BD0000A4090020A800002070B5FFF77B
:1040E00003FD0546FFF7EEFC441EFFF7FDFC6043B1
:1040F0002946FCF71BF8FEF749FE70BD70B5FFF7C7
:10410000F3FC8608FFF7F0FC074949694843044679
:10411000FFF7D8FC451EFFF7E7FC6843324621460F
:10412000FEF739FE70BD0000A80000200020704797
:1041300070B514481422017851430C18241DFFF760
:10414000D3FC6188104E884211D2FFF7CDFC618804
:104150000D1AFFF7C9FC8208A188E06840182169A0
:1041600040194919FEF717FEFFF7BEFC07E0A288C9
:10417000E06880188A082169FEF70DFE6088F0610A
:1041800070BD0000A4090020A800002010B5094857
:10419000FCF7B2FF002803D000221146FCF7A4FB75
:1041A0000448FDF77FF8002803D000221146FCF7F1
:1041B0009BFB10BDF403002010B5054800790007F3
:1041C00003D4012000F012F810BD00F003F810BD78
:1041D000A800002010B504480822416891434160BE
:1041E000407800F003F810BDA80000200249487094
:1041F0000249800008580047A80000200846000037
:1042000010B50446FFF79EFD2046FCF7AFFD10BD3C
:1042100010B505480079000702D4FDF729FD10BD4F
:10422000FFF7D8FF10BD0000A800002001200249C0
:10423000000508607047000000E200E0F0B5174F8D
:104240002421BC6841430D1939694A1C09D0242234
:104250004A4316196B687268934204D8D21A726086
:1042600029623861F0BD0A4602E00A46396A9B1BA2
:104270004E1C0BD024264E4337197E689E42F4D341
:1042800024264E4336197768FF1A77606B602962DF
:1042900024214A4311190862F0BD0000E400002007
:1042A00070B5194C2269A5681346114606E0814293
:1042B00007D00A46242671434919096A4E1CF6D1D3
:1042C00070BD002EFCD08A420CD1242043435819E3
:1042D000006A2061401C05D10C4B0120986000232E
:1042E00063616071242041434819242341685A4383
:1042F000006A52191062421CE2D024225043401935
:1043000042685118416070BDE40000200010014077
:10431000F8B51D4C2569681C35D01C48002640683E
:104320006169401A07023F0A19E024204543A0684A
:104330002A185068B84214D8A3693F1A8619156A1A
:10434000002B09D0D16990699847002807D0002236
:104350001146FCF7C9FA02E09169D0698847681CE8
:10436000E3D1A178E078814206D1401CC0B2E07070
:10437000022801D10020E07003490006800D1C31A5
:104380000E50FFF753FFF8BDE40000200015014078
:1043900010B50E4C6168A068884210D014210C4AF8
:1043A000484381188B78012B0AD0105A083197DFC7
:1043B000002804D1207A401C4007400FA06010BDA7
:1043C000105A8988002295DFF2E70000540000208F
:1043D000240500200870000A487002207047000081
:1043E00001218140024842688A43426070470000D0
:1043F0008800002038B51549154A488890420FD0EA
:104400004A78144C521CD2B24A70237B934208D390
:10441000083175DF002803D0A169002900D0884742
:1044200038BD00254D70217C002907D03B2176DF67
:10443000002803D0A169002900D0884761690029BC
:10444000EED068460570884738BD00007000002037
:10445000FFFF0000F807002012494868C005C00DA2
:1044600019D0103840B2002807DA0207120F083AB4
:10447000920892005118C96904E081080A4A89002B
:10448000891809688007C00EC1400806800F0128FE
:1044900003D0032803D0022070470020704701207A
:1044A0007047000000ED00E000E400E0427883780F
:1044B000521C934200D100220378934201D1002084
:1044C00070470A60416840781822504308187047C6
:1044D000F8B51546069C1E4607460222009400F0D9
:1044E0000AF8002806D1334610222946384600949F
:1044F00000F001F8F8BDFFB583B0074600200C9C22
:104500008646267805463AE07868A90041180A8868
:10451000684682804988C1800022694601A865DF1B
:10452000002810D1684601780598814226D170464E
:10453000002801D0002200E00222207889184118CA
:104540001F2902D90C2007B0F0BD7146002908D1FF
:10455000401CC0B2411C069B049A21701A540120D1
:104560008646217806980A18694601A865DF002862
:10457000E9D1694620780978401820706D1C388888
:10458000A842C1DC7046002804D020780699801B20
:10459000401E88550020D6E70179002902D1007B12
:1045A000002800D001207047110000001200000018
:1045B000130000001400000011000300811500002A
:1045C0001200030081150000130003008115000094
:1045D000140003008115000023350000E92E0000BF
:1045E000012E0000A12F00001F350000B92E000091
:1045F000FD2D0000992F00001B350000052E000046
:10460000F92D0000912F0000DD400000FD4000006A
:10461000594000009140000069400000B94100008D
:10462000752000002120000011420000153000001C
:104630000300000054460000000000201C010000A0
:10464000DA040000704700001C0100206C1100001B
:10465000EA04000000000000FFFF0000000000006E
:10466000000000000000000000000000000000004A
:10467000000000000000000000000000000000003A
:10468000000000000024F400000000000000000012
:10469000FFFF00000000000000000000000000001C
:1046A000000000000000000000000000000000000A
:1046B00000000000000000000000000000000000FA
:1046C00000000000000000000000000000000000EA
:1046D00000000000000000000000000000000000DA
:1046E00000000000000000000000000000000000CA
:1046F00000000000010000000000000000000000B9
:1047000000000000000000000000000000000000A9
:104710000000000000000000000000000000000099
:104720000000000000000000000000000000000089
:104730000000000000000000000000000000000079
:104740000000000000000000000000000000000069
:104750000000000000000000000000000000000059
:104760000000000000000000000000000000000049
:04000005000000C136
:00000001FF
