:020000040000FA
:10000000B00A0020F50000000F01000011010000FF
:1000100000000000000000000000000000000000E0
:1000200000000000000000000000000013010000BC
:100030000000000000000000150100001701000092
:100040001901000019010000190100001901000048
:10005000E9020000000000007D010000190100001D
:100060001901000019010000190100001901000028
:100070001901000019010000190100001901000018
:1000800019010000C9020000190100001901000057
:1000900049030000190100001901000019010000C6
:1000A000190100001901000000000000000000001C
:1000B0000000000000000000000000000000000040
:1000C0000348854600F048F800480047090F000043
:1000D000B00A0020401E00BF00BF00BF00BF00BF2D
:1000E00000BF00BF00BF00BF00BF00BF00BFF1D115
:1000F000704700000321094802680A43026008486B
:1001000002680A4302600748804707480047FEE745
:10011000FEE7FEE7FEE7FEE7FEE7000024050040FD
:10012000540500409D030000C100000030B50B469F
:10013000014600202022012409E00D46D5409D42C1
:1001400005D31D469540491B254695404019154647
:10015000521E002DF1DC30BD064C0125064E05E097
:100160002046E36807C82B4398471034B442F7D3BE
:10017000FFF7AAFFA4160000C4160000F8B500257A
:10018000FF24013401262F460095204600F0DCFFB5
:10019000002808D034484068304204D03348002159
:1001A000201835430160241D76007F1CA4B2042F63
:1001B000EBD3FF207D3000F0C7FF002807D02C488C
:1001C00000210160400705432A48006900902A4E3B
:1001D000280713D001270024384628420AD0274890
:1001E000A200111808690969C004C00E8903B25839
:1001F000890F90477F00641C042CEDD3002D30DA6A
:1002000000241D4E0421301940304156491C25D090
:100210000779BD06AD0E284600F088FC80003658F0
:10022000002E1BD0BF090121A940154AA800801843
:100230000068009A8003800F114202D0022802D089
:100240000CE003280AD1032F05D102280AD002218D
:10025000284600F069FF39462846B047641C052C43
:10026000CFD3F8BD0321F3E70063004000600040F6
:100270007C610040000500505402002000650040F1
:10028000000700508307FF22DB0E9A408907090E02
:10029000994000280BDA0007000F08388308084847
:1002A0009B001B18D86990430843D86170478308A6
:1002B00004489B001B181868904308431860704757
:1002C00000ED00E000E400E010B506490020086001
:1002D00048608860C860034940390860486001F0A0
:1002E00049F910BD4011014070B5134CA06A0026B9
:1002F000124D002814D0A6622878012810D1104889
:10030000E96841600E492A6940394A63AA698A63EB
:10031000696981600B4901208862022000F062FF58
:100320006068002806D066602878022802D1032081
:1003300000F058FF70BD0000004100402400002084
:100340004045004000400040FEB50020C043124D33
:1003500002906869019068462E6900F071FC0746BA
:1003600000F010FD0446002F08D002AA0199009861
:1003700000F086FC029800F04FFD06E0029800F0C5
:100380004BFD002801D1002C02D0304600F0D6FBF6
:1003900000206871FEBD00005C00002010B500F078
:1003A000C1FC002805D00E490C484860C8130D490F
:1003B00088610D48018CC9B201290ED1818C0907D1
:1003C0000BD1018D0906090F042906D1808D000685
:1003D000000F02D105490120886010BDDFFF07C072
:1003E00000050040006C0040C00F00F00006004017
:1003F00030B47446641E2578641CAB4200D21D469E
:10040000635D5B00E31830BC184702E008C8121FA8
:1004100008C1002AFAD170477047002001E001C1ED
:10042000121F002AFBD17047044842680121C90508
:100430000B46934383600A40C2607047000500503A
:1004400070B50024064D06E06968E000085C0121F3
:1004500000F096FD641C28788442F5D3002070BD1E
:1004600044000020F8B515460C460646052A01D280
:100470000720F8BD00F050FE002803D100F022FE56
:100480000028F6D1114900204E600C7008618D6083
:1004900048610F4D0DE0E0002968801900918178D6
:1004A0006A46517000780B4A694600F0B9FD002891
:1004B000DFD12046641EE4B20028ECD10348064A8E
:1004C00000210C3000F016F8F8BD000044000020B8
:1004D000A0160000D90C0000E10B0000BFF34F8F05
:1004E00003490248C860BFF34F8FFEE70400FA05D6
:1004F00000ED00E070B5114CA568002D06D0002A73
:1005000006D0002804D00023247809E0082070BD1C
:10051000072070BD24265E43AE5D002E04D05B1C18
:10052000A342F7DB042070BD242401265C432E5532
:1005300064196170A2610360002070BD5C0000203E
:10054000FFB59807002481B01E4615460F460028C7
:100550000BD1002E09D000F023FE22490A988861B1
:100560000F70324600208E6008E0072005B0F0BD15
:1005700024234343D4549B181C75401CB842F7DB1A
:1005800024204743BB19032048700F461846CB6010
:1005900019461830002218232E465E43D3005B18FC
:1005A0001C705C709D7058603018521C032AF5DB7B
:1005B0000020C0433861BC70FC7001240A48240547
:1005C000046003211420FFF75DFE08480460084C16
:1005D0000198A06003211120FFF754FE6068786144
:1005E0000020C3E75C00002080E200E000E100E0C2
:1005F00000150140FEB504461D48174682680D46A9
:10060000002A0CD001788C4201D2052D01D207209E
:10061000FEBD214624235943535C012B01D0082001
:10062000FEBD8818407801281DD0002600F0E4FFA8
:10063000C0000F490190C9684018694601F006F8EA
:10064000002812D0012101700A494460496808302D
:10065000E2C007490198C96841180098487000F045
:1006600017FF0020FEBD2E46E0E70420FEBD00007F
:100670005C00002000150140F8B5144D0446A86840
:10068000002809D029788C4201D30720F8BD242105
:100690006143405C012801D00820F8BD00F0ACFFA8
:1006A000C600E8686946301800F0D0FF00280AD07C
:1006B000022101704460E86831180098487000F029
:1006C000E7FE0020F8BD0420F8BD00005C0000201B
:1006D000F8B507460024224802E0641C042C19D215
:1006E000A2008258BA42F8D1042C13D21D4E1E4DDE
:1006F000F069002928D001290DD002290AD1600013
:10070000201840194578002D04D0F168002901D047
:1007100028468847F8BD610062182946AD5C51182B
:1007200000914978002909D071680A2251430D4A85
:10073000521CFFF75FFF002800D177700098817886
:10074000084810300155DEE7FFF796FF05486100C5
:10075000611810304919005D8D78A842D3D0F8BDDA
:1007600070160000000000204802002008B5124862
:1007700001218161114A002050608B079960516806
:100780000029FCD0032200900D4B11460020FFF7FA
:10079000D7FE002803D000221146FFF79FFE00225B
:1007A0000849012000F042F8002803D00022114639
:1007B000FFF794FE08BD0000000500400001004066
:1007C00078000020CD0C000070B50023042811D261
:1007D000440004190D4D012A02D101290DD0002237
:1007E00046008019094E801900290CD0012906D035
:1007F000022906D00723184670BD0D30C2B22A5513
:10080000F9E74270F7E78270F5E700004802002040
:1008100010B5054A0146127A0020D20702D00846D8
:1008200000F054F810BD00000000002070B50E4626
:10083000204905464E608D600020CA60A9071ED57C
:100840000024012211462046FFF7BEFF641C042C41
:1008500002D20028F5D012E0002810D1720804213D
:100860001548FFF7FFFD002809D1FFF7E9FD002833
:1008700005D11048114A00211C30FFF73BFEE90763
:1008800006D00F220E4952058A600023CB608A6190
:1008900000280DD107480B4A00211430FFF72AFE2B
:1008A000002805D10348084A01211830FFF722FE2D
:1008B00070BD00000000002080160000BD0A00008E
:1008C000000500506D0D000029040000FEB57849B8
:1008D00006464F684B690093BB00FB1800200122BD
:1008E000019352050546734C3300FFF781FD180D47
:1008F00013133749596C828E858E97A1A5A5A5A59E
:10090000A5C3C8CDD4DADA120B225205A260E56085
:100910000D70FEBD05208005A060E56060680F23B6
:100920005B055840800209D5A260E560022E02D125
:10093000E120C0000AE07D20400107E0E260A56000
:10094000022E01D1C82001E0FF2091300E706421F9
:10095000FFF7ECFB78430022014646E005208005C6
:10096000A060E56060680F235B055840800204D5F5
:10097000A260E56019204001E8E7E260A560E1E7D8
:1009800005208005A060E56060680F235B05584086
:10099000800202D5A260E560CDE7E260A560D3E702
:1009A00005208005A060E56060680F235B05584066
:1009B000800202D5A260E56001E0E260A5600E70F1
:1009C0007900002211E005208005A060E5606068E4
:1009D0000F235B055840800202D5A260E56001E06C
:1009E000E260A5600E70002239460098FFF702FE13
:1009F000FEBD05239B0544E06068012189050A4688
:100A00008243A2600840E06010E061680120800538
:100A100002468A43A2600140E160E4E76168012088
:100A2000800502468A43A2600140E1600199C8E75F
:100A30000F214905E1601BE00F468869FFF71CFEA6
:100A400011218A1B1C4E01D0002802D0A660E5604F
:100A5000FEBD012A0BD91046C82148436421FFF787
:100A600065FB796800224143B869FFF7C3FDE66082
:100A7000A560FEBD0F225205A260E56015E00723C8
:100A80009B05A360E5600EE00D225205A260E560C3
:100A90000122920507E00322D205A260E5609210D0
:100AA00001E00F225205E260A5600E70FEBD00005D
:100AB00000000020000500500000800010B5007804
:100AC0000221FFF705FE10BD0022D2438300044936
:100AD0000428CA5002D30818403002707047000042
:100AE00054020020F0B50025ED43002A02D0002377
:100AF000042601E0042309260B4C04E09F00E7597B
:100B00007F1C04D05B1CB342F8D32846F0BD2618E6
:100B10005DB2203635719E00A151002AF5D1E11851
:100B200040310870F1E70000540200200249091822
:100B3000242008567047000054020020F8B52248CF
:100B400001694A1C3DD024225143826889184E68AD
:100B50001E494C6847690079E11B0D022D0AED1C06
:100B6000002814D101201A4A00045060184A403A63
:100B70005060184940000860174908601749012073
:100B800008602F20FFF7A6FA0F4901200871B5422F
:100B900000D23546E81900020C49000A40310860CD
:100BA0000A494968001B091B0902090A0002C91CFD
:100BB000000A814204D901200649400480390860B6
:100BC000F8BD00F0EDFAF8BD5C0000200015014012
:100BD0004013014080E200E000E100E0001001402D
:100BE000F8B500260124154D24E06968F000471887
:100BF0003878214681406A690B46134218D08A43EF
:100C00006A6100F055FA3A7821462B699140194003
:100C10000346934099420BD17978012901D00121F3
:100C200000E000217B684140002B01D0104698472E
:100C3000761CF6B228788642D7D3F8BD440000204F
:100C400010B50D4900238A78CC78A24211D0521CED
:100C5000D2B28A70042A00D18B708A78074B920036
:100C60009A580260486910180002000A4861012081
:100C700010BD0360002010BD5C000020A002002019
:100C8000F7B5144C0025A76823691EE024215943B9
:100C9000C9194E68864202D9301A486017E0801B95
:100CA000751900264E600E750E699C460B6AB64695
:100CB000002E0AD0019E76193602360A8E607646DC
:100CC000CE6016680E6261461160591CDED1236148
:100CD000FEBD00005C00002070B50646104C0125EA
:100CE000B540E068FFF7C8FC002805D161690846F7
:100CF000284202D0A943616170BD304600F0D8F9A6
:100D00000028206901D0284300E0A84320616069E1
:100D1000002228436061A168E068FFF76BFC70BDAA
:100D2000440000201048018CC9B2012917D1818CE0
:100D3000090714D1018D09060A0F03D1828D12060D
:100D4000120F0ED0090F012903D1828D1206120F46
:100D500007D0032903D1808D0006000F01D00020A9
:100D60007047012070470000C00F00F010B5044824
:100D7000017AC90702D00078FFF7A8FD10BD000076
:100D800000000020F8B5234801690091457833E060
:100D90002048E900C0680E1834782AE01820604323
:100DA0007168641C0818B178E4B2A14200D1002433
:100DB0000178022902D003291BD113E0154A4068AB
:100DC0002421926841438F18397D002911D000F009
:100DD00099FB002038750CE024277843C018027571
:100DE000006A03E00B4900228B680869471CF3D1B5
:100DF00008617078A042D1D128466D1EEDB200285E
:100E0000C6D1044801690098814201D00120F8BD93
:100E10000020F8BD5C000020F8B5044638480027E3
:100E20000169009146785CE03548F100C2688D1890
:100E300051E0601C07D0324A24209268604321466A
:100E40008018046A24E02878182141436A68401C0D
:100E5000C0B252182870A978884200D12F70284B50
:100E6000516824209B684843C0181378012B34D163
:100E7000037D002B31D193688360D368C36013690D
:100E800003615269C2611E4A5279002A00D087600C
:100E90001B4B82685B6996469C46D31A1A02194B13
:100EA000120A9A4202D2C368D21808E07246634618
:100EB0009A1A1202C368120A934202D99A1A42601D
:100EC00000E0476087600122C7600275921E0262DF
:100ED000084600F0E5FA601CABD1287869788842B2
:100EE000A7D13046761EF6B200289DD1044801698C
:100EF0000098814201D00120F8BD0020F8BD00001B
:100F00005C000020FFFF7F00FFF730FC00F0D8F905
:100F1000002803D000221146FFF7E0FAFEE70000A8
:100F20008207D30EFF229A408907090E10B5994017
:100F300000280BDA03071B0F083B9C080C4BA4008E
:100F4000E318DC6994430C43DC6107E08408094B37
:100F5000A400E418236893430B432360C106C90E21
:100F600001208840044908600449086010BD000061
:100F700000ED00E000E400E080E200E000E100E0DD
:100F8000F3B581B00F46019800F0F2F80124002873
:100F90001E4E019817D0FFF7C9FD80194030007828
:100FA0008009032802D001280BD005E01848006909
:100FB00001998C40204204D00321019800F0B4F83C
:100FC000FEBD0221F9E700F0DFF80028F8D0019813
:100FD000FFF7ACFD05468100C81D0E4AF93089189F
:100FE0000A6980B222430A610B494018002101605E
:100FF000002FE5D00198FFF799FD800030580028B8
:10100000DED00648AC404460FEBD00005402002023
:101010000005005000650040006000400063004093
:10102000F8B517460C460546002600F097F800284C
:1010300001D0082631E0E27839462846FFF752FD14
:10104000411C29D0164BA278A900C918002A03D048
:101050000A6802239A4301E0627892000A60E1780C
:10106000002910D082000F482178101802690E4B19
:101070001A400261EA06D20C8907890B0A4301690A
:101080000A43026109E009492278081840300178D2
:1010900092011143017000E004263046F8BD0000C3
:1010A0000007005000650040FFE0FCFF54020020F4
:1010B00003490969C140C807C00F00D0012070472B
:1010C0000005005070B5124D687A002801D0082044
:1010D00070BD0F4900204039421E0B182033401CC0
:1010E000C0B21A712028F8D300242046FFF7ECFC88
:1010F000641CE4B2092CF8D301210620FFF710FF8D
:1011000001200449C007486001206872002070BDBA
:1011100094020020006300400248407A002800D07A
:1011200001207047940200208200064810180268CF
:1011300003231B049A430260026809040A43026005
:10114000704700000007005003494018006801285C
:1011500000D00020704700000060004003490818DC
:1011600024214156C817401C70470000540200203B
:101170000449081824214156042901DB0120704745
:1011800000207047540200200449081824214156C9
:10119000042901D20120704700207047540200202A
:1011A00070B501240B49600408600B494010886049
:1011B000094940398860094D6C602F20FEF78AFF8D
:1011C000AC60074D00242F206C61FEF783FF2C716B
:1011D00070BD000080E100E04013014000100140BC
:1011E0005C00002010B50249087000F021F910BD24
:1011F0002400002070B500280ED000290CD00D4C22
:101200002578002D0AD0012D11D0022D06D0032DF6
:1012100004D00324204670BD0E2070BD62612161A0
:10122000E060A36100240120FFF7DCFFF2E708245F
:10123000F0E700002400002037B568460078012858
:1012400031D10A20FFF7E4FA002803D0002211462A
:10125000FFF744F90198102804D0002211461046E7
:10126000FFF73CF90198104A81B200200DE00346D7
:10127000145C4133DBB29C4205D00022114610467B
:10128000FFF72CF903E0401C80B28842EFD3102313
:1012900005491A46C81AFFF7ADFF002803D00022FF
:1012A0001146FFF71BF93EBD380200200349002814
:1012B000C86101D0002070470E2070472400002034
:1012C00030B585B01E48FFF7F1FF002803D000229B
:1012D0001146FFF703F91C200090192001901D20F2
:1012E00002900C2003900024684604744474AA21E0
:1012F00081745521C17400F027F8002803D0002222
:101300001146FFF7EBF80F4B10211A461032002060
:10131000054661351D541454401C80B28842F7D3F1
:101320000849102310311A46C81AFFF763FF002836
:1013300003D000221146FFF7D1F8002005B030BDE0
:101340003912000028020020F0B500282FD02E4DC1
:10135000A9680A0201688B002C495B181A606A6848
:10136000C36892009B005B181A60426800249200D8
:10137000521814608268920051180C60244AC168A7
:10138000516181689160416811610168D160946325
:101390001F4940318C60067C0023002E0ED0012EA8
:1013A00007D0022E07D0032E07D00720F0BD0E2055
:1013B000F0BD022302E0042300E00623144E477C24
:1013C000C036002F01D101273B434B61837CCB61A9
:1013D000C07C30600F48446084620F49042008607C
:1013E0002C700E480168C023090A090219430160E4
:1013F0000B49102008600C4B0A4959600B490860E2
:10140000022010602046F0BD24000020000700509C
:1014100000450040004100400042004004E400E07C
:1014200080E200E0020400000043004000E100E030
:101430003EB5144C22780121012A15D02046C069FE
:10144000022A14D0032A0ED16A4611700E49C96BC4
:1014500001910D494031C968029100280CD06846BD
:1014600007C8E36998473EBD084841623EBD002178
:101470006A4611700191EFE7002211461046FFF70E
:101480002DF8ECE72400002000450040004000401B
:1014900001200249000508607047000000E200E0FA
:1014A000F0B5174F2421BC6841430D1939694A1C16
:1014B00009D024224A4316196B687268934204D8F3
:1014C000D21A726029623861F0BD0A4602E00A460B
:1014D000396A9B1B4E1C0BD024264E4337197E685D
:1014E0009E42F4D324264E4336197768FF1A77605C
:1014F0006B60296224214A4311190862F0BD000083
:101500005C00002070B5194C2269A568134611468D
:1015100006E0814207D00A46242671434919096A28
:101520004E1CF6D170BD002EFCD08A420CD1242076
:1015300043435819006A2061401C05D10C4B01201F
:10154000986000236361607124204143481924237B
:1015500041685A43006A52191062421CE2D02422A8
:101560005043401942685118416070BD5C00002032
:1015700000100140F8B51D4C2569681C34D01C488A
:10158000002640686169401A07023F0A19E02420DA
:101590004543A0682A185068B84214D8A3693F1A76
:1015A0008619156A002B09D0D169906998470028DF
:1015B00007D000221146FEF791FF02E09169D06941
:1015C0008847681CE3D1A178E078814206D1401CAD
:1015D000C0B2E070042801D10020E0700006054987
:1015E000800D0E50FFF754FFF8BD00005C00002096
:1015F00000150140A002002012494868C005C00D36
:1016000019D0103840B2002807DA0207120F083A42
:10161000920892005118C96904E081080A4A8900B9
:10162000891809688007C00EC1400806800F01288C
:1016300003D0032803D00220704700207047012008
:101640007047000000ED00E000E400E0427883789D
:10165000521C934200D100220378934201D1002012
:1016600070470A6041684078182250430818704754
:101670001100000012000000130000001400000020
:1016800011000300D106000012000300D106000083
:1016900013000300D106000014000300D10600006F
:1016A00003000000C41600000000002078000000C5
:1016B0000A0400003C17000078000020380A0000EF
:1016C0001A040000000000000000000000000000FC
:1016D000000000000000000000000000000000000A
:1016E000000000000024F4000000000000000000E2
:1016F00000000000000000000000000000000000EA
:1017000000000000000000000000000000000000D9
:1017100000000000000000000000000000000000C9
:1017200000000000000000000000000000000000B9
:0C173000000000000000000000000000AD
:04000005000000C136
:00000001FF
