:020000040000FA
:10000000900B0020D5000000EF000000F100000080
:1000100000000000000000000000000000000000E0
:10002000000000000000000000000000F3000000DD
:100030000000000000000000F5000000F7000000D4
:10004000F9000000F900000041090000F90000007B
:10005000F900000000000000A1070000F900000006
:10006000FD080000F9000000F9000000F9000000A0
:10007000F9000000F9000000F9000000F90000009C
:10008000F9000000F9000000F9000000F90000008C
:10009000F9000000F9000000F9000000F90000007C
:1000A000F9000000F900000000000000000000005E
:1000B0000000000000000000000000000000000040
:1000C0000348854600F07AF900480047F91200001D
:1000D000900B00200321094802680A430260084887
:1000E00002680A4302600748804707480047FEE766
:1000F000FEE7FEE7FEE7FEE7FEE70000240500401E
:1001000054050040A9080000C10000000FB400B56C
:1001100089B00BA800906A4603480A9900F042F99A
:1001200009B008BC04B0184728000020FFB500271C
:10013000FF4383B000205C6801909E681D46A9695A
:100140007F1C049888470090296A88470028F6D1C8
:100150000098401C0CD0032040028443002E19DD7F
:10016000600614D500982B2809D02D280FD103E064
:100170000020C04307B0F0BD012080020443A969FC
:100180007F1C04988847761E0090002E02DD0098A0
:10019000302803D00598002825D035E00120400202
:1001A0000443761EA9697F1C049888470090002E9E
:1001B00003DD782805D0582803D00598002810D0F2
:1001C00022E00598002801D010281DD1012040020E
:1001D0008443761EA9697F1C0498884700901020EC
:1001E00002E0082000E00A2005900DE0012149020C
:1001F0000C43059A0199761E514308180190A9698C
:100200007F1C049888470090002E05DD0599009812
:1002100000F0B9F80028E9DAE96904988847A005F0
:1002200002D40120C043A5E7E00722D1600611D522
:100230006005019800D5404229680A1D2A600968B6
:10024000220501D5087014E0220701D5088010E0CE
:1002500008600EE02868011D29600068210502D5AC
:100260000199017005E02107019901D5018000E0A5
:10027000016038467EE7FFB5002083B000905068EB
:1002800001909169144600269768049888470546AE
:100290000C990698084305D009E0A169761C0498DA
:1002A00088470546216A284688470028F5D1681CFA
:1002B00003D00198C00704D017E00020C04307B066
:1002C000F0BD2068011D2160006800900DE00198DC
:1002D000C00704D1009805700098401C00907F1E54
:1002E000A169761C049888470546002F1CDD681C10
:1002F0001AD0069800280FD0E817C00E40194111F7
:100300008A0006994009511840012A1A09680120FB
:1003100090400142DBD107E00C980028D7D1216A38
:10032000284688470028D2D0E16904988847019878
:100330000C99C007C00F084302D10098002101703A
:10034000A068B84204DD0C98002804D0002F02D029
:100350000120C043B3E73046B1E730B50B46014654
:1003600000202022012409E00D46D5409D4205D3FE
:100370001D469540491B2546954040191546521E7D
:10038000002DF1DC30BD3A2800D23038202302465F
:100390009A43412A01D310463738884201D30020BE
:1003A000C043704710B5034B9361034BD36100F01A
:1003B00033F810BD210F0000FF030000064C01259B
:1003C000064E05E02046E36807C82B4398471034E3
:1003D000B442F7D3FFF778FE801E0000A01E000095
:1003E00010B5094908784C1C002803D0401E08703D
:1003F000205C10BD00210720ABBE207010BD02495B
:100400000878421C0A7070472C000020026813789C
:10041000511801601846704710B5D1600449516108
:100420000449116200211161114600F00DF810BD60
:100430000D0400003904000010B50F21C0B24902BC
:1004400000F09CF910BD0000F3B58DB000200A90BB
:1004500001200B90002608460C300C46099062697A
:1004600001210998904705002ED0252D2DD0216A15
:100470008847002818D06269012109989047216AAD
:1004800088470028F7D1411E62690998904700E02B
:10049000761CA1690D988847216A88470028F7D102
:1004A000E1690D988847DAE7A1690D988847074602
:1004B000A84201D1761CD2E7E1690D9888477F1CDC
:1004C00002D10A98002877D046E1002762693D46AC
:1004D0003946099890472A280CD162690121099868
:1004E0009047012506E00A214F433F18303FEBD4E7
:1004F000102005436269012109989047014630396F
:100500000A2903D29A498F42DEDCECE7E90600D4DF
:10051000984F6C280AD04C2810D0682824D06A281C
:100520002ED074280CD07A280AD00DE062690121FF
:10053000099890476C2823D004211CE02020054313
:100540006269012109989047A760656065284FD0CE
:1005500026DC582839D01ADC452849D012DC252859
:1005600034D04128B0D143E0626901210998904715
:10057000682802D008210D43E6E70120C002DEE72B
:100580000220DCE7462833D047282CD130E05B2816
:100590007BD061282CD0632877D0642823D15EE0FB
:1005A0006F284CD009DC662822D0672820D0692823
:1005B00026D06E2817D12EE0CAE070284AD07328C2
:1005C0006CD075284BD078280DD150E0A1690D98DA
:1005D00088470546252800D16CE7E1690D988847D2
:1005E0006D1C00D16DE7B7E00A2248E00A224FE017
:1005F000012023466A46C0430D99C046C046A0E08C
:100600002846402108436060A807234601D5002200
:1006100035E000223CE02068011D216000682905CA
:1006200001D506701BE7290701D5068017E7A90742
:1006300003D5F1170660416011E706600FE7284611
:10064000402108436060A807234601D5082216E030
:1006500008221DE0484928460840606016E0284608
:10066000402108436060A8072346BFD5BCE7284661
:10067000402108436060A80708D5234610220120C6
:10068000C0430D99C046C0465BE007E023461022F8
:100690000120C0430D99FFF749FD52E000210C9164
:1006A0000B460091632802D05B2807D043E0E806A0
:1006B00001D40120A060012000903CE0626901218A
:1006C000099890475E2805D101200C900146626987
:1006D000099890472169002906D10B4601AA8F008D
:1006E000491CD3510829FADB002835D0216900299B
:1006F0000ED1C117C90E09184A11930001AA9A1800
:1007000049094901411A01201368884003431360D5
:1007100062690121099890475D28E5D10C9800286D
:1007200008D0002001AB81005A58401CD2435A50D7
:100730000828F8DB01AB01202246C0430D99FFF7E2
:100740009AFD00280ADA401C06D10B98002803D035
:100750000020C0430FB0F0BD0A98FBE7E90702D1C3
:100760000A99491C0A91361800200B9077E6000080
:10077000CCCCCC0CFFFFFF7FF1F7FFFF7F2801D926
:10078000002207E0054B42089A5CC00700D112091D
:100790001207120F0120904008407047401E0000D1
:1007A000F8B50025FF24013401262F460095204688
:1007B00001F094F8002808D034484068304204D052
:1007C00033480021201835430160241D76007F1C2A
:1007D000A4B2042FEBD3FF207D3001F07FF8002876
:1007E00007D02C4800210160400705432A480069D2
:1007F00000902A4E280713D00127002438462842AB
:100800000AD02748A200111808690969C004C00E5F
:100810008903B258890F90477F00641C042CEDD3E4
:10082000002D30DA00241D4E182130192030415699
:10083000491C25D0077EBD06AD0E284600F068FB9A
:1008400080003658002E1BD0BF090121A940154A4F
:10085000A80080180068009A8003800F114202D01F
:10086000022802D00CE003280AD1032F05D1022868
:100870000AD00221284601F021F839462846B0471F
:10088000641C022CCFD3F8BD0321F3E700630040C2
:10089000006000407C6100400005005050030020D3
:1008A000006500400007005010B500F001FD002871
:1008B00005D00E490C484860C8130D4988610D48A1
:1008C000018CC9B201290ED1818C09070BD1018D90
:1008D0000906090F042906D1808D0006000F02D1F8
:1008E00005490120886010BDDFFF07C000050040FA
:1008F000006C0040C00F00F00006004010B50E4C28
:100900002046627901790078002A05D00A4601461E
:10091000607801F0DDF901E001F0AEF92079401CCA
:10092000C0B22071E178884201D9A07820710349D2
:100930000020086010BD0000100000204081004031
:100940007CB51B4CA0681B4E0025002818D0A56064
:1009500019488069C1B2194800F0B9F9002805D0DA
:1009600001216A4611700190684607E013488168CA
:10097000C068401A012803D168460570716888472D
:10098000E069002803D0E561032000F0B1FF606A50
:1009900000280BD065620849803908680860022188
:1009A0006A46117001907168684688477CBD0000F6
:1009B000002100401C0000200025004030030020E2
:1009C0000FB410B503A9044B044A029800F024F8B0
:1009D00010BC08BC04B01847330F000024000020EE
:1009E00030B47446641E2578641CAB4200D21D46A8
:1009F000635D5B00E31830BC184702E008C8121FB3
:100A000008C1002AFAD170477047002001E001C1F7
:100A1000121F002AFBD17047FFB58DB00F46054667
:100A20000026D4E0252836D100246D1C6B4A012114
:100A300000942B780846203B98400346134202D08E
:100A400004436D1CF5E728782E2815D104200443B3
:100A50006D1C28782A280AD101CF6D1C00900BE06C
:100A600000990A225143303940186D1C00902878B3
:100A7000014630390929F3D92878692843D006DCA2
:100A8000002871D063280BD0642804D13BE0732880
:100A900010D0752850D0109A0F999047761C95E089
:100AA0003878694608720020487202A83F1D0190FC
:100AB000012003E001CF01900020C04361070CD565
:100AC000002400E0641C00998C420FDA8442F9DBB8
:100AD0000199095D0029F5D108E0002400E0641CBB
:100AE0008442FCDB0199095D0029F8D1361907E041
:100AF000019801990078491C0191109A0F9990472B
:100B0000641EF5D262E00A20019001CF002802DACB
:100B100040422D2102E0210504D52B216A461172A5
:100B2000012103E0E10705D02021F7E70C910BA993
:100B30000B910EE00021F9E70A20019001CFF9E7BF
:100B40000199FFF70AFC0A460B993032491E0B91B6
:100B50000A700028F4D10B9803A9081A20300190DC
:100B6000600702D5009802E035E00120009001996D
:100B7000884203DD01460198081A00E000200024A5
:100B8000009006E002A8109A005D0F999047761C2D
:100B9000641C0C988442F5DB04E0109A30200F9915
:100BA0009047761C0099481E00900029F5DC08E06B
:100BB0000B980B990078491C0B91109A0F9990474C
:100BC000761C0199481E01900029F1DC6D1C2878E3
:100BD000002800D026E7304611B0F0BD09280100FA
:100BE00038B50D4C6078022802D00C49012088608D
:100BF00069460B4800F048F8002802D000F016F8CB
:100C000038BD0848802181606A46074B1278DA6156
:100C100002226270416038BD1C00002000200040AC
:100C20004003002000230040002500401CB5064979
:100C30000120C8600549487003206A461070496861
:100C4000684688471CBD0000002000401C000020B2
:100C500004490020487004490122CA604A600349DF
:100C6000086070471C000020002000400025004064
:100C7000BFF34F8F03490248C860BFF34F8FFEE7B1
:100C80000400FA0500ED00E08268C3689A1A0AD0F1
:100C9000826883881A4003689A5C0A708168491CDC
:100CA00081600020704705207047002906D0002A87
:100CB00002D0531E134203D0092070470E20704704
:100CC0000160838000218160C160084670478268AE
:100CD000C3689B1A8288934208D8C368134002688D
:100CE000D154C168491CC16000207047042070477E
:100CF00010B501460148FFF7C7FF10BD30030020C3
:100D0000FFB5584F83B000260D4604467E707A60CA
:100D100000292AD0A888296882B25348FFF7C5FF66
:100D2000002823D1A889A96882B24F481030FFF764
:100D3000BCFF00281AD160784C490322800040187B
:100D4000026022783046920051180E60484D61785A
:100D5000E96021786961A1686962454E6179403630
:100D6000002905D00E21F16203E0072007B0F0BD95
:100D7000F0622379022B17D03E493F4A012B45D020
:100D800004232B608860C861F06A40084000F0626C
:100D9000581FA860286101209060106078700C983E
:100DA000008800283FD043E000F036FD002803D142
:100DB00000F008FD0028D9D130486946006800904D
:100DC000A07800F031FD0028D0D1401E2861A07825
:100DD000A860F06A01210843F0622848284A406868
:100DE0000190E07801A900F099FC0028BED1E078DC
:100DF000012100F043FCE07800F0DAFC002801D08B
:100E0000002000E0012000F073FDC8E704232B6000
:100E10008860C861F16A01200143F162E1782961CB
:100E2000A178A960B8E70C9938780880401C387020
:100E300000211448C9438160A12189004160124901
:100E400004200860114B06991A68FF2424048907BE
:100E5000090EA24309040A431A600D4908600020E4
:100E600084E700001C000020300300200007005031
:100E7000002500400021004000200040381E0000F6
:100E8000B51000000023004080E200E000E400E034
:100E900000E100E010B501460448FFF718FF0446E2
:100EA000022000F025FD204610BD00004003002078
:100EB0000022D243830004490428CA5002D30818F0
:100EC000203002757047000050030020F0B5002567
:100ED000ED43002A02D00023042601E00423062665
:100EE0000A4C04E09F00E7597F1C04D05B1CB3420E
:100EF000F8D32846F0BD5DB2261835769E00A15184
:100F0000002AF6D1E11820310875F2E750030020DD
:100F100002490918182008567047000050030020A5
:100F200008B56846FFF7E4FE0528FAD06846007861
:100F300008BD10B50446C0B2FFF7ACFF204610BD97
:100F400070B500F0EFFE104D686200200446060206
:100F500000F0E8FE641C3043E4B2042CF7D3E861EF
:100F6000082068610948A86100206863084EFE20D7
:100F70003070002400F0D6FE3119641CE4B24870D1
:100F8000FE2CF7D36E6070BD00150040FF00040317
:100F90003002002008B51348FFF712FD694612A081
:100FA000FFF7B4F8684600783038022811D8684650
:100FB00001780EA0FFF704FD684601780D4830293E
:100FC0000CD031290CD0012101700BA0FFF7F8FCE7
:100FD00008BD072105A0FFF7F3FCDFE70221F3E7D7
:100FE0000021F1E7A41D00002563000025630D0A20
:100FF00000000000000000200D0A000008B51AA043
:10100000FFF7DEFC694628A0FFF780F86846007805
:10101000303807280FD868460078FFF73BFF68464E
:101020000178224830390B00FFF7DAFC07090B1171
:10103000131517191B000720FFF72CFFE2E7042107
:1010400000E0002141701AA0FFF7BAFC08BDFC21A6
:10105000F8E7F821F6E7F421F4E7F021F2E7EC21D4
:10106000F0E7D821EEE70000456E746572206F75D9
:101070007470757420706F77657220282730273D53
:101080002B342064426D2C202731273D30206442D0
:101090006D2C2E2E2E2C2737273D2D3330206442E9
:1010A0006D293A0D0A0000002563000000000020B1
:1010B0000D0A000010B500F07BFB002801D00020D5
:1010C00000E0012000F014FC10BD000010B514A0D9
:1010D000FFF776FC15A0FFF773FC24A0FFF770FC68
:1010E0002BA0FFF76DFC30A0FFF76AFC39A0FFF7DB
:1010F00067FC3FA0FFF764FC43A0FFF761FC4AA038
:10110000FFF75EFC4EA0FFF75BFC59A0FFF758FC11
:101110005CA0FFF755FC60A0FFF752FC10BD00007B
:1011200055736167653A0D0A00000000613A204579
:101130006E746572207374617274206368616E6E80
:10114000656C20666F722073776565702F636861C8
:101150006E6E656C20666F7220636F6E7374616E65
:101160007420636172726965720D0A00623A2045EB
:101170006E74657220656E64206368616E6E656C66
:1011800020666F722073776565700D0A000000009D
:10119000633A2053746172742054582063617272F0
:1011A0006965720D0A000000643A20456E7465722C
:1011B0002074696D65206F6E2065616368206368C7
:1011C000616E6E656C2028316D732D39396D732910
:1011D0000D0A0000653A2043616E63656C207377E9
:1011E0006565702F636172726965720D0A00000097
:1011F0006D3A20456E74657220646174612072617D
:1012000074650D0A000000006F3A20537461727417
:10121000206D6F64756C617465642054582063613F
:1012200072726965720D0A00703A20456E746572BB
:10123000206F757470757420706F7765720D0A0079
:10124000733A205072696E742063757272656E74A1
:101250002064656C61792C206368616E6E656C73C7
:1012600020616E6420736F206F6E0D0A0000000015
:10127000723A2053746172742052582073776565F6
:10128000700D0A00743A205374617274205458200F
:1012900073776565700D0A00783A20537461727433
:1012A00020525820636172726965720D0A00000055
:1012B0001048018CC9B2012917D1818C090714D1BA
:1012C000018D09060A0F03D1828D1206120F0ED06E
:1012D000090F012903D1828D1206120F07D00329AD
:1012E00003D1808D0006000F01D00020704701203F
:1012F00070470000C00F00F08CB000247A4801262F
:101300002546066079482746046081050E6001681D
:101310000029FCD0764A05AB07CA07C36846878117
:101320007448089074480A90012040020B9003A86A
:10133000009009960323714A08A905A8FFF7E0FC6D
:10134000002803D000221146FFF792FC6CA0FFF7A3
:1013500037FBFF206D490130086062B6654EF61E0E
:1013600004A96BA0FEF7D2FE6846007C6F285ED011
:101370000EDC64283ED006DC612813D0622822D01F
:1013800063286FD134E065284AD06D286AD14BE0DC
:1013900070380300FFF724FB09506653585B6666FC
:1013A000666066005BA0FFF70BFB524967A0491C13
:1013B000FEF7ACFE7068502801D8014627E064A013
:1013C000FFF7FEFAEEE74A485030FFF7F9FA4949CD
:1013D0005EA0491DFEF79AFEB068502804DC7068D4
:1013E000002801DBB16812E059A0FFF7E9FAEAE74B
:1013F000012441E05FA0FFF7E3FA3E4953A0093121
:10140000FEF784FEF068401E632805D2F16866A0EE
:10141000FFF7D6FA2C4627E065A0FFF7D1FAE9E7F7
:1014200000F04CFC00251FE0FFF7B4FDF2E70224BA
:1014300068A0FFF7C5FA2BE0FFF7E0FDEAE7052417
:101440006AA0FFF7BDFA45E000F0AEFA0CE0032415
:1014500069A0FFF7B5FA27E004246AA0FFF7B0FA05
:101460002BE0FFE7FFF732FE2300FFF7B9FA06048F
:1014700005111D26330473E7B078002802D000F070
:101480001DFCB77032793178707800F021FC1EE0D5
:10149000B078002802D000F011FCB77032793178B2
:1014A000707800F0CFFB12E0307B0090337A327915
:1014B0003178707800F026FC12E0B078002802D075
:1014C00000F0FCFBB7703179307800F0D5FB254691
:1014D000002445E7337B327A3179307800F0DEFB47
:1014E0000120B070F3E7000000D000400001004090
:1014F000981D00000300002030000020811D000026
:10150000524620546573740D0A00000000E100E0AB
:1015100025630000456E74657220737461727420D7
:101520006368616E6E656C202874776F20646563F4
:10153000696D616C206469676974732C2030302098
:10154000746F203830293A0D0A000000256400002D
:101550004368616E6E656C206D75737420626520E2
:101560006265747765656E203020616E6420383066
:101570000D0A0000456E7465722064656C61792007
:10158000696E206D73202874776F20646563696DC0
:10159000616C206469676974732C20303120746F2A
:1015A000203939293A0D0A0025640D0A000000008F
:1015B00044656C6179206D75737420626520626585
:1015C000747765656E203120616E642039390D0AAB
:1015D000000000005458206D6F64756C6174656480
:1015E00020636172726965720D0A000052582053BF
:1015F000776565700D0A0000545820537765657053
:101600000D0A0000525820636F6E7374616E74206F
:10161000636172726965720D0A0000008207D30E61
:10162000FF229A408907090E10B5994000280BDA6D
:1016300003071B0F083B9C080C4BA400E318DC6954
:1016400094430C43DC6107E08408094BA400E418D0
:10165000236893430B432360C106C90E01208840D1
:10166000044908600449086010BD000000ED00E076
:1016700000E400E080E200E000E100E0F3B581B0CA
:101680000F46019800F078F9012400281E4E0198B9
:1016900017D0FFF73DFC80192030007D800903281A
:1016A00002D001280BD005E01848006901998C4050
:1016B000204204D00321019800F000F9FEBD022170
:1016C000F9E700F065F90028F8D00198FFF720FC51
:1016D00005468100C81D0E4AF93089180A6980B292
:1016E00022430A610B49401800210160002FE5D018
:1016F0000198FFF70DFC800030580028DED0064826
:10170000AC404460FEBD00005003002000050050C6
:10171000006500400060004000630040F8B5204FC5
:101720000D4604463819182141560026C81713469D
:10173000401C01D0082630E0EA7819462046FFF721
:10174000C5FB411C28D0174BAA78A100C918002A54
:1017500003D00A6802239A4301E06A7892000A6083
:10176000E978002910D082000F4829781018026902
:101770000E4B1A400261E206D20C8907890B0A431C
:1017800001690A43026108E0381820302A78017D97
:1017900092011143017500E004263046F8BD0000B7
:1017A000500300200007005000650040FFE0FCFFF0
:1017B00003490969C140C807C00F00D00120704724
:1017C0000005005070B5124DA87E002801D00820F9
:1017D00070BD0F4900202039421E0B18401CC0B2BA
:1017E0001A762028F9D300242046FFF761FB641CF9
:1017F000E4B2062CF8D301210620FFF70FFF0120E9
:101800000449C00748600120A876002070BD000090
:1018100070030020006300400248807E002800D052
:101820000120704770030020F8B504461E480D469D
:101830000019182141560026491C01D008262FE026
:10184000A97800291DD0012200212046FFF73EFB88
:10185000411C14D0830015482A7818186978036948
:10186000134F3B4003610369E706FF0C9207920B9D
:10187000C907C90A3B430A431343036104E0042632
:101880000EE00121C94301760A4A0320A10089180C
:1018900008606A780120A0400749012A02D0C86088
:1018A0003046F8BD8860FBE750030020006500402B
:1018B000FFE0ECFF000700500005005082000648E2
:1018C0001018026803231B049A430260026809048B
:1018D0000A430260704700000007005003494018A7
:1018E0000068012800D00020704700000060004020
:1018F00010B51D4A1D490300FFF772F805040B31AE
:1019000020271200487801281FD0022808D1032080
:1019100005E04878002804D0032801D1022048704F
:1019200010BD134B04201860124B012018609368FF
:10193000D268D21AF3D0FFF753F910BD48780128C6
:1019400006D0022804D00328F7D1FFF781F910BD93
:101950009068D168081AEED1FFF768F910BD487891
:101960000128E8D010BD0000400300201C0000202A
:101970000025004000200040044908181821415665
:10198000042901DB0120704700207047500300202C
:101990000449081818214156042901D20120704732
:1019A000002070475003002010B523A0FFF708F86F
:1019B000254C2078002805D0012813D0022804D116
:1019C00022A000E02AA0FEF7FBFF6078F0282DD0CF
:1019D0000ADC002811D004280DD0D8282AD0EC2801
:1019E0000ED125E02BA0EEE7F4281DD0F82819D061
:1019F000FC2805D114E030A000E037A0FEF7E0FF9E
:101A00003DA06168FEF7DCFF42A0A168FEF7D8FFA9
:101A100047A0E168FEF7D4FF4CA0FEF7D1FF10BD50
:101A20004CA0EBE753A0E9E75AA0E7E761A0E5E7A0
:101A300068A0E3E76FA0E1E7506172616D657465CE
:101A400072733A0D0A0000000000002044617461C6
:101A500020726174652E2E2E2E2E2E2E2E2E2E2EC0
:101A60003A20323530204B6269742F730D0A000022
:101A70004461746120726174652E2E2E2E2E2E2EDE
:101A80002E2E2E2E3A2031204D6269742F730D0AAE
:101A9000000000004461746120726174652E2E2E76
:101AA0002E2E2E2E2E2E2E2E3A2032204D6269748E
:101AB0002F730D0A00000000545820506F77657294
:101AC0002E2E2E2E2E2E2E2E2E2E2E2E3A202B3435
:101AD0002064426D0D0A0000545820506F776572E3
:101AE0002E2E2E2E2E2E2E2E2E2E2E2E3A20302024
:101AF00064426D0D0A00000028537461727429203D
:101B00004368616E6E656C2E2E2E2E2E3A20256453
:101B10000D0A0000456E64204368616E6E656C2E90
:101B20002E2E2E2E2E2E2E2E3A2025640D0A00004B
:101B300054696D65206F6E2065616368206368611C
:101B40006E6E656C3A2025640D0A0000206D730DE1
:101B50000A000000545820506F7765722E2E2E2EEA
:101B60002E2E2E2E2E2E2E2E3A202D342064426D17
:101B70000D0A0000545820506F7765722E2E2E2EBD
:101B80002E2E2E2E2E2E2E2E3A202D382064426DF3
:101B90000D0A0000545820506F7765722E2E2E2E9D
:101BA0002E2E2E2E2E2E2E2E3A202D313220644215
:101BB0006D0D0A00545820506F7765722E2E2E2E10
:101BC0002E2E2E2E2E2E2E2E3A202D3136206442F1
:101BD0006D0D0A00545820506F7765722E2E2E2EF0
:101BE0002E2E2E2E2E2E2E2E3A202D3230206442D6
:101BF0006D0D0A00545820506F7765722E2E2E2ED0
:101C00002E2E2E2E2E2E2E2E3A202D3330206442B4
:101C10006D0D0A0007480021016007480161074A6D
:101C20001160074B01221A610269002AFCD0016190
:101C300070470000001200400011004040150040B5
:101C40000010004070B514460D460646FFF7E2FF4F
:101C5000FFF776F9054907200860054BDE601D6136
:101C60009C6004490120086070BD00000012004023
:101C7000001500400010004010B50C46FFF7CAFFE9
:101C800003490120086003498C600349486010BD86
:101C900000120040001500400010004010B504463E
:101CA0000548047081700171C270002141711846AD
:101CB00000F046F810BD00001000002010B50349E8
:101CC00001204860FFF7A6FF10BD00000080004023
:101CD00070B514460D460646FFF79CFF06490120E5
:101CE0000860064BDE601D619C60044A032140329F
:101CF00011600349086070BD0012004000150040EB
:101D00000010004070B5064C049D60702170A270F8
:101D10002271E37001206071284600F011F870BD57
:101D20001000002004480021016001680029FCD057
:101D3000024880687047000000D1004000D5004094
:101D400010B50B4B012159600A4A11600A4A002460
:101D500054600224946004241461084C0A046260F4
:101D60007D22D2005043044A40321060196010BDF9
:101D70000080004000820040008500400083004059
:101D800010B50178022901D0012904D10022406850
:101D90001146FEF76DFF10BD0B09080A0100000097
:101DA00000509D00456E74657220646174612072FC
:101DB00061746520282730273D323530204B626919
:101DC000742F732C202731273D31204D6269742FE9
:101DD0007320616E64202732273D32204D62697482
:101DE0002F73293A0D0A0000456E74657220656EE6
:101DF00064206368616E6E656C20202020202020A6
:101E000020202020202020202020202020202020D2
:101E10002020202020202874776F20646563696D5E
:101E2000616C206469676974732C20303020746F92
:101E3000203830293A0D0A0000010000030000009C
:101E4000DDDDDDDDDCBBBBDDDDDDDDDDDDDDDDDD07
:101E50009888888888888888777777777788888847
:101E600085555556666666666666666666688888DF
:101E70008333333222222222222222222228888DD8
:101E8000A01E00000000002030000000FA09000041
:101E9000D01E000030000020600B00000A0A000085
:101EA0000100000000000000500000000A000000D7
:101EB00000000000000000000024F4000100000009
:101EC0000000000000000000000000000000000012
:04000005000000C136
:00000001FF
